:1000000000B0032041F6030099E5030099E50300E1
:1000100099E5030099E5030099E5030099E50300DC
:1000200099E5030099E5030099E5030099E50300CC
:0C00300099E5030099E50300D77B02006E
:100040002DE9F04FA1B089460746097CD9F80C008C
:1000500010B1002900F07E864D1E18BF0546D7E975
:100060000102D9F80010048886881DA839F008FB21
:10007000002800F06F86301B00F1010B45F0E8FC12
:1000800080463868D8F800C01C90DCF81C1021BBF2
:100090007968BDF976309CF81040B1F902209A1ABF
:1000A0000FFA8BF364060AD4B1F90010BDF974405D
:1000B0001C98611A02FB031100EB41000CE05A434B
:1000C000B1F90010BDF974301C9802EB4202591AC4
:1000D000024401EB410150181C90D9F80410B1B151
:1000E000D9F80020BDF97460BDF97600B2F900308E
:1000F000B2F902409288D21AF61A001B02F1010AE4
:100100000FFA8AF200FB026001EB400002E00020DF
:100110004FF0000A1B9045B39CF81000000710D464
:10012000D9F8140042F0CEFF0021814209DA6A5C5E
:10013000802A4FF0000288BF4FF0FF326A5401312D
:10014000F3E7D9F81400BDF97430BDF97640B0F981
:100150000220B0F900108088401A5B1AA21A461CCF
:1001600030B202FB0030054401E00026002578682B
:100170001C9C42880088404201B2504202B21DA835
:1001800043F0ECF9D8F80000C169002953D0D9F840
:100190000400002800F0EA8099F81800CDF868B053
:1001A000199045F055FC804645F086FF43F079FEF6
:1001B0000FFA80FB002D00F040810FFA8AF0AC4668
:1001C0004FF0000A4FF6FF79179030B2169018984A
:1001D000824580F2BF8500275F4522DA1CF80700C0
:1001E000E8B11B99199ABDF8765024EA0904BDF8C4
:1001F000743031F817105043020AD8F800000C444C
:1002000005EB0A01654609B2C6690292CDE9001400
:10021000D9190BB21A990AB21C99B047AC460137EA
:10022000DAE71B9817990AF1010A00EB41001B90CD
:1002300016988444CBE7007C400600F1DD8099F8F5
:100240001900D9F80410AC46002800F04E810029AE
:1002500000F0D7820138C1B2032980F04883BDF88D
:100260007610BDF87A2040B2CDF858A0511ABDF8EA
:100270007820013109B21591BDF87410511A99F81E
:100280001820013109B2BCF1000F18921991DFF862
:100290006C1E51F820301B982188B0F800A000F0A7
:1002A000A2859CF800000F4600FB02F4FC28504693
:1002B00098BF220A17931A92984731B2DDF860E08E
:1002C000DDF864C02B4600221491169909B21391EF
:1002D0000FFA8BF1129115998A4280F23B85002525
:1002E0001692654533DA595D39B301FB0EF2FC29EC
:1002F000744698BF140A1C9931F815B01B9931F84F
:100300001560B24508BF5F4519D04FF6FF706FF317
:100310000F081F46179B224629EA0000D84400EB2D
:100320000609414648469847DDE918EC3B461C99CA
:100330005F46B2461A9421F815000135D1E71A99A3
:10034000C9B2A142E1D11A9CBB465646EFE71499C7
:10035000139A0B441B9901EB4201129A1B911C99B1
:1003600001EB4201169A1C910132B4E7B9F808007A
:100370001B9099F81800199045F06AFB8246002DF1
:1003800000F08E8045F098FE2C464FF00009CDF825
:1003900068B043F086FD0FFA80F830B217901898D5
:1003A000814580F2D7840026464520DAA05DE0B181
:1003B0001999BDF876304FF6FF75BDF874202BEA19
:1003C00005071B9D48434B44010ADAF8000007EB80
:1003D000050B1BB2D0F81CC002919119CDE9003B6E
:1003E0000BB21A990AB21C99E0470136DCE717985C
:1003F00009F101090444D2E7D9F80400002800F00B
:10040000AF8145F059FEBDF87820544699F818A000
:100410002B46081ABDF874100130511A99F81920AA
:100420000131012A00F06C82032A00F06C82022A5A
:1004300040F06E82DFF88C2D67E21C9D0FFA8AF087
:100440004FF000094FF6FF7A17901898814580F217
:10045000818400265E451BDA1B98BDF8763027EABA
:100460000A07BDF8742030F81610D8F800000F44C1
:1004700003EB0901C46909B2CDE90017199902918A
:1004800091190BB21A990AB22946A0470136E1E741
:100490001B98179909F1010900EB41001B90D4E763
:1004A000BDF976604FF6FF790FFA8BFBBDF97A0044
:1004B000864200F34F84BDF97450BDF9780085423F
:1004C00011DC1B9A27EA0901DAF800002BB28F1819
:1004D00031B2C4695A46CDE90017199902911C99A5
:1004E000A0470135E9E70136E0E7002900F0D582B1
:1004F000BDF87600BDF87A1099F81880081ABDF892
:100500007810013000B20C90BDF87400081A013068
:1005100001B2BCF1000F1A9100F04984B8F1FD0F4F
:1005200040F2A1841B980434CDF864C0071D30B29A
:100530000790081F002118900FFA8AF006904000DB
:1005400005900FFA8BF00490400003900C988142C4
:1005500080F20084DDE91B851A9E4FF0000AE34615
:100560000991CDE90A47B24531DA0CEB0A0010F0E7
:1005700003002CD0199810F80A2002B3FF2A06D1E4
:100580001B981C9930F81A0021F81A0017E01B98E4
:100590004FF6FF711C9E29EA010130F81A0001EBA9
:1005A0000009179936F81A006FF30F010144484605
:1005B000179133F0F7FF26F81A001A9EDC46023531
:1005C00008F10208023702340AF1010ACBE7199850
:1005D000CDF8209000EB0A091898824580F28280BD
:1005E000D9F80000002862D0411C0AD137F8040C69
:1005F00024F8040C37F8020C24F8020C3888208008
:1006000053E0C2B2C2B1FF2A02D137F8040C11E0A4
:1006100013994FF6FF7034F8043C21EA000037F8D4
:10062000041C0844149945F000FFCDE9130133F090
:10063000B9FFDC4624F8040C99F80120C2B1FF2A66
:1006400002D137F8020C11E011994FF6FF7034F81F
:10065000023C21EA000037F8021C0844129945F0D8
:10066000E4FECDE9110133F09DFFDC4624F8020CD5
:1006700099F80220A2B1FF2A01D138880FE00F9922
:100680004FF6FF70238821EA00003988084410994A
:1006900045F0CBFECDE90F0133F084FFDC4620802E
:1006A00099F803201AB1FF2A0BD1788860800835A9
:1006B00008F10808083708340AF1040A09F10409A6
:1006C0008AE70D994FF6FF70638821EA0000798868
:1006D00008440E9945F0A9FECDE90D0133F062FF03
:1006E000DC46E3E70B9F00240AEB0400B0421EDA6D
:1006F00019F80420B2B1FF2A02D1B8F8000010E0C6
:1007000015994FF6FF702B8821EA0000B8F8001009
:100710000844169945F089FECDE9150133F042FFF2
:10072000DC462880023508F102080134DCE7059830
:100730000A9C1999DDF8209007440398044407980F
:10074000014484441B981991069900EB41000499D7
:100750001B901C9800EB410009991C900131F5E6B3
:10076000B9F808001996DA4699F818B0BDF87880FB
:10077000BDF87440BDF87A60BDF876700222ADF81D
:1007800080000DF17D0020A924F0EAFDF01B8DF81A
:100790007FB0013000B21B90A8EB040001300FFACB
:1007A00080F9002D00F08A820FFA8AF02B46BBF107
:1007B000FD0F00EB40001A90C0F093824FF000084C
:1007C0004FF6FF7A1B98804580F2C4821C9D00265C
:1007D0004E450EDABDF8801024EA0A009A5D1F46E5
:1007E0004418284621462CF0E7F83B4601360335ED
:1007F000EEE71C981A99334408F1010808441C904C
:10080000E0E7431ED9B2032980F09882BDF8761044
:10081000BDF87A20CDF868B0B9F8080099F81890BA
:10082000B4F80080511ABDF878201B90013109B24C
:100830001991BDF87410511A5AB201310FFA81FBA7
:10084000DFF89019BCF1000F51F8223000F0A083BE
:100850009CF800201F4602FB09F1FC2A4A4698BF7B
:100860000A0A4146984731462E46002309B218919C
:100870001A9909B217910021199A934280F26A825B
:100880004FF0000A1A93DA4527DA16F80A200AB35D
:100890001C9B8A4233F81A3008BF984517D002FBD8
:1008A00009F0FC2A4A466FF30F0598BF020A4FF67B
:1008B000FF701B991D4424EA000044182946204675
:1008C000B8471C9A16F80A1032F81A8000E01C9AF1
:1008D00022F81A000AF1010AD5E7189A179B164464
:1008E0001C9A02EB43021A9B1C920133C4E7DFF807
:1008F000D808DFF8D818DFF8D8384FF4607225E24E
:10090000DFF8B82801E0DFF8B8281A92002202E0E8
:1009100000221A92012200B20FFA81F9189219905E
:10092000E3B330B2BAF1FD0F179020B216900FFA70
:100930008BF000EB4000159066D94FF0000A4FF69F
:10094000FF781998824580F2058218989B46002509
:1009500060B11C9F4D4517DA1B9824EA08015A5DC7
:1009600044F069FB5B4601350337F3E71C9F4D45B7
:100970000ADA1B9826EA08015A5D1A9B44F0E4FA49
:100980005B4601350337F2E71799169A1C980AF16E
:10099000010A0B441B9944F00BFCD2E720B2BAF1D8
:1009A000FC0F17900FFA8BF000EB4000169040F20E
:1009B000D4814FF0000A4FF6FF781998824580F2F3
:1009C000C9811898002558B11C9F4D4515DA1B9810
:1009D00024EA0801FF2244F02EFB01350337F4E737
:1009E0001C9F4D4509DA1B9826EA08011A9BFF2235
:1009F00044F0AAFA01350337F3E71B9817990AF177
:100A0000010A44F037F8D8E700254FF6FF78199827
:100A1000854280F29F81189814959B460025C0B1AD
:100A20001C9F4D452FDA585D80B11B9926EA0802BC
:100A300031F81510561800FB0AF15246FC283846CA
:100A400098BF0A0A31462BF0B7FF5B4601350337E2
:100A5000E7E71C9F4D4516DA585D88B11B9924EADB
:100A6000080231F81510541800FB0AF15246FC2810
:100A7000384698BF0A0A1A9B21463BF029FD5B467F
:100A800001350337E6E71799169A1C98149D0B4415
:100A90001B99013544F08CFBB9E7BDF87600BDF831
:100AA0007A10B9F808A099F81880081ABDF87810DB
:100AB000013000B20C90BDF87400081A013001B288
:100AC000BCF1000F1A9100F04782B8F1FD0FCDF88C
:100AD00064A0C0F08D824AEA0A400F1F0D9030B228
:100AE0000E97401A0A900FFA8BF04000A0EB4100DD
:100AF000002109900C98814280F22C811C9F09985A
:100B00001A9E00244FF000080B91CDF86CC03D18E0
:100B1000B04521DA0CEB080010F003001CD01CF8E3
:100B20000820FF2A10D018994FF6FF706FF30F09B5
:100B300021EA00003988504489441890494633F02E
:100B400031FDDDF86CC000E0504627F8020B02359D
:100B5000023408F10108DBE70E9FB84500F3A480DA
:100B60005CF8080000287CD0411C0DD11C990819A4
:100B7000800721D001EB480021F818A00D99A0F8BA
:100B800006A0C0F802106CE0C2B2FF2A1BD0169972
:100B90001C9F4FF6FF70159B21EA000037F81810D4
:100BA0006FF30F0350440B441946CDE9153033F071
:100BB000F9FCDDF86CC008E00D9A01EB480041F843
:100BC000182042604DE01C9F504627F818000CEB9F
:100BD000080A07EB48079AF80120FF2A0DD014995C
:100BE0004FF6FF70139B44F0CEFA79880B441946F8
:100BF000CDE9133033F0D6FC00E0199878809AF8EC
:100C00000220FF2A0DD012994FF6FF70119B44F07D
:100C1000BAFAB9880B441946CDE9113033F0C2FC59
:100C200000E01998B8809AF80320FF2A12D0109992
:100C30004FF6FF700F9BDDF864A021EA0000F988F1
:100C40006FF30F0350440B441946CDE90F3033F0D6
:100C5000A9FC02E0DDF864A05046F880DDE91A6CDA
:100C60000E9F0835083408F1040876E71CF80820C0
:100C7000FF2A12D017991C9C4FF6FF706FF30F0BD1
:100C800021EA000034F8181050448B44179059465C
:100C900033F088FCDDF86CC001E01C9C504624F861
:100CA0001800023508F10108B045DFDB0A980B99FE
:100CB0001C956044013100EB080C1BE7BBF1FD0FF4
:100CC000C0F014811C9E00240DF17D054C4580F27E
:100CD0002B8130462946032224F042FB013403369F
:100CE000F4E719984FF000084FF6FF7A00B2A0EB36
:100CF000090019901B9880452CDA1C9E00254D4553
:100D000012DA585D68B100FB0BF1FF285A4624EA5D
:100D10000A001F4618BF0A0ABDF8801045F09FF967
:100D20003B4601350336EAE71C981A9908F1010899
:100D300008441C90199818444319DBE7DFF888042D
:100D4000DFF88814DFF8903440F229220090022066
:100D50002FF05AFF21B0BDE8F08F4FF000084FF69A
:100D6000FF7B19988045F5DA1898002558B11C9F2B
:100D70004D4515DA1B9824EA0B01524644F05BF905
:100D800001350337F4E71C9F4D4509DA1B9826EA25
:100D90000B011A9B524644F0D7F801350337F3E7AD
:100DA0001B98179908F1010843F064FED9E7B8F1E0
:100DB000FC0F40F270810FFA8AF80FFA8BF94C00A1
:100DC00000270C988742C5DA1C9D1B9E22462846A8
:100DD000314624F0C5FA06EB480605EB4905013714
:100DE0001B961C95EDE7504688461F469847169976
:100DF000189A199B002509B217910FFA8BF11691D9
:100E000015998D42A6DA1A9500259D421EDA1C9985
:100E100031F815901B9931F815B0DA4508BFC8456F
:100E20000FD04FF6FF706FF30F0426EA00004C441A
:100E300000EB0B0621463046B847DDE91823C846CB
:100E4000DA461C9921F815000135DEE71B99179D3C
:100E500001EB4501169D1B911C9901EB45011A9D63
:100E60001C910135CCE730B24FF0000919900FFA10
:100E70008AF04FF6FF7A18900FFA8BF017900C98C3
:100E80008145BFF667AF1A9900258D421FDA1CF81D
:100E90000500D0B11B9924EA0A026FF30F07E3465D
:100EA00031F81510541800FB08F14246FC2898BF91
:100EB0000A0A1C9E36F8150007442046394633F0CE
:100EC00071FB1A99DC4626F815000135DDE7199803
:100ED000189909F1010984441B9800EB4100179906
:100EE0001B901C9800EB41001C90C8E70FFA8AF099
:100EF00000274FF6FF7A00EB40081B988742BFF6A9
:100F000029AF1C9E00254D4509DABDF8801024EA62
:100F10000A005A4645F0A3F801350336F3E71C985A
:100F2000013740441C90E8E70FFA8AF009EB4905C5
:100F30000127A0EB090101EB4101741800EB400609
:100F40001B988742BFF606AF1C9920462A4624F01C
:100F500007FA34440137F3E7B8F1FD0FC0F0D08051
:100F60000FFA8BF400264FF6FF780C988642BFF6F6
:100F7000F1AE25EA08001C9F1A9A00EB0A053846D4
:100F800029463DF0BDF807EB440701361C97ECE716
:100F900041464A469A4698471A99002209B2189142
:100FA00019998A42BFF6D6AE00261A925E4517DA24
:100FB0001C9931F81670B8450DD04FF6FF701B998B
:100FC0006FF30F054A4624EA00003D4444182946C1
:100FD0002046D047B8461C9921F816000136E5E7AF
:100FE0001C99189A01EB42011A9A1C910132D7E719
:100FF00030B2002600220023401A218818900FFAF0
:101000008BF0179008460C9CA642BFF6A3AE1B9629
:101010001A9E4FF00009B14531DA1CF809405CB363
:1010200004FB08F7FF2C464618BF3E0A944208BF4F
:101030001E461C9B944233F819A005D18BB2534530
:1010400002D18A46144610E04FF6FF7019996FF3EB
:101050000F05F2B267462BEA0000554400EB010B86
:101060002946584633F09EFABC461C9933461A9ED0
:10107000224621F81900514609F10109CBE71C9CD1
:10108000179E04EB46041B9E1C94189C0136644476
:1010900004EB090CB7E70FFA8AF00FFA8BF64FF062
:1010A000000A4FF6FF7B19900C988245BFF652AEAE
:1010B00000251A98854215DA1B98DDF8709027EA0A
:1010C0000B016FF30F04424630F815000F1839F882
:1010D000150004443846214633F064FA29F8150017
:1010E0000135E6E71B9819990AF1010A00EB410066
:1010F0001B901C9800EB46001C90D5E77C12050065
:10110000504600214246002633F04CFACAF304212F
:10111000524688F0FF0548F281074FF0F80E002391
:1011200001FB08F9CAF3C40101FB08FA510B62F391
:10113000C5015A4601FB08FB11B2284A19912849FA
:1011400088460C998B42BFF605AE00211B931A9B73
:1011500099422ADADDF870C03CF81140A64220D04E
:10116000660BC4F3C40064F3C50610FB05A016FBB0
:1011700005B600FB072006FB07260EEA1050C6F353
:1011800082631844434608EA962326461844C4F36B
:10119000042313FB059303FB0723C3F3C45340EA63
:1011A00003202CF811000131D1E71C99199B01EBA8
:1011B00043011B9B1C910133C3E700BF2D5B030060
:1011C000995B0300916C0300BFED040082D0040022
:1011D0003C1305007C1205002112050080404000F0
:1011E00000E03F002DE9FE4FDFF8FC6EB16EC8074E
:1011F00005D11220042137F057FBB16E01E04AF20D
:1012000010307080C80704D11220042138F058F83B
:1012100003E01220052137F047FBB08096F8680004
:10122000C00707D14FF6FF700221F080122037F07F
:101230003BFB04E044F22960F08048F229603081F1
:10124000F068DFF8A89E00F59C70C847F06800F5CC
:10125000A270C847DFF898AEDFF8987E00244620D9
:1012600006F120055023CDE90004284651463A46B0
:101270003FF054FB06F1340851463A465023CDE97D
:10128000004440463FF04AFBF068294600F59C7058
:1012900045F0E0F9F068414600F5A27045F0DAF952
:1012A000F0680C30C84796F86800C00703D11220D8
:1012B0003CF0B2FF03E01220022138F001F8F2689E
:1012C000DFF8344E81B202F10C00A047F068DFF87D
:1012D000E0BF47F6FF7125460C30D847706DDFF848
:1012E000E0AFF4680721D047014604F10C0040F05C
:1012F00001FB45F04AF8014604F10C0045F0AEF957
:10130000F068DFF8C07F66210C30B847F0684146CE
:101310000C3045F09FF9F0681830C847F068FF219D
:101320001830B847F068C847F068FF21B84771889F
:10133000F068A846A847B188F06845F077F944F00E
:10134000E4FF08BF0C21012808BF0E2145F068FA10
:101350000146284645F046F944F0D7FF08BF0C2166
:10136000012808BF0E2145F05BFA0146284645F0EA
:101370002DF9F0682430C84730780821012808BFCB
:101380000C2145F03BFA45F034F8D847F068FF21CE
:101390002430B847F068F1882430C047F0683189BC
:1013A000243045F0CBF844F0C8FF45F022F845F072
:1013B000D5F8F0680121243045F0C8F8F068B1880C
:1013C000243045F033F9307810251021022808BF69
:1013D0001421012808BF182145F010FA45F009F83A
:1013E00040F088FA44F091FF08BF0C21012808BFA3
:1013F0000E2145F003FA44F0FCFF45F0F3F844F009
:1014000084FF08BF0C21012808BF0E2145F0F6F922
:1014100044F0EFFF45F0DAF844F08BFF04F12402CA
:1014200081B2104645F0AEF8706DF4680121D047E6
:1014300044F0DFFF45F0AAF8F068F030C84744F008
:10144000B8FFF03045F0AEF844F0FBFF014604F180
:10145000F00045F0B3F844F0F4FF014604F1F00069
:1014600045F0A8F8F0687F21F03045F09FF8F0686B
:10147000FC30C847F068B6F85A10FC3045F092F8D6
:1014800044F0DFFF014604F1FC0045F097F8F068F6
:101490007F21FC3045F08AF8F0683030C84730785A
:1014A0000821022808BF0C21012808BF102145F09F
:1014B000A5F9014604F13000D847F068FF2130302B
:1014C000B847F06831893030C04796F86800C007E7
:1014D00039D144F02EFF04F1300281B2104645F0BC
:1014E0008DF8F06844F0B1FD502809DB002041F090
:1014F00013FE00EB4000A021503090FBF1F000E023
:10150000012001B2204645F089F8F0687F21303093
:1015100045F07CF8F068776D44F097FD3C2809DBD6
:10152000002041F0F9FD502101EB8000A02190FB4B
:10153000F1F000E0012001B238463EF0D3FB014655
:10154000204645F05FF8F068B188DFF87C2D303038
:10155000904730781021022808BF1421012808BFC5
:10156000182145F04BF9DFF8642D014604F13000F5
:10157000904744F0CAFE08BF0C21012808BF0E2185
:1015800045F03CF9DFF8482D014604F13000904762
:1015900044F0FBFEDFF83CBD014604F13000D847C3
:1015A00044F0F3FEDFF8308D014604F13000C0470F
:1015B000DFF8280D3446374644F8180FDFF8200DC1
:1015C00047F8100FF0688430C847F0683946843017
:1015D00044F0CCFFF0682321843044F0CBFFF06866
:1015E0009030C847F0682146903044F0BFFFF06863
:1015F0007F21903044F0BEFFF06800F59070C8473E
:10160000F068DFF8E02C012100F590709047F06859
:10161000012100F5907044F099FFF068C030C84790
:1016200030781021022808BF1421012808BF182192
:1016300045F0E4F8014604F1C000DFF8AC4CA047E7
:10164000307810212746022808BF1421012808BF3E
:10165000182145F0D3F8014604F1C000C0473078A6
:10166000022808BF1425012808BF1825706DF468EA
:101670002946D047014604F1C000D847F068B4308D
:10168000C84744F042FE08BF0C21012808BF0E21C4
:1016900045F0B4F8014604F1B400B84730780A21A7
:1016A0003D46022808BF0C21012808BF0E2145F045
:1016B000A5F8DFF8382C014604F1B4009047F06833
:1016C000CC30C84744F045FE014604F1CC00C04789
:1016D00044F03FFE014604F1CC00D847F068D83012
:1016E000C847706DF4681421D047014604F1D80052
:1016F00044F0A4FFF068E430C847F0680221E43009
:1017000044F090FFF0689C30C847F06800219C309E
:10171000B847F06800219C30C047F06800219C3039
:10172000D847F068A830C84744F03FFE08BF0621FC
:10173000012808BF082145F061F8014604F1A8001E
:10174000B84744F032FE08BF0621012808BF08212F
:1017500045F054F8014604F1A800C04744F025FEC6
:1017600008BF0621012808BF082145F047F80146B7
:1017700004F1A800D847F0683C30C84744F019FE8F
:10178000DFF8348B3C30C047F068DFF83CBB4FF6E5
:10179000FF713C30D847F068DFF8287BFF213C30F0
:1017A000B847F0684830C847F068B6F85810483075
:1017B000C047F068B6F858104830D847F068332171
:1017C0004830B847F0685430C847F068B6F85A1047
:1017D0005430C047F0684FF6FF715430D847F06876
:1017E000FF215430B847F0686030C847F068B6F859
:1017F0005A106030C047F068B6F85A106030D847C9
:10180000F06833216030B847F0686C30C847F06842
:1018100031896C30C047F068FF216C30B847F06800
:10182000B1886C30D847F0687830C847F068F188E4
:101830007830C047F068FF217830B847F068B18849
:101840007830D847F06800F58470C847F068DFF852
:101850006CBA47F6FF7100F58470D847F06800F560
:101860008A70C847F068002100F58A70D847F06890
:1018700000F59670C84744F0E4FD014604F5967003
:1018800044F0E4FE44F0DDFD014604F5967044F0BA
:10189000D9FEF06800F5B470C84744F08AFD00F541
:1018A000B470C047F068FF2100F5B470B847706DA0
:1018B000F4680621D047014604F5B470A847F068E3
:1018C00047F6FF7100F5B470D847F06800F5A870CE
:1018D000C847F068DFF8184AC82100F5A870A0478B
:1018E000F06800F5AE70C847F068782100F5AE707A
:1018F000A047F06800F5C070C847F068318900F56E
:10190000C07044F0FFFD706DF4680F21D0470146B0
:1019100004F5C07044F0FEFDF068012100F5C070D0
:1019200044F0F4FDF06800F5C670C84744F041FD8E
:1019300000F5C67044F0E6FDF06800F5E470C847B5
:10194000F0684FF4827100F5E47044F023FEF06813
:1019500000F5EA70C84744F074FD014604F5EA70EA
:10196000A84744F0EAFCDFF88C29014604F5EA7048
:10197000904744F01EFDDFF8802900F5EA7090479B
:10198000F068F18800F5EA70C047F068FF2100F5C3
:10199000EA70B84730780821012808BF0C2144F0CC
:1019A0002DFF022190FBF1F001B204F5EA70D84757
:1019B000F06800F5F070C847F068DFF8401900F5EE
:1019C000F07044F0B3FDF068DFF8FC284FF6FF71CB
:1019D00000F5F0709047F068F16D00F5F07044F09C
:1019E00029FEF06800F5F670C847706DF4680421B0
:1019F000D047404201B204F5F670A847F0684FF6B0
:101A0000FF7100F5F670C047F06800F5FC70C8473C
:101A1000F068DFF8EC48012100F5FC70A047F068A1
:101A20002746B188DFF8DC4800F5FC70A047F06875
:101A3000254600F5DE70C847F068002100F5DE702D
:101A400044F084FD44F085FCDFF88888014604F505
:101A5000DE70C047F068318900F5DE70A847F06895
:101A600000F5CC70C84744F0ECFC014604F5CC709E
:101A7000B84744F0E6FC014604F5CC70D847706DD9
:101A8000F4680821D047014604F5CC70DFF87848A7
:101A9000A047706D2546F4680221D047014604F541
:101AA000CC70C047F06800F5D270C847F06847F6C0
:101AB000FF7100F5D270D847706DF4680821D047E7
:101AC000014604F5D270A84744F073FCDFF8E8B78C
:101AD00000F5D270D847F068DFF8E827FF2100F55D
:101AE000D2709047F06800F5D870C847706DF46800
:101AF0000121D047014604F5D870B847F068B18895
:101B0000DFF8002800F5D870904744F016FCDFF8A5
:101B1000D857014604F5D870A84744F00AFCC846D7
:101B200004F5D872DFF8A09781B21046C847F06874
:101B300000F51C70C047F068002100F51C70A84734
:101B4000F068DFF8A877002100F51C70B847F0684E
:101B5000DFF86877002100F51C70B847F068DFF8FF
:101B60008447012100F51C70A047F068DFF89C272E
:101B7000002100F51C709047F06800F53170C047F7
:101B800030780821012808BF0C2144F049FE0146A5
:101B900005F53170B847F068012100F53170A047B4
:101BA000F068DFF82027FF2100F531709047F068DA
:101BB000F18800F53170D847F068B18800F53170D0
:101BC000C847F06800F51F70C04744F09EFB08BF8F
:101BD0000C21012808BF0E2144F022FEDFF8EC465C
:101BE000014605F51F70A04744F08FFB08BF0C218C
:101BF000012808BF0E2144F013FEDFF8D4B60146D9
:101C000005F51F70D84744F080FB08BF0C21012860
:101C100008BF0E2144F004FEDFF8D096014605F51A
:101C20001F70C84744F08DFBDFF8C8B6014605F5C4
:101C30001F70D847F068192100F51F7044F082FC2E
:101C4000F068B188DFF8B07600F51F70B847F0682B
:101C5000DFF8B846002100F51F70A047F068DFF8F4
:101C600054A600F52270D047F068DFF87C8600218A
:101C700000F52270C047F068002100F52270C847C7
:101C8000706DDFF83C26F56801219047014605F5A7
:101C90002270D847F068192100F5227044F052FCF8
:101CA000F068B18800F52270B847F068082100F5A7
:101CB0002270A047F0685446DFF804A600F52570AE
:101CC000A047F068002100F52570C047F0680021AA
:101CD00000F52570C847F0684F4600F52B70A04707
:101CE00030780A21A146022808BF0C21012808BF2C
:101CF0000E2144F095FDDFF8D445014605F52B7023
:101D0000A04744F052FB08BF0621012808BF082164
:101D100044F086FDDFF8B8B5014605F52B70D847CD
:101D200044F0F3FA08BF0C21012808BF0E2144F04B
:101D300077FD014605F52B70B847F06800F52E7069
:101D4000C84744F032FB08BF0621012808BF08211C
:101D500044F066FD014605F52E70A04744F025FBD2
:101D600008BF0621012808BF082144F059FD01469B
:101D700005F52E70D847F068002100F52E7044F06C
:101D800045FCF068DFF83C85002100F52E70C04767
:101D9000F068B188DFF8302500F52E709047F068C4
:101DA00000F52870C847F068002100F52870A047AA
:101DB000F068002100F52870B847F06800F534702D
:101DC000C847F068332100F53470C047F568122029
:101DD0003CF022FA05F53472DFF8DC7481B210466B
:101DE000B847F06800F53770C847F068002100F583
:101DF0003770C04744F0D9FA08BF0621012808BF50
:101E0000082144F00DFD014605F53770D847F0680C
:101E100000F50470C847706DF5680521D047DFF8FC
:101E2000E024014605F504709047F068B188DFF8BA
:101E3000D42400F504709047706DF5681421D047E4
:101E4000DFF8C444014605F50470A047706DF568DD
:101E50000F21D047014605F5047044F0BBFBF06844
:101E600000F50770C847F068DFF8502447F6FF71A7
:101E700000F507709047F068B18800F50770B84723
:101E8000F068FF2100F50770C047706DF5680F21FD
:101E9000C846D047014605F50770A047F06800F531
:101EA0000170C84744F04DFADFF84844014605F593
:101EB0000170A047F0683189DFF83C5400F50170EB
:101EC000A847F068DFF84474032100F50170B847B3
:101ED000F06800F50A70C847F068B18800F50A702C
:101EE000A847706DF5680221D047014605F50A70D4
:101EF000A04744F026FA404201B205F50A7044F0CA
:101F000069FBF068042100F50A70B847F068F84AE8
:101F10004FF4C87100F50A709047F06800F50D7035
:101F2000C847F06800F50D7496F86800C00704D142
:101F30001220012136F0B8FC03E01220022137F014
:101F4000BFF981B2204644F071FBF06800F51070D3
:101F5000C04744F0DAF908BF0C21012808BF0E2160
:101F600044F04CFC014604F510703FF0C3FC44F013
:101F7000CCF908BF0C21012808BF0E2144F050FC09
:101F8000022490FBF4F001B205F5107042F04FF816
:101F9000F06800F51370C04744F0D3F9014605F529
:101FA000137044F0DBFAF068318900F5137044F0E7
:101FB000C5FAF068F18800F5137044F0AFFAF068E4
:101FC000332100F5137044F0B5FAF06800F516708F
:101FD000C04744F09AF908BF0C21012808BF0E2120
:101FE00044F01EFC014605F5167042F02BF844F053
:101FF0008CF908BF0C21012808BF0E2144F010FC09
:10200000014605F5167044F0F1FA3078022808BF51
:102010000624012808BF0824706DF5682146D047C2
:10202000014605F5167044F0CDFA44F06EF908BF8C
:102030000C21012808BF0E2144F0E0FB014604F505
:10204000167041F0F4FFF06800F51970C04744F0D5
:1020500080F9014604F5197044F05CFAF06800F567
:102060003D70C047706DF4680421D047014604F507
:102070003D703FF03FFCF06800F53A70C047F068F3
:1020800042F2640100F53A7044F088FAF06800F515
:102090004070C04744F04DF904F5407281B21046DB
:1020A00044F03CFAF0687F2100F5407044F042FAB9
:1020B000F06800F54370C047F068002100F54370F8
:1020C00044F0ACFA3078F468012809D0032815D11F
:1020D000706D08213DF006FE022190FBF1F011E049
:1020E000706D0C210CE000BF9C8901204945040063
:1020F00084070500C51D04001D650400706D0821DE
:102100003DF0F0FD04F5437201B2104644F072FA5E
:10211000F06800F55570C04744F04BF900F5557074
:1021200044F00CFA44F009F9400001B204F555708E
:1021300044F014FAF068012100F5557044F00AFAF1
:10214000F06800F55270C04744F0F7F8404201B221
:1021500004F5527044F02EFAF06800F54670C0475E
:10216000307810241021022808BF1421012808BF4C
:10217000182144F055FB014605F5467041F062FF19
:10218000F068002100F5467041F067FFF06800211B
:1021900000F5467041F04BFFF068012100F54670F4
:1021A00044F0E0F9F06800F54970C04744F0C9F820
:1021B000014605F5497044F0D1F9F068318900F520
:1021C000497044F0BBF9F068012100F5497044F012
:1021D000C1F930780A250A21022808BF0C210128FC
:1021E00008BF0E21706DF768D047014607F54970AA
:1021F0003FF080FB3078022808BF0C25012808BF7B
:102200000E25706DF7682946D047014607F54970DD
:1022100044F0DCF9F06800F54C70C04730780228D3
:1022200008BF1424012808BF1824706DF5682146E2
:10223000D047014605F54C7044F008FAF06800F507
:102240005870C047F068FF2100F5587044F072F9EB
:10225000F0684FF6FF7100F5587044F05FF944F0F4
:1022600068F804F5587281B2104644F05BF9F068E2
:1022700047F6FF7100F5587044F0BCF9706DF468D2
:102280000F21D047014604F5587044F0C7F9F068B3
:102290004FF6FF7100F5587044F0B0F944F075F84E
:1022A000014604F5587003B0BDE8F04F44F0B2B9F0
:1022B000F5650400494504001D650400F56504004A
:1022C000E5FC0300356504002D660400454004006C
:1022D0005B400400CD650400E565040059EF030090
:1022E0009564040065650400F51804002F4004009F
:1022F000FD6404005D6504003D650400EC16050006
:102300008D65040085650400714004005565040076
:102310002DE9F04FCDB0DFF8680E0D463EF073FDAD
:10232000012841F03C80284644F0D0F80646284673
:1023300044F0B0FB04462C2E00F0D480082E00F0B0
:10234000E580132E30D0152E45D0292E00F0C48004
:10235000012E41F0248043F0C3FB15A93EF03EFD61
:10236000A08ABDF854100D1A2046ADF8545029F03B
:1023700037F9054444F03CFA8046B4F884702046AE
:102380000021002643F042FC281A00B2002800F188
:10239000E08008FB07F10A02B0EB224F40F3BE8059
:1023A000B4F88200461ED4E0B4F94000B4F94C20E1
:1023B000B4F95830B4F964109042C8BF02468B4259
:1023C0002846C8BF19468A42C8BF11464DB0BDE86D
:1023D000F04F3BF0CDBE28463DF02CFD826805460F
:1023E00004F1140127A8089137F04AF90028129542
:1023F00000F07881A8680E9027A8A86044F0BFF983
:102400001090204600214FF0000843F0FFFB0A9097
:1024100043F0D7FF824644F0EBF90C90B4F8840007
:102420000B9044F0EEF98146B4F88600119038AE76
:10243000304641F0A4FD2046002132462BF0E0FC5E
:1024400015AF2946384642F025FC4FF0FF301A21DF
:102450003A461B96CDF85C80CDF88880CDE91E8881
:102460002390DFF8480F169044F083F920460021AE
:10247000312220F085F8C0B20F9044F080F90D9021
:1024800020460021332220F07BF8079044F06BF9BE
:10249000099044F080F9B4F87E60002E00F0B3801B
:1024A0008346A08ACDF81890B4F816904FF0000833
:1024B000ADF81801208BADF8D40010980AEB000796
:1024C0000F98032868D30D98012865DB079DA8079E
:1024D00053D44FF0000856E020464DB0BDE8F04F11
:1024E0003DF008BD284644F0D3FA054644F080F993
:1024F000B4F884104843000A288044F082F9B4F804
:1025000086104843000A688000F049BF43F057FD39
:1025100047F6FF70A4F87C0000F041BF94F88820D3
:1025200041F30F2102F00702022A0BD0012A0FD13A
:102530000222B4F8823091FBF2F2013B12B203FBAB
:10254000002002E0B4F88220504390FBF1F600E056
:102550000026B4F97C00864200F02187B1B2204603
:102560001DF02EFF43F02BFD20461C210022A4F875
:102570007C603BF0E1FD00F012BF43F022FFB0FAB7
:1025800080F04FEA5018E80706D02046002143F0BB
:1025900013FB002808BF013EA7EB0B0011990FFAAF
:1025A00086FB48441190069835AD46AE15AF4843BA
:1025B000010240F30F2A11FB28F9D84523DA012044
:1025C00011993A46CDE91E65CDF88C801790DFF859
:1025D000DC0D1690B4F87E00013899FBF0F0084449
:1025E0001A21ADF81A01ADF8D60044F0C2F81298DD
:1025F00038A932462B4641F03FFA43F090FCD144D3
:1026000008F10108D9E7B4F88070002F5DD0109868
:102610000A99B4F81490002501EB0008E08AADF89F
:102620001A01608BADF8D6000F98032815D30D98CA
:10263000012812DB079E700701D4002504E043F057
:10264000E0FEB0FA80F04509300706D520460021AB
:1026500043F00CFB002808BF013F09980FFA87FAE6
:102660000DF58C7BA8EB000048440DF1D4091190C6
:10267000DDE90B1015AF4843010240F30F2811FBB1
:1026800025F6554521DA022011993A46CDE91EB9C1
:1026900023951790DFF8140D1690B4F880000138D8
:1026A00096FBF0F008441A21ADF81801ADF8D400FB
:1026B00044F05FF8129838A95A464B4641F0DCF9CD
:1026C00043F02DFC46440135DBE700201B21CDE91A
:1026D0001E004FF0FF30239015AA44F04AF8129DD7
:1026E0000E98A86020462946002214F0DDF8204606
:1026F0002946012214F0D8F820462946022211F07A
:1027000085FC20462946042211F080FC04F12400B7
:10271000109041F0DAFF002840F0388594F88800E6
:1027200000F00700032800F03382022800F0FE8347
:10273000012840F02B85AA6846AE43F07AFE0028B7
:1027400000F02485A968AE60B4F882000228C0F0C9
:102750001D852046079142F00BFE074643F051FECF
:10276000804643F02EFE824644F042F81190B4F8C1
:1027700084000F9044F045F80C90B4F88600A68AC7
:102780000B9043F0F0FF8346B4F8169044F003F842
:102790000D90AA6835A8089936F072FF002800F05D
:1027A000028608EB07000AEB070830440E9027ADBD
:1027B000284641F0E4FB20464FF4A0212A462BF0A6
:1027C0001FFB38AD284639F01DF920464FF4003183
:1027D0002A4617F0BDF943F0ACFB0226824690FB77
:1027E000F6F0059005B2204642F084FA90FBF6F12F
:1027F0000AB204919542B8BF2A46BDF89E100BB2AA
:1028000093FBF6F31BB29A4201DD42F0EAFB0E9A0B
:102810000129A2EB0B020E9208EB090205D19DF8EB
:10282000A51041F010018DF8A5100D99023880B265
:10283000511AAAF102020D9142F0C5FB38BF0120E6
:102840008A424FF0000138BF012108400390DDE9C2
:102850000B10484340F30F200C9011980F994843F8
:1028600040F30F200F90B4F882000690109843F0C8
:1028700079FC8246E8430990681C0A90129D0798EB
:10288000BAF1000F00F08E859AF80C00C10740F0F5
:102890007981BAF80810C0F3001004EB4000ADF8DD
:1028A0009C10ADF8E41094F88810090754BFBAF8EA
:1028B0000AB04FF0000B0E99ADF82811ADF84C108E
:1028C000DAF804100FFA8BF20B9231F91210B0F90A
:1028D0006C20B0F970000C9B891A801A594391FB47
:1028E000F0F00D99181A08442946ADF82A0115A8E8
:1028F00042F0D0F94FF4A02000254FF000082290BC
:1029000003201790DFF8A40A169027A8CDF898A006
:102910001B9038A81990BDF82A01CDE90100DDF817
:102920001CE0B4F88260DC46B04580F0EB80BEF974
:1029300004100A98BDF92831BDF82A210144ADF8E8
:102940004C30ADF84E209942C0F2DC80711E1195DA
:10295000D14695FBF1F10E9801440B98ADF8281182
:1029600000EB080797FBF6F505FB167B9AF80C7051
:10297000DAF80460DDF830A04FEA0B45C7F3001722
:10298000ED1304EB4707B7F96C00755FB7F970708A
:102990002D1A381A05FB0AF595FBF0F00D9DAAEBF0
:1029A00000002F18099DADF82A71BEF900002844D7
:1029B0000DB2A8426FDCB8F1000F6CD00F98069DE5
:1029C0009BB20FFA8BFAA84259DD0599049E0FFAC3
:1029D0008CF74D465818ADF830019019ADF832011A
:1029E000A8F101002390901B47F6FF76ADF82E0169
:1029F000581AADF82C01D9F8040030F8170013A9C3
:102A0000801B18BF08461E90D9F8040030F81A0041
:102A10004BA918914AA9801B18BF08461A211F907C
:102A2000D9F8040030F917002590204615AA3BF08C
:102A300083FBD9F8040030F81710B14209D030F800
:102A40001A00B04205D0129827A913AA4AAB41F048
:102A500013F80398CA4650B1DAF8040030F81700AA
:102A6000B04204D0129838A94BAA3EF043FC20464D
:102A70001B2115AA3BF060FBDDF81CE00CE00FFA0F
:102A80008CF047F6FF7236F81000904203D036F80B
:102A90001A00904206D1CA46119D0F9808F101080C
:102AA00005443EE7029D38B2CA462DB28542A8BF12
:102AB0000546019A12B28242C8BF10468AB29342BA
:102AC00002D1CDE90105E7E70139AAB2ADF84E50D0
:102AD000ADF84C10ADF8281181B28A4208BF013020
:102AE000ADF82A01129827A913AA4AAB40F0C4FFF7
:102AF000BDF82801DDF81CE0CDE901770130ADF823
:102B00002801C9E70F980699129D88423ADD1FFAFD
:102B100088F0864236D1DAF804100FFA8CF047F6C6
:102B2000FF7231F8101091422CD00021059E049FB5
:102B30000DF59679CDE91E11BDF82811CDF86090FC
:102B40008A19891BADF83021BDF82A21ADF82C1166
:102B5000D319D21BADF83231A8F10103ADF82E2103
:102B60002393DAF8041043F0C6F915AE204643F07B
:102B70005DFE284638A94A463EF0BCFB20461B2194
:102B800043F054FE1098514643F07AFE824676E6B2
:102B9000AA6846AE43F04DFC002800F0F782A86812
:102BA000AE60069043F0EBFD074643F02AFC0F9021
:102BB00043F007FC0C9043F01BFE1190B4F8840026
:102BC0000D9043F01EFE0590B4F88690A58A43F060
:102BD000CAFD0990E08A079043F0DDFD0E9027AE14
:102BE000304641F0CCF920464FF4A02132462BF07C
:102BF00007F938AE304638F005FF20464FF4003173
:102C0000324616F0A5FF43F094F94FF0020A8046D1
:102C100090FBFAF00B900FFA80FB204642F06AF826
:102C200090FBFAF10EB20A91B345B8BF5E460F9918
:102C30000C9A059B39443A4409FB03F32944BDF837
:102C40009E502FB297FBFAF73FB2BE4205DD9DF8CA
:102C5000A56046F010068DF8A560099E8E1B0799A9
:102C600011441A0A012D0F9201D142F0BAF90E9ABD
:102C7000023880B2891AA8F102020E9142F0A3F93B
:102C800038BF01208A424FF0000138BF01210840BF
:102C9000079011980D99484340F30F200D9010981C
:102CA00043F060FA80460F9847F6FF7B00B20C9025
:102CB000129D0996B8F1000F00F05F8298F80C1091
:102CC000C80740F02D81B8F80800ADF89C00ADF8B9
:102CD000E40094F88800000754BFB8F80AA04FF049
:102CE000000AD8F80400ADF84C60ADF82C610FFA7A
:102CF0008AF330F8130011930A2806D14EF201002E
:102D0000ADF84C004EF2010021E0D8F8000002229C
:102D10001F4602EA9101621830F913000D9BB2F9C7
:102D2000741042F023FE98F80C1030440C9BADF860
:102D30004C00D8F80400C1F3001104EB410230F953
:102D4000170041F0AFFE0F99081A0E990844ADF82C
:102D50004E0015A8294641F09DFF27A8CDF8988080
:102D60004FF000091B9003201790DFF840061690E3
:102D70004FF4A020229038A8119B1990B4F882003B
:102D8000814580F0928013994B9103EB090191FBEF
:102D9000F0F202FB1017D8F804103804C013085ED4
:102DA00058457ED098F80C100C9B3DB2C1F3001131
:102DB00004EB410241F076FE0F9902220D9B081AA6
:102DC0000E99084498F80C10ADF84E00D8F80000A1
:102DD00002EA91016218B2F9741030F9150042F05C
:102DE000C5FD119B3044B9F1000FADF84C0058D02F
:102DF000BDF82C010B9B0A9EC118C01AADF8D81063
:102E0000BDF82E11ADF8D40020460FFA8AF48246A0
:102E10008A19891B47F6FF76ADF8DA20A9F101027D
:102E2000ADF8D6102392D8F8041031F814104BAA3C
:102E3000891B18BF11461E91D8F8041031F81510DF
:102E400035AA189213AA891B18BF11461F91D8F8EA
:102E5000041031F9141025911A2115AA3BF06CF9D0
:102E6000D8F8040047F6FF7B30F81410B14210D0B8
:102E700030F8150058450CD0129827A94BAA13AB6F
:102E800040F0FAFD079820B1129838A935AA3EF013
:102E900031FA50461B2115AA54463BF04DF9099EC4
:102EA000119B09F10109BA4668E71FFA89F18842C6
:102EB00035D1D8F804100FFA8AF031F810105945BE
:102EC0002DD00021CDE91E1135AFBDF84C100B9D62
:102ED0000A9E18974A19491BADF8D820BDF84E2014
:102EE000ADF8D4109319921B099EADF8DA30A9F110
:102EF0000103ADF8D6202393D8F8041042F0FBFF6D
:102F000015AD20462A463BF017F9129838A93A46E3
:102F10003EF0F0F920461B212A463BF00DF9129DA8
:102F20001098414643F0ACFC8046C3E6AA6827AE41
:102F300043F07FFA002800F02981A8680021AE60E4
:102F40000A90204642F062FE0F9043F03AFA0E904B
:102F500043F04EFC0D90B4F884000C9043F051FC0B
:102F60000990B4F88600079010983FF0F9FB0746E7
:102F70002046002142F03EFEA9460690B4F8825059
:102F8000B4F8848020464FF4A02142F033FE05902F
:102F9000B4F88400039043F0F2FB834643F0E3FB74
:102FA0000B9043F0F8FB049038AE304638F02AFD21
:102FB00020464FF4A021324616F0CAFDFF20BDF88E
:102FC000E01011944FF0000A8DF8E3009DF8EF0037
:102FD00000F0F8008DF8EF00608B08444946ADF82A
:102FE0001E0115A841F056FE0420691E039B179090
:102FF000EE4816904FF4A0202290069808FB00F0AF
:1030000000124843DDE90C215143059A0902C0EB47
:1030100021405A4390FBF5F013127D1E00B203FBD2
:103020001503C0EB2140B3FBF7F31D041BB2B5F54C
:10303000803FB8BF01230C900F980B9903EB22241B
:103040005E1E5844401A0B900E9804995844401A3A
:103050000F9009980799484340F30F20CDE90D6080
:103060001198B0F88200824580F08C800C9A089903
:103070000138109D0AFB02F20988CDF88CA092FB62
:10308000F0F00B9A104400EB010B284643F06AF86D
:10309000074600286ED0387BC10766D1119906EB30
:1030A0000B020BEB040891F88810090754BF7989CB
:1030B0000021BDF99C30ADF81C2112B2ADF818B159
:1030C0009A4201DAC34650E0BDF9A0300FFA8BF204
:1030D0009A424FDC3A89DDF844B00AFA81F1C0F334
:1030E0000010D146ADF8E420BBF882200BEB400085
:1030F000B0F96C50B0F9700091FBF2F3401B03FB88
:10310000121C7B680E994FEA0C42D2139E5E761B0E
:10311000BBF816504E4396FBF0F00F9E081A35444C
:1031200047F6FF712844ADF81A01985A884218D022
:1031300038AD0DF58C7A26970FFA8CF01995CDF8ED
:1031400060A0796842F0D7FE15AE584643F06EFB9A
:103150001298294652463EF0CDF858461B2143F0BE
:1031600065FB109D0D9EC346CA462846394643F06E
:1031700087FB8DE70AF1010A72E7069805E000BFB8
:1031800048FB0400129D0A98119CA86004F13006C7
:10319000304641F09AFA002840F00181A9684BAF0F
:1031A000089A384636F06CFA002800F0F880A868D3
:1031B000AF600F9046AF384640F0E1FE20464FF436
:1031C000E0213A464FF4E0292AF01AFE38A838F0F8
:1031D00019FC47F6FF704FF4E021ADF8E0009DF8D0
:1031E00020018DF8E300204642F0B8FD80462046DD
:1031F0004FF4E02142F0B2FD074615A8294641F000
:1032000049FDCDF8889027A84FF6FD71002219904E
:1032100035A81B900520179064481690A8F102006D
:1032200080B288424FF0000038BF0120BB1E9BB225
:103230008B4238BF012200EA0209022098FBF0F11C
:1032400097FBF0F011911090304642F08BFF07464B
:103250000DF592780DF5947A002F00F09D8035A839
:1032600046A90A2222F07CF827A838A9382222F0A1
:1032700077F8F888CDE91EA8ADF8D400ADF8A00025
:10328000787BC0070ED1BA8847F6FF7082427DD0A6
:10329000B968204613AB18F0F9FFBDF84E00BDF831
:1032A0004C1001E078883988E28A02EB000BA08A92
:1032B0004518B9F1000F11D0119AA918ADF85010A6
:1032C000A91A109AADF84C100BEB0201ADF8521090
:1032D000ABEB0201ADF84E1013A900E000211891EC
:1032E000397B8A0727D0C907ADF82AB108BF28461D
:1032F000002AADF82801284600D5208BADF824011E
:10330000ADF826B120461A2115AA3AF015FF1298F9
:1033100035A95246434640F0AFFBB9F1000F04D047
:10332000129827A913AA3DF0E5FF20461B2115AAF4
:103330003AF002FF397B11F00C0F27D04807ADF8A7
:103340002851584648BFE08AADF82451ADF82A010B
:10335000080748BFB4F81AB020461A21ADF826B1C4
:1033600015AA3AF0E9FE129835A95246434640F0B4
:1033700083FBB9F1000F04D0129827A913AA3DF0DE
:10338000B9FF20461B2115AA3AF0D6FE3046394631
:1033900043F076FA07465FE712980F9981604DB0C7
:1033A000BDE8F08FA860129DF0E600BF48FB040066
:1033B0002DE9F04FA9B00E46C98D934681460029EC
:1033C00000F0C48596F8360003280E90C0F0BE8544
:1033D000328EB6F93400012907D1002805DC22B964
:1033E000728E002A00F0B2850022BBF80440131848
:1033F00009B2BBF80070758EBBF802C0BBF806E0DE
:10340000CDF83C9003EB0408022391FBF3F14B1C35
:10341000C94308EB0304ADF8A0403C1A04EB020AD0
:103420000AEB0102ADF89C202A18ACEB000002EB7D
:103430000E044719E2187818ADF8A220D9F8082030
:10344000ADF89E0025A827A936F01AF9002800F04B
:103450007B85DBF80000DBF80410CDF810B04FF0EE
:10346000FF324FF0FF35CDE9230123A84FF0FF31A4
:1034700040F067F8A8EB0A00E71B0130791C00B2A6
:1034800009B28842B8BF0146B6F90090B6F92E00DD
:10349000B9EB610F4C46A8BF4C10BDF88E10BDF8BB
:1034A00090B020440C91BDF8921010904043400021
:1034B0000B91BDF88C10089122F0A2FF0D96F68DAD
:1034C0000A9002202246002331B291FBF0F00991CC
:1034D000411CADF87610391820440231ADF87A104D
:1034E000691E314308446FEA08014FF00008514457
:1034F000ADF878000844ADF8740012AF1DA9384645
:103500000EF07AF804FA86F4204622F079FF054698
:103510006000DDE90B21A4F1010A11900898511A0D
:10352000ABEB00000131B346013009B200B2884272
:10353000B8BF01460998012E08960C9118BF4FEAB2
:10354000600B1FFA89F0DDF828900B904FF6FF70A2
:103550000590A0452DDA2846214635F02DFE129E15
:103560000FFA88F223B2284600210097B047B8B17D
:1035700029780FFA8BF0890191FBF0F10020A9F86E
:103580000010824510D02A182B5C52789A421CBF3A
:10359000910191FBFBF109EB400201305180F0E712
:1035A0001199484636F083FD09EB440908F10108FA
:1035B000CFE7284638F06EFA12A83BF0E6F80B98F1
:1035C00001B20C9800B2B1EB600FA8BF41101FFA16
:1035D0008BF001280C910FD1DDF83CA0DDF8348090
:1035E0000A9B04FB04F00021884240D033F81120EC
:1035F00092095A540131F7E70A9F25B20FFA8BF16D
:1036000028463A461FF04EFA089800F00100584448
:1036100001B2012919DD88B24FF47F52DDF83CA0D8
:10362000DDF834806443B2FBF0F00022944212D003
:1036300037F812303BB1FF2B064602D09B0193FBBB
:10364000F1F627F812600132F0E7DDF83CA0DDF872
:103650003480644303E028463A461FF023FA0020F2
:10366000844204D017F8101039540130F8E727A825
:1036700036F0FEFA40B998F80300FF2804D198F814
:103680000200002800F0F2810C981DAC23A9012350
:1036900002B220460DF0B0FF00200021119020461C
:1036A00037F00CFD0590BDF89C00BDF8A010081A7D
:1036B000013000B222F0A4FE834612A81C2136F08D
:1036C000F6FC1BA90D9ABDF8A240109E0225CDF86C
:1036D00054B017911291908DA6F10109ADF85000E8
:1036E000907892F836208DF86020BDF89E208DF8F5
:1036F0006100BDF8A000A41A02EB0903ADF86E202A
:10370000ADF8700001341BB224B294FBF5F42244EE
:1037100012B293420B92A8BF1346C6F10102ADF854
:103720007230BDF89C300992024412B2C01A0130C6
:1037300000B290FBF5F0184400B282420790D8BF67
:103740000246ADF86C20DAF8082019A835F098FF89
:1037500000284DD00C9805B219A823A943F006F80B
:10376000002845D1BDF96470BDF86800BDF99E60C0
:10377000BDF9A080BDF96640C01B013000B20890C1
:10378000119818B119A823A942F0F6FF089801284A
:103790002EDBA01B109C0A9B6FEA0802BDF8666036
:1037A0000DF14808CDF854B0E11900FB0430114484
:1037B0003FF06CFE42F09AFB1ADC41F043FC02D071
:1037C000109F15950FE0109F584629463A4621F064
:1037D000C7FDBDF96410089B42F09FFD012808BF9A
:1037E00002208DF8580042F014FE3D440136E1E716
:1037F000BDF8A210099A0B9BBDF8A000ADF872109D
:1038000011440133ADF87000104409B2089300B2BE
:103810008B42C8BF1946ADF86E1007998842D8BFD1
:103820000846DAF80820ADF86C0019A81BA935F095
:1038300027FF109A00284DD00C9805B219A823A98B
:1038400042F094FF109A002844D1BDF96440BDF8BD
:103850006800BDF96A80BDF97260BDF9A070001BF7
:10386000013000B20690119820B119A823A942F0A6
:1038700083FF109A069801282CDB0A9BA6EB080010
:103880001119FC43BDF86A600DF14808CDF854B039
:10389000214400FB02303FF0F9FDBDF9660034B26F
:1038A000844217DB41F0CEFB02D0174615950BE0A2
:1038B00042F007FCBDF96410069B42F02EFD012882
:1038C00008BF02208DF8580042F0A3FD3D44013EA0
:1038D0003A46E2E7BDF89C10BDF89E001144ADF8F1
:1038E0006E004844ADF86C10BDF8A01000B2891A03
:1038F000ADF870100B998842A8BF0846DAF8082086
:10390000ADF8720019A81BA935F0BAFE109A00286C
:103910005AD00C9805B219A823A942F027FF109A93
:10392000002851D1BDF86400BDF86810BDF96E6083
:10393000BDF96670081A013004B2119820B119A8B7
:1039400023A942F019FF109A012C3DDB0A99B81BFC
:103950000DF1480800FB0215BDF86400ADF86C00DD
:10396000BDF86800ADF8700011980028584618BFDF
:103970000020BDF866601590BDF96A0037B2874235
:1039800022DC1198ADF87260ADF86E60297850B104
:103990000E98FD2804D80D9890F836004843010A87
:1039A0008DF860100AE05846224635F0D9FB41F008
:1039B00014FC012808BF02208DF8580042F029FDB0
:1039C000109A01361544D7E70D99BDF8A20091F879
:1039D0003610ADF872008DF86010BDF89C101144DF
:1039E000ADF86C10BDF8A010891AADF870100999E7
:1039F0000844089900B28142C8BF0846DAF8082096
:103A0000ADF86E0019A81BA935F03AFE109E0028EB
:103A10006DD00C9802B219A823A906922CF0D4FC00
:103A2000109E002863D1BDF86410BDF86800421AEA
:103A300001320FFA82FABAF1010F58DBBDF96A20A0
:103A4000BDF972300A9C9B1A03FB0644119B83B19B
:103A500019A823A9069A2CF0B3F9109EBDF86A5054
:103A6000BDF86800BDF86410002204E00120119048
:103A700019E695B25A460DF14808ADF87000ADF858
:103A80006C101592BDF966002FB287422FDB11989A
:103A9000ADF87250ADF86E5080B119A823A9069AFE
:103AA0002CF08EF90E992078FD2904D80D9991F803
:103AB00036104843000A8DF8600010E0217858461F
:103AC000524635F04DFBBDF9641058463A46534610
:103AD00037F01AFB012808BF02208DF858000F9814
:103AE00041463DF066F9109E013D3444CAE70D9908
:103AF0000B9ABDF8A00091F83610ADF870008DF863
:103B00006010BDF8A210891B09B29142D8BF1146BE
:103B1000089AADF87210BDF89E10314409B28A427D
:103B2000B8BF1146ADF86E1009990844079900B264
:103B30008842D8BF0846DDF83CA0ADF86C00DAF842
:103B4000082019A81BA935F09BFDDDF82880002866
:103B50003FD00C9807B219A823A93A462CF034FCA0
:103B6000B8BBBDF9A030109ABDF9641009FB028002
:103B70000A44DB431A4410440E90BDF86800401A12
:103B8000013005B211980028584605D019A823A97C
:103B90003A462CF015F90E98012D159019DB3EF0E0
:103BA000DEFF42F0A3F914DC41F04CFA0BD10E9980
:103BB00058462A4621F0D4FB41F001FB012808BFFA
:103BC00002208DF85800504639463DF0F2F8013693
:103BD000E7E7DDF840C00220002142469CFBF0F000
:103BE0000BB29C450FDD02EB0C0300244D468442D2
:103BF00006DA165D575D17555655013D0134F6E757
:103C000001311A46ECE7BDF8A2100B9ABDF89C00F2
:103C1000A1EB0C01ADF86C00484409B200B291422E
:103C2000D8BF1146089AADF87210BDF89E106144D5
:103C300009B28A42B8BF1146ADF86E100799013932
:103C400081420E91B8BF0846DAF80820ADF870003E
:103C500019A81BA935F014FDE8B30C9807B219A8F0
:103C600023A93A462CF0B0FBA8BB1098BDF96C1004
:103C7000BDF9642009FB0080511A00EB0108BDF872
:103C80006800801A013005B211980028584605D006
:103C900019A823A93A462CF093F84046012D159017
:103CA00019DB3EF05CFF42F021F914DC41F0CAF967
:103CB0000BD1584641462A4621F052FB41F07FFA8B
:103CC000012808BF02208DF85800504639463DF0C3
:103CD00070F80136E7E7BDF89E100B9ABDF89C001E
:103CE000ADF86E104944ADF86C00484409B200B21A
:103CF0009142B8BF0A460E99ADF872208142B8BF12
:103D00000846DAF80820ADF8700019A81BA935F0AC
:103D1000B7FC002849D00C9805B219A823A942F095
:103D200025FD109A002840D1BDF96460BDF86800F7
:103D3000BDF96C80BDF96E70BDF96640801B013025
:103D400000B20B90119820B119A823A942F014FDDC
:103D5000109A0B98CDF854B0012826DB0A99E01B85
:103D600000FB0210A6EB0801BDF866600DF14808E3
:103D70003FF08CFB42F0BAF817DC41F063F902D057
:103D8000174615950BE042F09CF9BDF964100B9BAA
:103D900042F0C3FA012808BF02208DF8580042F013
:103DA00038FB3D4401363A46E4E7BDF89C000E9AE4
:103DB000BDF8A210ADF86C004844ADF8721000B226
:103DC0008242B8BF1046ADF87000099808440899BF
:103DD00000B28142C8BF0846DAF80820ADF86E008C
:103DE00019A81BA935F04CFC109A00284DD00C984E
:103DF00005B219A823A942F0B9FC109A002844D1B1
:103E0000BDF96440BDF86800BDF96A70BDF96C8009
:103E1000BDF97260001B01300FFA80F9119820B1D2
:103E200019A823A942F0A8FC109AB9F1010FCDF806
:103E300054B02ADB0A99F01BBDF86A6000FB02103F
:103E4000A4EB08010DF148083FF020FBBDF9660026
:103E500034B2844219DB41F0F5F802D017461595CB
:103E60000DE042F02EF9BDF96410584622464B464B
:103E700037F04AF9012808BF02208DF8580042F0B7
:103E8000C8FA3D44013E3A46E0E7BDF89C00CDF853
:103E900054B01044ADF86C00BDF8A000801AADF825
:103EA0007000BDF89E001044ADF86E00BDF8A20091
:103EB000801ADAF80820ADF8720019A81BA935F0AD
:103EC000DFFBDDF8288068B30C9802B219A823A99B
:103ED0002CF07AFA30BBBDF86400BDF868100A1AFD
:103EE000013214B2012C1DDBBDF86660ADF8701014
:103EF000ADF86C0012ADBDF96A0037B2874211DC33
:103F000058462146ADF87260ADF86E6035F054F950
:103F100041F063F98DF85800504629463CF049FFBE
:103F20000136E8E7119830B91DA83AF02EFC059843
:103F300000B23DF06BFF404637F0ACFD584637F01D
:103F4000A9FD0D9EDDF810B0DDF83C9048463146E5
:103F50005A460FF0DDFC484631465A4617F082FDBE
:103F600096F82200032851D3318C00294ED096F8C0
:103F7000232012F03E0F49D012F0010346D1BBF8C6
:103F800000E0BBF80470BBF802C0BBF80680A7EBEA
:103F90000E03A8EB0C04013301341BB224B2A3427C
:103FA000B8BF1C46B6F90030B3EB640FA8BF63106E
:103FB000CC186442D5060D4658BF25467D1BADF88A
:103FC0004C5015070D4658BF25467544ADF848506E
:103FD00095070D4658BF25465207A8EB0505ADF8D5
:103FE0004E5048BF0C46591A04EB0C0209B2B47883
:103FF000ADF84A20F28B21EAE171CDE9020448468E
:10400000CDE9001212AA594609F0CCFD96F82A0013
:10401000032844D3F18C002941D0328DBBF8023003
:10402000BBF806C0BBF80070BBF80480B6F824A04B
:1040300096F802E0541E1B1B04EB0C053F1B444486
:10404000ADF84C400C44ADF84E50ADF84A30ADF8E8
:104050004870ADF878407C1AADF874406C1802EBEB
:1040600008056244ED1BD21AADF87A405C1A2DB2F5
:1040700012B2ADF87640B6F900409542B8BF2A4674
:10408000B4EB620FA8BF5410CDE9020E6018CDE961
:10409000004A1DA912AA03B2484609F083FD29B0BF
:1040A000BDE8F08F2DE9F04108460C4642F073F868
:1040B000002800F00E85DFF8D81A42F048FB50B116
:1040C00042F066FBDFF8601B054640F03DFB002830
:1040D00047D0BDE8F081DFF8BC1A42F038FB002879
:1040E0004ED0DFF8545BDFF8546B0022E86800F133
:1040F00030012046B047E868002242F076F941F0EE
:104100000BFC41F0F1FB41F0F5FB41F011FCE868DC
:10411000202200F596712046B047E868012200F1A0
:1041200054012046B04741F0EBFB42F031FBDFF891
:10413000D01A40F009FB38B942F02AFBDFF8C41A64
:1041400040F002FB0028C4D0E868002200F52E7180
:1041500020462BF083FEE868202200F534712046CB
:104160001AE0284642F017F8DFF8BC1A40F0ECFAE3
:10417000B0B1DFF8C45AE86800F1C00100F0ABBC90
:10418000DFF8141A42F0E3FAF8B1DFF8AC0AC068BD
:1041900000F5FC7120460022BDE8F0412BF05EBE28
:1041A00020463AF028FB00284AD142F0F1FADFF825
:1041B0007C1A40F0C9FA002842D0DFF87C5A40F05F
:1041C00064FFE86800F1A801E4E7DFF8D01942F0E5
:1041D000BEFA00285DD042F0DBFADFF8381A40F072
:1041E000B3FAE64D002875D0DFF84C6ADFF84C7A58
:1041F0000022F06800F53D712046B847F0680022C3
:1042000000F1CC012046B84740F0F2FE40F0DEFF5E
:10421000F06805F17C0242F098F8D949F06801F5A0
:10422000803200F13C012046B847F0682A4600F190
:1042300048012046B847F0682A1D00F160015BE1A3
:1042400020463AF0D8FA012813D142F0A1FADFF85B
:10425000DC1940F079FA60B1DFF8DC59DFF8DC698D
:1042600020460022E968B047E86800F1C00100F08C
:1042700033BC42F08DFADFF85C1940F065FA002893
:104280007FF427AFDFF8B059E86800F1240100F0AF
:1042900022BCDFF80C1942F05AFA002863D0DFF88C
:1042A0009859DFF898690022E86842F0A6F841F0D2
:1042B0002DFB41F03DFB41F047FBE8684FF4003235
:1042C00042F093F8E86800F5847120464FF400321C
:1042D00000F00CBC42F05CFADFF84C1940F034FA04
:1042E000002877D0DFF85079A846DFF8505900222F
:1042F000F86800F178012046A847F868042200F128
:10430000F0012046A847F868042200F552712046C3
:10431000A847F86808F11C0200F184012046A8476C
:104320009749F86801F5803600F148012046324689
:10433000A847F868324600F555712046A847F86846
:10434000424600F1F0012046A847F86808F104024F
:1043500000F1FC012046A847F86842462B4600F5CC
:1043600052712046C3E3DFF83C1842F0F0F9002810
:1043700055D0DFF8C468DFF8C4780022F06800F197
:1043800048012046B847F068002242F006F841F0A4
:104390009FFA41F0E5FAF0684FF4003242F021F85C
:1043A000F0684FF4003241F0F8FF40F083FEF0680F
:1043B000744D00F5967120462A46B847F0684FF4D0
:1043C000403200F59C712046B847F0682A4600F557
:1043D000A27191E042F0DCF9DFF8F81740F0B4F98F
:1043E000DFF854680028F16861D0DFF8507801F5F3
:1043F000107120460022B84741F06AFA41F0B0FA45
:10440000F0684FF4A02200F513712046B84740F041
:10441000DDFEF06805F17C0200F1900160E0DFF85C
:10442000881742F094F9002869D0DFF80C68DFF8AB
:104430000C7841F077FAF068002200F19C012046E8
:10444000B847F068002200F58A712046B84741F06D
:104450003FFA41F085FA40F026FEF0684A4A00F142
:1044600018012046B847F0684FF4A02241F091FFB0
:10447000F0684FF4A02200F501712046B847F068BB
:104480004FF4A02200F1C0012046B847F0683B4D30
:1044900000F1840105F11C022046B847F0682A4665
:1044A00041F09FFFF0682A1D00F1540124E0DFF87D
:1044B0008C77243120460022B84741F009FA41F0B8
:1044C0004FFA40F095FDF06805F17C0241F03DFFA8
:1044D00040F07CFE2A49F06801F5803200F13C0191
:1044E0002046B847F0682A4600F1F0012046B84758
:1044F000F0682A1D00F1FC0120463B46F7E2DFF898
:10450000AC1642F024F9002842D0DFF82C67DFF81F
:104510002C770022F06800F1CC012046B84741F02A
:10452000D7F9F068194D00F1900105F17F0220469E
:10453000B847F0684FF4003200F5EA712046B847FA
:10454000F0682A4641F04DFFF0682A4600F5F07108
:104550002046B847F0681F352A4600F184012046FE
:10456000B847F0682A4600F596712046B84741F0F2
:10457000E5F9F06800F59C7151E000BF040005000A
:1045800001000400200003004000010001000200BF
:10459000DFF81C1642F0DBF8002844D0DFF89866FC
:1045A000DFF898760022F06800F16C012046B847E9
:1045B000F068002241F0F1FEF068002200F5AE71D3
:1045C0002046B847F068802241F0BFFE41F080F9F4
:1045D000F068DD4D41F034FDF0684FF4003241F0F9
:1045E000DCFEF06805F17F0241F0AFFE40F062FDB5
:1045F000F0684FF4403241F0CCFEF0684FF44032A6
:1046000000F5F6712046B847D049F06801F1600224
:1046100041F09BFE41F092F9F06800F5A27120464E
:104620004FF4003269E7DFF88C1542F090F888B358
:10463000DFF80456DFF8046641F032F941F012F970
:10464000E868002200F5DE712046B04740F0C2FC69
:10465000E868BF4A00F118012046B047E8684FF407
:10466000A02200F5CC712046B047E8684FF4003234
:1046700000F5D2712046B047E8684FF4C02200F53B
:10468000D8712046B047E86800F5CC7120464FF459
:10469000E0222BE2DFF8201542F059F808B3DFF8EA
:1046A0009855DFF8986541F0FBF8E868002200F5BE
:1046B000A8712046B047E868002200F1D8012046E2
:1046C000B047E868002200F1E4012046B04741F01D
:1046D0002FF941F039F9E8684FF4802200F13C01EC
:1046E00003E2DFF8D81442F032F8A8B1DFF84855F9
:1046F000DFF8486541F0D4F841F0B4F841F00CF926
:1047000041F0F8F841F0F0F841F012F941F01CF9ED
:10471000E86800F5A271D8E5DFF8A41442F017F8B4
:1047200070B3DFF81465DFF8147541F0FBF8F0683A
:10473000002200F590712046B847F068002200F191
:10474000D8012046B847F068002200F5E471204601
:10475000B84740F0A8FCF0687D4A00F118012046F7
:10476000B847F0684FF4802241F013FEF068794DAD
:1047700041F066FCF06805F11F0200F18401BBE620
:10478000DFF8401441F0E3FFD0B1DFF8AC54DFF8BC
:10479000AC640022E86841F004FEE8684FF400329F
:1047A00041F0FFFDE8684FF4003200F5C671204685
:1047B000B047E86800F5B47120464FF4403295E107
:1047C000DFF8041441F0C3FF80B1DFF86C54DFF868
:1047D0006C640022E86841F0E4FDE8684FF40032C0
:1047E00041F0DFFDE86800F5C6716EE5DFF8DC1327
:1047F00041F0ADFF58B1DFF84054DFF8406441F0BC
:104800004FF841F083F8E86800F507715DE5DFF8DF
:10481000C01341F09CFF08B3DFF81C54DFF81C64A0
:1048200041F03EF841F01EF841F06AF841F080F89E
:1048300041F08AF840F0CEFBE868454A00F11801E3
:104840002046B047E868444A00F50A712046B04760
:10485000E8684FF4002200F50D7146E1DFF87413AB
:1048600041F075FF60B1DFF8D053E86800F1240132
:10487000204600222BF0F2FAE86800F19C0189E45E
:10488000DFF8541341F063FF20B9DFF8501341F013
:104890005EFF28B1DFF8A003C06800F5167179E467
:1048A000DFF83C1341F053FFA8B3DFF88C63DFF867
:1048B0008C7320460022F168B8473078F2680128EE
:1048C00002F1A801204608BF02F1B4010022B84756
:1048D00040F0FEFF41F044F840F08AFBF0681F4DC5
:1048E00000F1900105F17C022046B847F0684FF4D2
:1048F000A02241F04EFDF0684FF4A02200F5437174
:104900002046B84740F062FC1249F06801F5803259
:1049100000F16C0187E4B34941F019FF38B1C64D8D
:10492000C64E40F0BDFFE86800F54671D4E0AE49E0
:1049300041F00DFFA0B1C04D40F0A7FBE86800F5C5
:104940004C71FFF727BC00BF0100020020000300EC
:1049500040000100010004000200070004000500FF
:10496000A24941F0F4FE10B3B34DB44E0022E86802
:1049700000F178012046B047E868002200F549714F
:104980002046B047E868042241F02FFDE868042281
:1049900000F54C712046B047E868202200F54C71C4
:1049A0002046B047E868202200F184019DE090494C
:1049B00041F0CDFE38B1A04D40F06EFBE86800F547
:1049C0001C71FFF7E7BB8B4941F0C1FE20B19A4D46
:1049D000E86800F522717EE0874941F0B8FE20B119
:1049E000954DE86800F5257175E0844941F0AFFE0A
:1049F000C0B1914D914E0022E86800F51F7120462C
:104A0000B047E868202200F534712046B047E868D6
:104A1000212241F0F2FCE868012241F0EEFCE86856
:104A200004225BE6764941F092FE18B9754941F0DF
:104A30008EFE28B18048C06800F52B71FFF7AABB35
:104A4000714941F084FE20B17B4DE86800F5287182
:104A500041E06E4941F07BFE28B17748C06800F51F
:104A60003171FFF797BB6A4941F071FE28B1724876
:104A7000C06800F53771FFF78DBB664941F067FEEE
:104A800038B16D4D40F008FBE86800F53A71FFF76A
:104A900081BB614941F05BFE28B16748C06800F501
:104AA0004071FFF777BB5D4941F051FE68B1624D3F
:104AB000624E40F0F5FE40F0D5FE40F039FF40F088
:104AC00043FFE86800F13C01E0E5554941F03FFE55
:104AD00080B1594DE968594E20460022B04740F058
:104AE00079FAE868564A00F1180120463346BDE8D5
:104AF000F04118474B4941F02AFE70B14E4D4FF43A
:104B00008032E86800F10C0120462BF0A7F9E86834
:104B10004B4A00F11801FFF722BB434941F017FE51
:104B200010B1454DE968A3E6404941F010FE28B1B7
:104B30004148C06800F59071FFF72CBB3C4941F03B
:104B400006FEC0B13C4D3D4E0022E86800F51971EB
:104B50002046B047E868002200F1C0012046B04777
:104B6000E8684FF4403200F178012046B047E86829
:104B700000F1C00120E62F4941F0E9FD00283FF493
:104B8000A8AA2D48C06800F55871FFF703BB00BF05
:104B900020FE0400BCFA040060FC0400D8FA040003
:104BA000A0FA040074FE0400E4FE040064FB0400A8
:104BB000C8FE040048FB04003CFE04009CFB04000B
:104BC000B8FB040084FA0400ACFE0400CCFD040031
:104BD0001CFF0400F4FA040010FB04002CFB04008A
:104BE0000CFC040098FC0400B4FC04007CFC0400F1
:104BF000D0FC040094FD040008FD0400ECFC04005B
:104C0000B0FD040024FD040040FD04005CFD040030
:104C100078FD040004FE0400E8FD040090FE04009A
:104C200038FF040054FF040000FF040070FF04007C
:104C300080FB040044FC04009C8901205DFE02000E
:104C4000400001001CF096BC2DE9F04FADF5077D4A
:104C5000D0F8009006469B4615468691484640F09F
:104C60000FFD4FF0000A09EB00084FF0FF3400275A
:104C7000CDF814A2C14580F0E280839409F10104CB
:104C80008DF810A2CDE981AA14F8010C002800F0DB
:104C9000D680252805D029463460D847013401370D
:104CA000F2E73460859781AC3146204600F0CCF8BD
:104CB0002046314686AA00F0E3F8306802787A2A66
:104CC00010D0682A12D06A2A1FD06C2A4FF0FF3405
:104CD00023D0742A30D04C2A40F08A80819941F048
:104CE00080012CE0819941F4805111E00146819AC4
:104CF0004FF0FF3411F8013F682B19BF42F020003C
:104D0000819042F40071819113E0819941F4006136
:104D10008191411C4FF0FF3413E00146819A11F854
:104D2000013F6C2B19BF42F04000819042F480712A
:104D3000819108BF811C04E0819941F40051819167
:104D4000411C0A7801F10109732A8DF81022C6F876
:104D5000009022D0C2466E2A2CD1819843F6607111
:104D6000084020284CD040284ED0B0F5005FD046F7
:104D70004FD0B0F5007F50D0B0F5006F51D0B0F5F6
:104D8000805F4FF0000A35D0B0F5807F32D1869831
:104D9000FA1702C8C1E9007230E09DF8040240062B
:104DA0001DD4CDF800B081A886AA294685AB00F0B5
:104DB0002DF93EE00DF1060881A986AA404600F0D3
:104DC0007BF9909B0246404629469847411CD046B5
:104DD0004FF0000A18BF3844859007462AE0CDF806
:104DE00000B081A886AA294685AB00F0A8F820E08B
:104DF0000146A7E7869850F8041B0F60869018E0DC
:104E0000869802C80F8002E0869802C80F60D046DC
:104E10000CE0869802C80F6008E0869802C80F7000
:104E200004E08698FA1702C8C1E9007286904FF034
:104E3000000A859F781C7FF41DAF4FF0FF3738467E
:104E40000DF5077DBDE8F08F0A681378202B0AD096
:104E5000232B0AD0302B0AD02D2B0AD02B2B18BF96
:104E60007047022306E0042304E0082302E0102335
:104E700000E0012301320A6002681A430260E3E79E
:104E8000FEB50446086816460D4603782A2B11D154
:104E90003068011D31600068B0F1FF3F606005DCE3
:104EA00040426060206840F0010020602868471C94
:104EB0002F6018E000210DF10202303B092B07D8CA
:104EC00043185F1C2F60475C5B7857540131F4E74F
:104ED0000023471853549DF8020020B10DF1020041
:104EE00037F0E8FD606038782E2827D1781C2860DC
:104EF0007A782A2A08D13068011D31600068A060E4
:104F0000286801302860FEBD00200DF10201303A12
:104F1000092A07D83A18931C2B60537892780B54BF
:104F20000130F4E700220A549DF8020028B10DF187
:104F3000020037F0BFFDA060FEBDA260FEBD2DE9FE
:104F4000FE4F054610680C46011D116007680C9A5B
:104F5000E7B3AE6898469146002E04D438463FF039
:104F6000B9FF864203D338463FF0B4FF0646D5F872
:104F700004B00195B246B345C8BFDA46D8F8000080
:104F8000CDF808805044C8F80000B3450FDD019803
:104F90000078C0070BD1AAEB06054FF00008A84522
:104FA00005DA20202146C84708F10108F7E7DDF8B7
:104FB00008800025B5420FDA57F82500B0F5807F4C
:104FC0001AD2C0B22146C8470135F3E70020214676
:104FD00003B0BDE8F04F1047B34515DD01980078E8
:104FE000C00711D0AAEB06050026AE420CDA20203D
:104FF0002146C8470136F8E74FF0FF30C8F80000F7
:1050000041F034FA58210160BDE8FE8F2DE9F84FD8
:10501000054610680C46011D116006680A9ACEB359
:10502000AF689A469046002F04D4304640F028FBE3
:10503000874203D3304640F023FB0746D5F804B03F
:105040000095B946BB45C8BFD946DAF800004844C8
:10505000CAF80000BB450DDD00980078C00709D1F3
:10506000A9EB070A0025554504DA20202146C04750
:105070000135F8E70025BD4204DA705D2146C047DE
:105080000135F8E7BB4503DD00980078C00706D17D
:10509000BDE8F88F00202146BDE8F84F1047A9EB86
:1050A00007050026AE42F3DA20202146C04701362C
:1050B000F8E700BF00BF00BF2DE9F04F85B01646EE
:1050C00000278B46D1F8048040F2FD1120220446CF
:1050D000039741F03DF804F5FE7084F8FD710490EB
:1050E0009BF80C00A0F16101172929D80122C04BBF
:1050F0008A401A4209D003A904AA5846334600F050
:105100007BF900274FF0000938E112F0710F25D12B
:10511000022915D130680027011D3160006884F82C
:10512000FC01C0B2DBF80010B0FA80F04FEA501971
:1051300021F00201CBF8001004F2FB1104911DE1F3
:10514000A0F14501032909D3252800F082804128D8
:1051500004D05828CFD04FF0000985E03068A54D25
:10516000073020F0070000F10801316090ED000BDE
:105170009BF80C2051EC100BA2F17B03CE432E4286
:105180001AD10E466FF31F56064315D061204FF01B
:10519000000913F11A0F38BF412084F8FB014FF0CA
:1051A0006E0038BF4E20022784F8FC0184F8FA0113
:1051B00004F2F9100490E1E021F000467540054347
:1051C00022D16E229FED880B13F11A0F38BF4E22A9
:1051D00084F8FB214FF0660238BF462284F8FC2198
:1051E000692213F11A0F38BF492284F8FA2104F515
:1051F000FC72049253EC102B32F036FB68B32D2076
:105200004FF0000904272CE08DED000BB1F1FF3FBA
:105210004FF000099DF8073083F080038DF80730C8
:10522000009BC8BF03460198C8BF0846CF0F40EC9B
:10523000103BA2F14100062840F29A80A2F16100E1
:10524000062800F29B80DFE800F09C999999ADB2A6
:10525000B70025202080012087E02B204FF0000997
:10526000032784F8F90189E0A0F16F014FF0000AEB
:1052700009294DD8012202FA01F140F243221142DC
:1052800046D09BF8000004EB08072646C0070498A8
:1052900009D104F2FD11DBF804202646091A9142D7
:1052A000DCBF791A4E1C411C304600224FF4FF73BC
:1052B00000253DF053FDB9F1000F04901CBF00F82C
:1052C000015B0490B84207D8391A01382022013115
:1052D00040F03EFF002038709BF80000C00605D467
:1052E000311B2046202240F033FF3AE0A64238D05E
:1052F000311B20463022302740F02AFF039850EA25
:105300000A0012D19BF8000040070ED4204612E09C
:105310005828B6D0002F39D0012F5CD1012003903E
:10532000DBF8000000F0020A36E03178204600F891
:10533000011B06F8017B9BF80C1041290DD0582960
:1053400005D0612909D0782901D0702909D19BF8AD
:105350000020120701D4612903D1717841703020F7
:105360007070204640F08CF9484405B0BDE8F08FDD
:10537000DFE800F007040404181D22009BF80C006D
:1053800072E704A9584612F0C3F9BBE6DBF8000047
:10539000039900F0020AA1B104982D2100F8011927
:1053A00004906EE704A958461BF052FAAAE604A935
:1053B000584634F061FBA5E604A9584615F0B8FA42
:1053C000A0E6BAF1000F09D1400704D504982021C6
:1053D00000F8011904904FF0000A52E704982B21BD
:1053E0004FF0010ADAE700BF0000000000000000F3
:1053F00008C190000000F07FF8B5054680681446AB
:105400000F46B0F1FF3F04DD286820F0100028604F
:1054100001E00120A860287B1026582807D07828B2
:1054200005D0702803D06F2814BF0A260826284606
:10543000194600F053F8AA684AB950EA010206D1A9
:105440002878000749D52B7B0020002112E02B7B18
:10545000642B04D16423B1F1FF3F0BDC04E0692B22
:1054600008D1002906D5692301223A600022404272
:1054700062EB01013246009400F0AAF83021AA68DC
:10548000904205DA22680130531E23601170F6E75E
:10549000287B582818BF782810D1297809070FD5FC
:1054A00021684A1E7028226008BF78200870206892
:1054B000411E216030210170287B01E07028ECD072
:1054C0006F280AD12878000707D52068417830294D
:1054D00003D0411E216030210170F8BD027B702A8B
:1054E0003FD0006843F660731840B0F5005F18BF06
:1054F000402812D1A2F16400142830D8012303FA05
:1055000000F0324B18422CD110F0210F27D0086840
:10551000021D0A600068C1177047B0F5807F26D071
:10552000B0F5007F3CD0B0F5006F20D0B0F5805FC3
:10553000E0D02028DED1A2F16400142808D801238D
:1055400003FA00F0214B184204D110F0210FDED1F4
:10555000582A39D10868021D0A60008805E0582AD7
:1055600032D10868021D0A60006800217047A2F16C
:105570006400142808D8012303FA00F0134B1842E2
:1055800004D110F0210F01D1582A1DD1086807302D
:1055900020F0070000F108020A60D0E9000170471E
:1055A000A2F16400142808D8012303FA00F0074B85
:1055B000184204D110F0210FA9D1582A04D108684B
:1055C000021D0A600078D0E70020CEE70008120034
:1055D000F8B505461148124E582B069F144608BFD1
:1055E000064655EA010011D13868421E3A60302261
:1055F00002700BE02846224600F014F83A68531E69
:105600003B6000FB14530546F35C137055EA010040
:10561000F0D1386840F034F80138F8BD0C0C0500C2
:10562000720C0500102A06D0082A09D1C00840EAE9
:105630004170C9087047000940EA017009097047C4
:1056400019B9B0FBF2F00021704780B500233EF09D
:105650003BFE80BD2DE9F04FD5B08146087B032885
:10566000C0F0EA84B1F902408846A7B2002F00F0EA
:10567000E384DDE95EBAD34500F0DE8447A81E4628
:10568000154636F0BFF998F80D00B44200F003005B
:105690008DF81E01C8BF3746D8F8080030B14B90CE
:1056A00098F80C008DF83601002005E0B8F80000ED
:1056B000ADF8200198F80C0029888DF81F01701EA4
:1056C0001195CDF84090CDE90D7642188B1B698875
:1056D000B8F80250ADF81821ADF814312B44521B24
:1056E0008C1B0844ADF81021D21AADF81A01401BEA
:1056F0002919ADF81641ADF80C310132ADF812019F
:10570000ADF80E1112B2012A13DB401A013000B2BB
:1057100001280EDB3DAC012043A947F6FF720123AF
:105720000F9020460BF068FF204641F019F806461E
:1057300003E000204FF6FF760F90119D37AC45A98E
:1057400047F6FF72002347F6FF7920460BF054FF1F
:10575000204641F005F804460BF5B470504503D0DF
:105760000AF5B47058451DD1ADF81C9147A945AA5A
:1057700010983BF0BFFD20463CF048FBB0B24FF61E
:10578000FF71884202D030B23CF040FB37A838F0BD
:10579000FCFF0F98002800F04F843DA838F0F5FF7B
:1057A00000F04ABCBAF5B47F40F26711CDE9094672
:1057B0004FF4B47340F2671028BF51468AB2B2FB6F
:1057C000F3F404FB1322511AB5F9022001EB0A0687
:1057D000BBF5B47FB5F9001034B20C94009428BF27
:1057E000584684B2B4FBF3F505FB13431CAC181AFE
:1057F00000EB0B0520462BB20B932BF099FA089681
:10580000B6B2AFB205952046BD1B38BF05F5B475DD
:1058100040F0A6FFDDF840A081460E98DAF808B007
:105820000B2818D33C2D16DD5A200497CDF8049090
:10583000CDE906B6B6FBF0F1B7FBF0F010F00307C8
:10584000029103970DD0DDF84490089D592E40D861
:105850003FF0D5FB84E047A945AA40F0B1FF119D78
:1058600063E3DDF84490592E4FD8049886424CD912
:105870001198DFF8E4A745880B98D0470D990E9E44
:1058800009B232B2A2EB010909FB00F005EBD030FE
:10589000ADF85A003FF0E0FF10FB06F03FF022F9B0
:1058A00010FB06F005EBD030089DADF85E003FF030
:1058B000CDFF09FB00F0079EDDF844905A4640F00A
:1058C00056FB16A840F0A0FFDDF840A0002868D1E4
:1058D000D0E00298874240F0B4800498864280F07D
:1058E000B080B9F80000B9F802100E9AADF858006F
:1058F000ADF85A10114410445A46ADF85E10ADF898
:105900005C0016A840F080FF4AE0B9F800000E9E47
:10591000B9F802405D46ADF85800A01937B23FF023
:1059200075FB0B9835F0AEFC0BFB00F03FF024FC50
:1059300040F04FFB10FB06F02A4640F0CCFB16ACC3
:1059400040F0F3FCDDF840A028B1CAF8084047A9B0
:1059500045AA40F035FF0798089D59287BD80E9935
:10596000B9F80000B9F802400844ADF85A40ADF863
:105970005C000C9835F086FC784304EBD030B9F825
:105980000040ADF85E0005F15A0040F028FF0BFB27
:1059900000F040F0ECFA16A83FF06AFF079E039F64
:1059A00030B116A8CAF8080047A945AA40F008FF78
:1059B000A5F15A000024CAF808B080B25A2838BFAE
:1059C0000124012F38D1592800F29380049886428F
:1059D00040F28F8011982F46DFF87CA645880B98FF
:1059E000D0470E9E10FB06F005EBD030ADF85E0000
:1059F0003FF032FF0D9932B209B2541A60433FF0C2
:105A000071F86043DDF8449005EBD0303D46ADF8C9
:105A10005A0007F15A00B9F8004000B2D04710FB15
:105A200006F0DDF840A05A4640F0A1FA16A840F072
:105A3000EBFE002849D0B1E059281DD83FF0DFFA2D
:105A40008EE0022F10D0032F46D102980138012892
:105A50007FF647AF0EE00698CAF80800A5F15A0095
:105A600080B25A2808D27BE0A5F15A0080B25A28A9
:105A7000FFF437AFCAF808B0DDE90210884214D14C
:105A800007980499884210D2B9F802000E9BB9F821
:105A90000010ADF85A001844CA1AADF85E00481E4E
:105AA000ADF85820ADF85C0073E00398032807D0E8
:105AB00000287AD1029820F001000228E4D0F0E01A
:105AC000A5F1B40080B25928DED9DDF818B0079EE0
:105AD000039FCAF808B0EFE04FF6FF70A5F1B401DC
