:1000000000B0032075AC0100E5A50100E5A50100E5
:10001000E5A50100E5A50100E5A50100E5A50100B4
:10002000E5A50100E5A50100E5A50100E5A50100A4
:0C003000E5A50100E5A5010017DC0000BB
:10003C002DE9F04F8DB0DFF8E4B69BF883801AF011
:10004C0023FADFF8DC1608608121DFF8D806B8F156
:10005C00020F017003D1DFF8D006FF210170DFF829
:10006C00CC16DFF8CC560020DFF8CC66B8F1010FC7
:10007C0008702880DFF8BC0600783070DFF8BC060A
:10008C000068077A2DD190F90910002900F1198226
:10009C0061F30A2709096FF0030261F34102DFF8EB
:1000AC00A0161744CA89B9B2914200F20A820A30EA
:1000BC000CF02DFBDFF88C16288805221DF031FC86
:1000CC0006F110001DF0F2F928886FF0020106F11C
:1000DC00140206F1130311FA87F906F11201053027
:1000EC001EE0DFF85C164FF6FE703844C98980B20A
:1000FC00884200F2E681DFF84C060422016806F122
:10010C00100008311DF0D2F928884FF6FB7106F16A
:10011C00130206F1120307EB010906F11101043079
:10012C0028801F78DFF824361278DFF81C4609780F
:10013C001B78227041EA0722C7F3011AB2801BB95F
:10014C00BAF1020F00F0BD81BAF1030F00F0B981D2
:10015C0001F0070713B1002F00F0B381DFF8F0E5D1
:10016C00042F9EF8001008BF002900F0AA813BB1B3
:10017C00DFF8E0351B78862B02D1022F40F0A181ED
:10018C00930410D402F00702022A08BF00291BD0E6
:10019C00DFF8C0050078862805D1002074461AF0D7
:1001AC00ABF92178A646307800284DD000294BD1E8
:1001BC00012800F08681032840D0022844D1B08861
:1001CC00400740F07E813FE09BF88310022900F04D
:1001DC009080DFF870150122A046096811FA80F0B2
:1001EC0000F108010DF113001DF060F928880130B1
:1001FC0028801DF0B3FA0546DFF8580500788628EC
:10020C0074D1DFF86C45206808B91DF075F89DF9BC
:10021C001300002100271BF02BFB216848779DF869
:10022C0013008F77C87728461DF063FCB18898F8C7
:10023C00000001F0100117F071FF5AE0B08800F0D7
:10024C000700032840F03D81B188080708D511F458
:10025C00405F00F036819BF83820002A00F0318195
:10026C008A0402D48A0500F12C8106F11207B8F138
:10027C00010F3A4608BF06F113021278C2F381044B
:10028C00012C00F01E814FEA921CBCF1010F00F012
:10029C001881BAF1010F0FD841F0020303F00703E4
:1002AC00032B09D114B93F2A40F20B81DFF8A83493
:1002BC001B78234300F00581BAF1020F03971BD181
:1002CC00DFF89C341F5D13F80C3003EB070A002396
:1002DC00402AB4FA84F238BF012352091A404B0663
:1002EC0018D4002A08BF0AF1020A17E028461DF0AC
:1002FC0000FC1CF003FCE6E0DFF86034402A1F5DD4
:10030C0013F80C3003EB070A08D34A0648BFAAF1CE
:10031C00020A03E0002A18BF4FF0020AC1F30021C1
:10032C005FFA8AF71FFA89F37A1A71709A4200F30E
:10033C00C8803A464944CDF808C07746891A914698
:10034C0099220028F18058BF7422501880B21CF0FA
:10035C0065FB0028F06000F0B4807421CDF804A097
:10036C00A2461DF091FB0020DFF8C013B070387866
:10037C0018B9307900F02000087070780978574669
:10038C000029039920D0F8B9B08800F007000328A1
:10039C0004D0012818D19BF88200A8B1B8F1010F44
:1003AC0008D0DFF8C003007820B11CF095FE03994B
:1003BC00FE2807D01AF04CF8039918B91CF0F4F881
:1003CC00039908B10120B070F46804F17400606006
:1003DC00A065F288A4F85C202281B288130713D59B
:1003EC007278B8F1010FC2F10302A4F85C2018BFB7
:1003FC0006F1110192B21DF059F8F468B4F85C00E2
:10040C00A26D1044B288A065A281FF20CE4B84F867
:10041C003A70DDF808A096F802C0727C96F812E0EB
:10042C00F77CA07370781B7884F830A0002818BF74
:10043C00002384F849302B88181AB8F1010F288052
:10044C0008BF724618BF7746019902F07802C7F3CD
:10045C0001131A4409066CF38202227400F05B81CA
:10046C00B8494A46A6F808900DF113099BF8837019
:10047C00096811FA80F000F1080148461DF016F8E1
:10048C00308929884FF0120A012F029708442880DE
:10049C0008BF4FF0130AF16816F80A000A7CC0F383
:1004AC008108C0F3011302F04004B8F1000F03936C
:1004BC004FD0022B15D1A4B1B1F844200DF1130982
:1004CC0017E01CF0B3FE1DF049F99E4900240A68A0
:1004DC0013681C7112680A601DF00BFB0DB0BDE8AF
:1004EC00F08FBDF8132009F10209A1F84420A1F8FE
:1004FC0042209D4F92B2FB899A4204D04FF6FF7373
:10050C009A4240F0B980B8F1030F12D101F13200D8
:10051C0049461DF04BFBF068F91C32301BF070FEA5
:10052C00039B002800F0A88016F80A0009F10809BE
:10053C000FE039F8022B4A86B9898A4208D06FF04D
:10054C000301039B033189B28A4240F0958000E09D
:10055C00039B40281DD3022B04D158EA04010BD174
:10056C00F16803E0F1680A7C520605D4B9F8002062
:10057C0009F10209A1F84220C02805D3F0684946C8
:10058C0028301DF013FB03E0B9F80000F168088572
:10059C00039B7149B088097800F00700A1B1012BC9
:1005AC0012D8012804D1B8F1000F06D001200DE0BB
:1005BC00032808BFB8F1000F06D16B49F268C9894E
:1005CC00B2F842208A4257D1032804D0012811D115
:1005DC009BF8820070B1F06817F0BEFE50B9002095
:1005EC00F17CB070B07CC1F3011100F078000844CC
:1005FC00F1680874F0688189090776D53289806DB5
:10060C000DF113011CF052FFF16830898A6D024420
:10061C008A65B1F85C2010440122A1F85C004949BC
:10062C0028881DF07EF90DF112001CF03FFF288880
:10063C009DF8121001302880F068806D01709DF8D3
:10064C001200F16810F00702C0F3C10081F82420F9
:10065C00B1F85C2081F8250002F10102A1F85C20C0
:10066C008A6D02F101028A6506D04049085C021DC0
:10067C00F0883281904204D20EF05BF816F000FB49
:10068C0021E7304928880DF127071DF04AF9384633
:10069C001CF00CFFF068DDF8271032898161298885
:1006AC00052A114429800BD31C30391D053A1CF046
:1006BC00FDFE3289D01910F8011CF06880F8261064
:1006CC00806D0DF127011CF0F1FE3189F088CA43D1
:1006DC001044F268F080936D10810B449365B2F86E
:1006EC005C3019440844A2F85C000298012812D12D
:1006FC001648007810B1039801280CD80B49707873
:10070C00097841B138B91048B1780078002918BF80
:10071C00042113F02FFF02F0B5FCD4E6843800203E
:10072C00304800209C480020A14800209F48002011
:10073C00864800209E480020E05200205C480020A3
:10074C00BC530020A0470020AC480020884C00205F
:10075C00AB480020A448002099480020B4FE0100BA
:10076C00B0FE010098550020EC4600204CFF010023
:10077C00445500202DE9F04F9DB043F6DC18C2F231
:10078C000008D8F80010044619B18847002800F07A
:10079C00008244F2E016C2F2000601207778F07372
:1007AC0043F60C10C2F2000000684FEAC72A96F814
:1007BC00029013AA514604231CF034FF139800F442
:1007CC004030B0F5403F03D17079002800F0E18152
:1007DC00D8F80010F8208DF854000494B1B1884773
:1007EC000B24002818BF0024A0B143F60C10C2F251
:1007FC00000000684AF00601042515AA01230095A3
:10080C001CF056FD002848BF012404E00024012000
:10081C000028EAD10B2444F2CB6BC2F2000B9DF8FA
:10082C004C008BF8004007EB470406EB8401702862
:10083C004FF0F8000791087628D0D8F800107020F7
:10084C008DF85400B9B188470B25002818BF002536
:10085C00A8B143F60C10C2F2000000684FF0040C73
:10086C0015AA51460123CDF800C01CF021FD00282B
:10087C0048BF012504E0002501200028E9D10B2503
:10088C008BF8005015B907997020887543F60C1039
:10089C00C2F2000000684FEAC92113AA04230A918E
:1008AC001CF0C0FE9DF84C00FE282BD0D8F8001090
:1008BC00FE208DF85400B9B188470B25002818BFCD
:1008CC000025A8B143F60C10C2F2000000680A998A
:1008DC004FF0040C15AA0123CDF800C01CF0E8FC65
:1008EC00002848BF012504E0002501200028E9D19B
:1008FC000B258BF800502DB909EB490006EB800055
:10090C00FE218175D8F80010FE208DF8540029B115
:10091C0088470B25002818BF002501E00025012081
:10092C00CDF804A0059788B143F60C10C2F2000074
:10093C000A99006841F00601042715AA01230097C3
:10094C001CF0B6FC002848BF012500E00B258BF8F5
:10095C00005006F1160509EB490005EB84010890DF
:10096C0005EB8002FE20C98802F8020F42F27000EB
:10097C007182C2F200004FF40061CDF8189003921E
:10098C001DF082F800208BF800007078B27800EB34
:10099C00400105EB8101B1F8069002EB420105EB39
:1009AC00810131F8068F0DF1540A0291C1020992AE
:1009BC0012910CE0274416F0010012994FF003003D
:1009CC001CBF002000200028B94640F0DF801FFA31
:1009DC0089F4172CC0F0D9809BF80000002840F057
:1009EC00D88043F60C10C2F20000A9F1070500688C
:1009FC0011FA85F1524607231CF014FE9DF857207E
:100A0C009DF8580002F03F029DF85A10920142EAFC
:100A1C009006B1F1960706F1100218BF0127A24209
:100A2C00A5EB060348D8962946D19DF859200C977A
:100A3C0081010F96371D43F60C14129ECDE9105808
:100A4C0041EA920100F0FC0000259B46C2F2000432
:100A5C000B920D918DF853000E9300BF1FFA87F87F
:100A6C00B8F1200F28BF4FF02008206816FA8BF140
:100A7C00524643461CF0D6FDE8B2514642461BF0A6
:100A8C007BFBA7EB080705463804C344E6D1284690
:100A9C000DF1530101221BF06FFB0D99109FC9B290
:100AAC00884248D10B980C9900F003000843023897
:100ABC0018BF0120002142E043F60C14A9F10107F4
:100ACC0001210020C2F20004002942D0B8B216283D
:100ADC004FF0000688BF01261728FFF46CAF0126E3
:100AEC00B94607E0B8B216284FF0000688BF0126B9
:100AFC00172848D3B8B2A7F11604362843F60C10C1
:100B0C0088BF2024C2F2000012993F1B0068A5B2D6
:100B1C0011FA87F152462B461CF084FD002DE1D0D2
:100B2C001AFA84F010F8010C96283FF443AF013CFC
:100B3C002004F5D1D6E7A9F101070121002044F2E8
:100B4C00CB6BDDF84480DDE90E36C2F2000B0029D8
:100B5C00BCD108B1129913E042F270011FFA88F06F
:100B6C00C2F20001F51D081A401B00F50062206856
:100B7C00129C14FA83F12B461CF054FD2146A84418
:100B8C00BF1B00201FE74F4615E74F469BF80000A0
:100B9C0020B1002000B21DB0BDE8F08FBA46474628
:100BAC0043F6DC18C2F20008D8F8001029B18847C7
:100BBC000B24002818BF002401E00024012044F27B
:100BCC00E015DDE90569C2F20005E0B142F2700101
:100BDC00C7F50060C2F2000111FA80F243F60C1066
:100BEC000999C2F20000A7F110030068C902103184
:100BFC009BB24FF0040CCDF800C01CF059FB002840
:100C0C0048BF012400E00B249BF800006FF0D24198
:100C1C0020438BF8000002981591D8F8001007803B
:100C2C00687B6A8AA5F814A02F828DF85600ADF85F
:100C3C005420B9B188470B24002818BF0024A8B150
:100C4C0043F60C100999C2F200000068C902083181
:100C5C00042715AA042300971CF02AFB002848BF80
:100C6C00012404E0002401200028E9D10B246FF0BA
:100C7C00D2411591D8F80010A87BAA8A8BF80040B5
:100C8C008DF85600ADF85420B9B188470B240028D4
:100C9C0018BF0024A8B143F60C100999C2F2000049
:100CAC000068C9020C31042715AA042300971CF014
:100CBC00FFFA002848BF012404E00024012000288A
:100CCC00E9D10B240499288A002908BF1021C0F50A
:100CDC00006088428BF800401BDAD8F800107820AE
:100CEC008DF8540089B388470B24002818BF0024C2
:100CFC0078B343F60C10C2F2000000680A9904277E
:100D0C0015AA012300971CF0D3FA002848BF012430
:100D1C0020E0D8F800107C208DF85400F9B18847F9
:100D2C000B24002818BF0024E8B143F60C10C2F2C3
:100D3C00000000680A99042715AA012300971CF0EB
:100D4C00B7FA002848BF01240EE000240120002837
:100D5C00CFD10B248BF8004084B978200AE0002412
:100D6C0001200028E1D10B248BF8004034B985F820
:100D7C0003907C20089905EB81018875304606F0BC
:100D8C0051FED8F800108BF80000FC208DF85400B0
:100D9C00B9B188470B24002818BF0024A8B143F62A
:100DAC000C10C2F200000A99006841F006010427F9
:100DBC0015AA012300971CF07BFA002848BF0124D8
:100DCC0004E0002401200028E9D10B240399FC2025
:100DDC0008700898D8F8001005EB8000808BE8802C
:100DEC004FF0FE008BF80040AE7085F8019085F84E
:100DFC0003908DF85400A9B188470B24002818BF24
:100E0C00002498B143F60C10C2F20000006801995E
:100E1C00042715AA012300971CF04AFA002848BFA2
:100E2C00012404E0002401200028EBD10B248BF8D2
:100E3C00004014B90799FE208875E9880020687174
:100E4C00C1F50060A6E67047F0B591B044F2F430FD
:100E5C00C2F200001CF041FC08B111B0F0BD44F628
:100E6C009200C2F20000007816F08CFB0028F4D03F
:100E7C00044645F23850C2F200000768002F00F01B
:100E8C00108320780138122800F20B8304F132060B
:100E9C00A51CDFE810F01300570070008E00A500B1
:100EAC00C400DE000B010D01340136014C016A0156
:100EBC007D0106038B019E01A601B901386800284B
:100ECC0000F0EF8200218DF81810CDE90411CDE966
:100EDC000211CDE9001168682A68CDE9002094F967
:100EEC000A000291ADF80C10C107C1B21CBF01225F
:100EFC008DF808208A0744BF01228DF809204A0783
:100F0C0044BF01228DF80A200A0744BF01228DF844
:100F1C000B20490644BF01218DF80C10B0F1FF3FA6
:100F2C00DCBF01208DF80D00D4F80B00D4F81210A2
:100F3C00D4F80F20CDF81510CDF81220CDF80E00F6
:100F4C003968ACE27868002800F0AB820020CDE96B
:100F5C000200D4F80B20A368CDE90000607861880A
:100F6C00CDF80B20029362688DF8000001927A682C
:100F7C00ADF8021086E1B868002800F092820020DB
:100F8C000490CDE90200D4F80B20CDE900002868CC
:100F9C006968A37ACDF80920D4F80F200191CDF817
:100FAC000D20D4F812108DF808300491B968009017
:100FBC0075E2F868002800F074820020ADF80C008F
:100FCC000290CDE90000A17A607802298DF800002A
:100FDC008DF80A1040F021812888ADF8020022E13A
:100FEC003869002800F05D82684640211CF04CFDF9
:100FFC00A178E278606800298DF800108DF8012046
:10100C0000F0CB81002800F0F881017A02298DF8DC
:10101C000C1040F0CD810188ADF80410CCE1796959
:10102C00002900F03E820020CDF80F00CDE902002F
:10103C00D4F80A20CDE9000028686B680292D4F835
:10104C000E2001930392D4F811200090CDF80F20BC
:10105C0025E2B86908B300200690CDE90400CDE97B
:10106C000200CDE90000B4F801002279ADF80000CF
:10107C00E07869468DF80200081D8DF80320611D8B
:10108C0011221CF001FEA07D00288DF815001CBF5C
:10109C00A0690690B96968468847A178A0690029BB
:1010AC00002800F0FE811CF0C4FDFAE1F96991E022
:1010BC00396A002900F0F5810020ADF81000CDE967
:1010CC000200CDE90000607862888DF8000020797C
:1010DC00ADF802208DF80400D4F80E006279A379E3
:1010EC00CDF80E00D4F80B008DF80520CDF80B00D0
:1010FC00D4F807008DF80630CDF80700CFE1796AF7
:10110C0047E0B86A002800F0CC816E4630462421B6
:10111C001CF0BAFCA17A607802298DF800008DF8D9
:10112C000A1040F085802888ADF8020085E0396B04
:10113C00A1B100200490CDE90200CDE90000B4F883
:10114C000100ADF80000D4E90202CDE90102208AC9
:10115C006269ADF80C006846049288476068002804
:10116C0000F09F811BF09FFA9BE1786B002800F048
:10117C0098816D46284644211CF086FC94F830007A
:10118C0002288DF8080061D1208DADF8000061E0D7
:10119C00B96B002900F085810020ADF80000607863
:1011AC00A2788DF800008DF8012078E1F86A00280B
:1011BC0000F077810020ADF80C00CDE90100A17A98
:1011CC00009002298DF808104ED12888ADF8000047
:1011DC004EE0396C002900F0648160788DF80000D5
:1011EC005DE1F86B002800F05C816D4628464421D7
:1011FC001CF04AFC94F8300002288DF8080044D109
:10120C00208DADF8000044E07B6C002B00F0498190
:10121C00002000212A46984743E1684669682A68FD
:10122C00023041600260A089ADF80C00F96836E12B
:10123C0069682A68B01C41600260207D02288DF824
:10124C00140030D1A089ADF80C0030E0E06AA16A3E
:10125C00CDE9001094F83A0002288DF8120038D12C
:10126C003088ADF80A003AE068682968CDE90010CA
:10127C00A17BA0890029ADF80A0018BF0121FA6AE8
:10128C008DF80C10684690470BE1E06AA16ACDE935
:10129C00001094F83A0002288DF812004BD13088D7
:1012AC00ADF80A004DE02069E168CDE90310E08A51
:1012BC00217EADF81600206A8DF818100890D4F82D
:1012CC001D00B96ACDF81D00D4F81900CDF819002D
:1012DC00E5E07168326805F10A0041600260E06B7C
:1012EC00D4F842100590B4F84000D4F84620E36CD2
:1012FC00ADF81800B4F85000CDF81A10CDF81E2037
:10130C00ADF822000993A07B616D8DF8280094F84C
:10131C0052000B918DF82900D4E90701D4F8232051
:10132C00CDE90C01CDF837202089ADF8400060687C
:10133C000F90796BB3E07168326805F10A00416077
:10134C000260E06BD4F842100590B4F84000D4F879
:10135C004620E36CADF81800B4F85000CDF81A1024
:10136C00CDF81E20ADF822000993A07B616D8DF89D
:10137C00280094F852000B918DF82900D4E907014C
:10138C00D4F82320CDE90C01CDF837202089ADF815
:10139C00400060680F90F96B81E0002868D0017AFA
:1013AC0002298DF80C103ED10188ADF804103EE0F6
:1013BC0041680268CDE901214189ADF80E1081899F
:1013CC00ADF81010817B8DF81210C17B8DF81310C5
:1013DC00017C8DF81410417C8DF815104169069133
:1013EC00017E8DF81C10D0F81910D0F81D20006A61
:1013FC00CDF81D10CDF821200990207A8DF8280009
:10140C00607A8DF82900A07A8DF82A00E07A8DF8A0
:10141C002B00207B8DF82C00607B8DF82D00E08953
:10142C00ADF82E003AE041680268CDE9012141890E
:10143C00ADF80E108189ADF81010817B8DF812106B
:10144C00C17B8DF81310017C8DF81410417C8DF844
:10145C00151041690691017E8DF81C10D0F81910F9
:10146C00D0F81D20006ACDF81D10CDF82120099070
:10147C00217AE06811F00702C1F302118DF82820DF
:10148C008DF830101CBF0B9000EB4200002918BFE8
:10149C000D90207C8DF8380060690F903969684692
:1014AC00884720461BF0FFF811B0F0BD2DE9F04F36
:1014BC008DB0DFF8FC84824698F88300012840F058
:1014CC00B980DFF8F0040068416E05A88847DFF8A2
:1014DC00E874386808B91BF00FFF1CF03FF9DFF80F
:1014EC00244505462078002800F0F58028461CF09D
:1014FC0000FBDFF8C80401210170DFF8C414386860
:10150C00456895F80090097829B90120002113F05D
:10151C0043FD3868456806891AF0C4FA2888000724
:10152C0008D5207830B12846314612F041FE00280B
:10153C0040F03882284631460BF0E9F80DF11301E2
:10154C00642018F081F8207838B1DFF8C8040078EE
:10155C0017F072FF002800F02282DFF8BCB4B41C34
:10156C000DF11201E920ABF8104018F06DF89DF860
:10157C001200002808BF341D1822A6B2002805F856
:10158C00024DC6F3022108BF08228818DFF84C145C
:10159C006870E0B2097851B13968097D39B1BBF88E
:1015AC0010001AF00BF8002800F023812878C0F303
:1015BC004011304610F0E8F89DF813300021CA4A6B
:1015CC00DFF80044CBF81C50DFF85074ABF8021075
:1015DC00002B08BF02F5B252089121690A903A61BA
:1015EC00CBF8182021B1DFF8D00300680C30884705
:1015FC00A06808B180470B90DFF82464DFF824540E
:10160C00002009F0200470806880687B00F0F000F6
:10161C00033068731CF0A2F8DFF8D833BAF1050F69
:10162C00039000F2E880DFE80AF003F5E6E8F5F451
:10163C003546EFE0DFF87C83D8F80000416E05A852
:10164C008847DFF874B3DBF8000008B91BF054FED0
:10165C00DFF8680301210170DFF86403007818B922
:10166C000120002113F098FCDBF800004468058988
:10167C002078C0F34011284610F086F8DFF8449328
:10168C000A90D9F8101019B1DBF800000C3088471B
:10169C00D9F8080008B180470B90CB48007878B394
:1016AC00D9F8201041B38847C9490028C94B0A46CC
:1016BC0008BF023212781A708DF83020CA1C00282C
:1016CC0018BF4A1C10788DF83100C04819780229CF
:1016DC0008BF023011E0CC48017821B9CB49097818
:1016EC0000293FF403AFCA4902220A70007883280C
:1016FC007BD116F095FC78E0B4480188013101806B
:10170C0016F064FAB548B44E0078F57350B1DBF8B6
:10171C000000007D30B1284614F078FD19F04EFF22
:10172C00002866D00027346177801CF017F8054636
:10173C00BAF1000F7780089705D0BAF1010F2ED1BE
:10174C00A748A849C161A648A349027B437BC47D35
:10175C0041604F60478002F0F002027303F0F00228
:10176C000232427304F0F0020432C2754A7B22F05A
:10177C000F02531C4B73DBF800305C682478A40612
:10178C0007D5994C42F002024C605B689B784A7317
:10179C00A373964E7060707B00F0F00070739448E9
:1017AC00D8F800100822934B0C6D00210068CDE98D
:1017BC00002105AA3146A0478F49B0F1FF3F0880B0
:1017CC0007DD8E48844901608D4801780131017034
:1017DC000BE0D9F8004034B1DBF800000021002206
:1017EC0000230C30A0471CF0ABF828461CF081F904
:1017FC00D8E0E120D4E05D460CE098F853001D469B
:10180C0018F092FAC07B2B46864D022818BF5D4615
:10181C0000E0854B9BF80D004FF00009CBF80490CD
:10182C0020F00F00411C8BF80D100CB9022741E081
:10183C0040F00200A7F80290DFF8F091AA214FF4D3
:10184C007A76CBF804701C468BF80D00387B00F0D0
:10185C00F0000730387399F80000B1FBF0F1B6FBDB
:10186C00F0F2511A48438000B86098F8530016F013
:10187C009BFD6749862223460A70624940F22C720E
:10188C00097800294FF4F47108BF4FF4F67208BFC1
:10189C009821042808BF114699F800004FF0200940
:1018AC00B6FBF0F2114448434FF47A6101EB80002F
:1018BC0038625F4FDFF844815E493F4EDDF80CA083
:1018CC00D8F80000884211D049495B480968028A5F
:1018DC00B1F84840944209D1C089B1F84610814210
:1018EC0004D1287B2C4612E00E7A5555524C5349A4
:1018FC000020012260800A70C4E90150617B207BCA
:10190C0001F0F00120F00F0002312073617300F040
:10191C00F000002120733B48A1600078A0B1306832
:10192C0090B1007D35280FD022481D460068C06B51
:10193C008047217B2B46A060059001F0F00102311D
:10194C00217301218DF818101A492948096800687B
:10195C000D6DCDE9007905AA2146A8472649B0F1BD
:10196C00FF3F088007DD2648C8F800B00178013138
:10197C00017050463AE7134804682CB1002000214E
:10198C0000224FF08073A04750461CF0B2F81D485F
:10199C00007850B1306840B1007D352805D11A204F
:1019AC000BF086FA0DB0BDE8F08F1BF0C9FFF9E71C
:1019BC00843800202C480020445500209A550020E3
:1019CC0085550020B0F70100905200209846002069
:1019DC009847002096480020C84500208A550020D2
:1019EC0034430020006A1800484600207C53002035
:1019FC0060540020554900008C480020945200206F
:101A0C008D520020884C00209C4800209F480020CC
:101A1C00A44800209A48002054430020F0400020A5
:101A2C00D4440020B84400205DAD0000A048002044
:101A3C000200430098450020B04500208B52002046
:101A4C002DE9F04F8DB045F28F50C2F200000078B6
:101A5C0001282CD144F2A87A44F2D87E45F2D4481D
:101A6C00C2F2000AC2F2000EC2F200089AF800702C
:101A7C00DEF800C0D8F800101B2F1AD1AAF101050E
:101A8C004FF654764FF0FF33C0F201062A4600BFE2
:101A9C00F01812F8014F4078844203D1022B03F165
:101AAC000103F5D184425CD10022FA2702E0012522
:101ABC0064E2002245F2E44B002AC2F2000B40F033
:101ACC00518201EB41000CEB8006B146A7F14100BD
:101ADC0019F8154FC0B21A2819F8010C38BF203765
:101AEC00032854D0022840F0808042F63055C2F2D0
:101AFC000005284640F2A5111BF0C6FF05F1200099
:101B0C00029005F1A200039005F5927004904FF03D
:101B1C00FF300190307D022840F07F80B04618F8ED
:101B2C00150F002800F09380F8B244F2D87E1B28E1
:101B3C004FF00005C2F2000E00F0D4800D2838469C
:101B4C0040F0EA80B369002588F800501BB102A967
:101B5C0001AAFF20984744F2AD70C2F20000057054
:101B6C00CEE04FF650764FF0FF33C0F201062A4616
:101B7C00F01812F8014F4078844203D1022B03F184
:101B8C000103F5D1844232D10022FB2792E742F6C1
:101B9C003055C2F20005284640F2A5111BF074FF27
:101BAC0005F12000059005F1A200069005F5927054
:101BBC000790307D032832D1B04618F8150F002855
:101BCC0052D0FDB244F2D87EFB2DC2F2000E79DC6D
:101BDC001B2D02D07F2D40F02C81002588F8005061
:101BEC0045F2D448C2F200085BE100255EE14FF6F5
:101BFC005C764FF0FF33C0F201062A46F01812F85B
:101C0C00014F4078844203D1022B03F10103F5D13B
:101C1C00844206D10022FC274CE70025F6E0002583
:101C2C003BE14FF660764FF0FF33C0F201062A46D7
:101C3C00F01812F8014F4078844203D1022B03F1C3
:101C4C000103F5D1844229D10022FD2732E7F8B2F5
:101C5C0044F2D87E0D28C2F2000E5BD1012088F828
:101C6C0000000025FE2057E0F8B244F2D87E0D2883
:101C7C00C2F2000E40F0CF800125B06988F8005008
:101C8C000368002B00F0EB80C08805A90022984760
:101C9C0044F2D87EC2F2000E0125E0E04FF6147635
:101CAC004FF0FF33C0F20106F01815F8012F407801
:101CBC00824203D1032B03F10103F5D1121A18BF91
:101CCC000122F7E6FC2D00F0A880FD2D40F0B1803C
:101CDC00B06930F8061F30F8022C1144013991FB21
:101CEC00F2F3A3E0B36988F800501BB102A901AA72
:101CFC00F920984744F2AD70C2F200000021017047
:101D0C00002002F095FF44F2D87E01253846C2F23D
:101D1C00000E01E00025384698F8001045F2D44832
:101D2C000029C2F2000800F0C180B3691BB1C0B237
:101D3C0002A901AA9847012002F07AFFBDF90660BA
:101D4C004FF6FF72B0B2904259D0BDF9043099B23F
:101D5C00914254D044F2AD72C2F2000201251570CA
:101D6C0044F20E22C2F20002108043F2A640C2F2EC
:101D7C0000004FF6594205AD0180C0F20102284621
:101D8C002021009619F02BFF002000BF295C0130A8
:101D9C000029FBD1451E44F2D87EB5F5007FC2F276
:101DAC00000E2AD8DBF8000038B344F2D470C2F22B
:101DBC00000000684FF0FF311BF0E5FD45F2E040FC
:101DCC00C2F200000021016045F2DC4042F63036E0
:101DDC00C2F20000C2F20006056005A930462A4690
:101DEC001BF052FFDBF8000031462A4600231BF0A3
:101DFC0051FC44F2D87EC2F2000E012556E044F2AA
:101E0C00AD70C2F2000000210170012544F2D87EB1
:101E1C00C2F2000E4AE0002521E0B06930F8061F3E
:101E2C0030F8022C11440131B1FBF2F303FB121117
:101E3C000180B06903686BB16FF00C0151FA87F146
:101E4C00C088B1FA81F14A0905A9984744F2D87EB5
:101E5C00C2F2000E0D3D18BF012588F8005045F266
:101E6C00D448C2F20008E5B106F11000079A0368E5
:101E7C00802100BF1E78104602F8016B26B1013993
:101E8C0003F10103F6D10021022903D301300139FA
:101E9C001BF0FAFD012002F0CBFE44F2D87EC2F218
:101EAC00000E99F80000844218BF1B27002D59D151
:101EBC00F8B2FB2811DC0D281ED01B2832D07F284D
:101ECC0050D1DEF80000C168D1B345F2D840C2F25F
:101EDC0000000068CEF800103FE0A0F1FC010129E1
:101EEC0040D8DEF80010097A01293BD0FD282AD011
:101EFC00FC2834D1012028E0D8F80000DEF80010CE
:101F0C0000EB400201EB82010A7D012A3AD032BB80
:101F1C008969CEF8001045F2D841C2F20001086080
:101F2C0000201AE014B199F80000C0B144F2DC7042
:101F3C00C2F200000068017ACEF80000481E0CE0E6
:101F4C00007A013809E04FF0FF30D8F8002008443F
:101F5C001044B0FBF1F202FB1100C8F800000020A5
:101F6C0002F066FEDBF80000002551460522002336
:101F7C008AF80450CAF800501AF0EDF828460DB053
:101F8C00BDE8F08F89690029E9D08847E7E77047F9
:101F9C002DE9F84305460C46480413D4A00024D47C
:101FAC00A0075CD460057ED4200500F104812007D5
:101FBC0000F13781600040F1F48014F003FD24F04F
:101FCC008044EEE01BF0CAFBDFF810140F6D3FB13C
:101FDC00D7E90A1202F0E04201F00A01891849D04F
:101FEC001BF087FD24F48044DBE0B948DFF8F07384
:101FFC00016841F080010160B878012804D1042007
:10200C0018F05EFC0020B8701BF0A8FB06460420FC
:10201C001BF013FEDFF8CC130A68904219D12A7E0C
:10202C00BAB1FA68AAB1DFF8B403806C002800F0EA
:10203C009580C16840F603020988914206D0C068B9
:10204C0040F604010088884240F0888005F11400B5
:10205C0086E040F6C4120860C5E9042282E008F06C
:10206C0001FADFF87803006C002840F09B8024F024
:10207C00020496E0D7E90A65D7E90A12AA43B143EC
:10208C00C7E90A121BF035FDB8680028AAD056EA39
:10209C000500A7D0D7F808C03869B7F93010324618
:1020AC002B46E0479EE71BF059FB054619F0CEFE88
:1020BC00002800F0B380C948876B002F00F0AE8079
:1020CC00DFF81C830420C849002288F81800C34894
:1020DC001AF0EEFF1BF028FDC4481BF0FEFC1BF0B1
:1020EC0005F8C8F810000125042088F8025018F0F3
:1020FC0029FF386990F82810C8F80400490703D55F
:10210C00436A042100229847012015F057FCD8F8A7
:10211C000400457610F0FAFAD8F8040081680B46F2
:10212C001A465B684BB11E88A6F60306072EF7D835
:10213C0005FA06F616F0830FF2D0537B03F0F0038A
:10214C00013353730023FD6853602D88A5F60305F6
:10215C00012D00F28880C8F810309DE005F11000C8
:10216C0017F0A6FD30461BF0C4FC18F003FF78B145
:10217C002E6A28466FF4807100224FF00073B0472E
:10218C009648806B10B114F01DFC01E044F0020481
:10219C00EE692846002100224FF08063B04724F0FE
:1021AC00005434B1944821462830BDE8F8431AF065
:1021BC0007BEBDE8F8838A4EB078012804D104200C
:1021CC0018F07EFB0020B07018F0D4FE38B17068A7
:1021DC006FF4807100224FF00073056AA8473069D4
:1021EC0040B11AF083FF32697168801A000BC86025
:1021FC0000203061794D7F49002228461AF058FFA3
:10220C0002203076286C20B17B48022128301AF04D
:10221C00D7FD14F0D7FB24F40064C2E71BF084FC58
:10222C0041E01BF09BFA054619F010FEA0B1DFF857
:10223C00B08198F8000000070ED498F9000000282F
:10224C000AD4684610F0FAFB08B1009820B1DFF808
:10225C00AC9199F8610048B31BF066FC14F0B2FB2A
:10226C0024F008049DE7034633F8385FA5B190F8D5
:10227C00445090F8456005F0F00580F8445006F0A5
:10228C00F005013580F8455000255360C56345873E
:10229C00507B00F0F000507355480022C261016081
:1022AC0001201AF0F1F824F480647AE70026012763
:1022BC00602E0FD009EB0600817A31B18772407A1B
:1022CC0007FA00F0C0B218F015FB2036F0E700BF9B
:1022DC00CC210840032088F8180044481BF0FDFB73
:1022EC001BF022FC424F3D4D0022786900207861A2
:1022FC00F968F860284642491AF0DAFE1AF0F6FE40
:10230C00D8F80C10D8F82020411A02EB1130B0EBA1
:10231C00113F38BF4FF0FF3098F82410C8F8200058
:10232C0021B1D8F80810B0EBC12F20D91AF0BCF8A5
:10233C00B8B140F60900414621F83C0F0020488016
:10234C004A7B02F0F00201324A730A7B02F0F0027F
:10235C000A734860F8613960B8F83E0010F4406FB9
:10236C00FAD00020C8F82000012088F8240016F0CC
:10237C00BBFC244800210160022000211AF084F8E3
:10238C00022018F09DFA10200FF0A4F998F8010023
:10239C0020B9D8F8040050301BF063FC1A48807840
:1023AC0010B90D200FF096F998F8250028B10020EF
:1023BC0088F82500052018F083FA002088F818000A
:1023CC001248C8F81C000220B5F85610B5F8542075
:1023DC00914208BF072013F00BFE3FE7844E00200C
:1023EC00F44C0020A854002035BE01001C3E0020F7
:1023FC000010044051E40000C44D002010390020AE
:10240C00356A0100000004609CFD010055DE0000EF
:10241C002DE9F04F8BB045F28256C2F2000605460C
:10242C00307844F2CB6BC2F2000B03288BF800001F
:10243C0040F01D82002030708BF8000001A81BF0CA
:10244C00BDF848B90120019044F21020C2F20000FE
:10245C0001A915F08DFE20B1012030700BB0BDE844
:10246C00F08F44F2E018C2F2000840462E211BF017
:10247C000BFB4FF0FF30A8F81400C8F81000C8F898
:10248C000C0018F0EBFF0020294616F051FC44F22A
:10249C00287543F60C14C2F20005C2F2000429465A
:1024AC0020601BF032FBD5E9011244F69103B1FB1D
:1024BC00F2F0C2F20003C0B2022828BF0220B2F52B
:1024CC00006F88F800001870C6D1C2028A42C3D8C7
:1024DC0021680029C0D0FF21C0F60001C8F8041003
:1024EC004FF6FF710028A8F8021079D042F270065E
:1024FC000025C2F200066FF0030909E088F80250CB
:10250C0044F69100C2F2000000780135854263D296
:10251C0005EB450008EB800B2068EF02394604AA56
:10252C0004231BF07FF80498DA4600F47C01B1F523
:10253C00402F2AF8160F04D000F07F41B1F1164F4E
:10254C0035D1C0F301418BF819106FF0FD0151FA30
:10255C0080F102294FF0100127D3C0B27E2824D07D
:10256C002068394632464FF400634FF400671BF085
:10257C0059F800BF19FA87F7B8B231584A1C01D183
:10258C000328F7D801220123CCB2FF2CDCB218BFF0
:10259C001A46090A042C03F10103F5D343F60C1473
:1025AC00315057FA82F1C2F20004ABF81C109AF8C1
:1025BC0000007B2806DC70280BD0782808BF88F830
:1025CC0003509DE7FE2899D07C2899D188F80350B8
:1025DC0096E788F8045093E744F2CB6BC2F2000BF9
:1025EC0098F80310FF2901D001251EE098F804107B
:1025FC00FF2903D088F80310022516E098F8021082
:10260C00FF2911D00131B1FBF0F202FB101000EBED
:10261C00400108EB8101898B19B188F80300022570
:10262C0003E0FF2088F80200002598F80300FF283B
:10263C002FD10026002088F8036005F0F3F99BF8F1
:10264C00001008438BF8000043F6DC10C2F20000C7
:10265C0001687E208DF8100029B188470B260028D0
:10266C0018BF002600E0012058B12068042704AAF6
:10267C000021012300971AF01BFE002848BF0126F9
:10268C0000E00B26002E8BF8006004BF7E2088F83B
:10269C00160098F80200FF2842D144F6910198F8F0
:1026AC000300C2F2000109780130B0FBF1F202FB29
:1026BC00110088F8020005F0B5F99BF8001098F8A5
:1026CC00026008438BF8000043F6DC10C2F20000F5
:1026DC000168FE208DF8100029B188470B270028CF
:1026EC0018BF002701E00027012078B120680424DE
:1026FC00F10204AA0123009443F60C14C2F2000464
:10270C001AF0D6FD002848BF012700E00B278BF8F4
:10271C0000702FB906EB460008EB8000FE21817596
:10272C0098F80300022D00EB400108EB8101898B26
:10273C0088F8010044F69400C2F20000A8F80610D4
:10274C00057000F08B80012D40F091804FF0000956
:10275C000DF125050DF1100A002603E00022002AD8
:10276C0000F08080B8F806001828F7D3214698F8B6
:10277C000340C71F0868E10211FA87F12A460723B4
:10278C001AF050FF9DF825009DF826109DF8272083
:10279C00ADF81C709DF82830870800F0030041EA62
:1027AC000021900040EA931203F03F009DF829307D
:1027BC008DF8204080019DF82A4040EA93009B014F
:1027CC00ADF8161043EA940309038DF819309DF8FF
:1027DC002B3041EA076111440491962B4FF0010113
:1027EC008DF81870ADF81420ADF81E0004F0030439
:1027FC008DF81A3008BF042141EA04018DF81B1032
:10280C0023D1B8F8061098F80370081A073881B26B
:10281C00384652460323CDF8009003F0B3F998F8EC
:10282C00033043F60C14FA1A18BF01220028C2F226
:10283C00000494D1BDF81C10002990D09F428ED179
:10284C009DF820000BF080FA88E743F60C14012663
:10285C000022C2F2000488F8056080E7012088F8A5
:10286C00050001E0F00702D00020FDF783FF9BF884
:10287C0000000BB0BDE8F08F2DE9F0418EB045F2B1
:10288C00DA38C2F20008B8F80000C00706D045F2EA
:10289C00DA30C2F2000001211AF0AAFAB8F80000EE
:1028AC00800706D545F2DA30C2F2000002211AF098
:1028BC009FFAB8F8000045F23C26C006C2F20006AA
:1028CC0024D5694642201BF08EF9B07E03380128CE
:1028DC0002D8306A16F05CFC318800200490CDE9F7
:1028EC000800CDE906000590ADF81A100220B18859
:1028FC008DF8180004A8ADF810101BF07AF945F209
:10290C00DA30C2F2000010211AF072FAB8F80000A6
:10291C00800634D531880020CDE909000B90ADF844
:10292C002810B178CDE9060008908DF81B10022113
:10293C008DF82610B1880590ADF81E1040F20911E3
:10294C000490ADF81C108DF8180001218DF82B00A7
:10295C008DF82A008DF82D0004A88DF82F101BF08F
:10296C003CF945F23810C2F20000018801310180B7
:10297C0045F2DA30C2F2000020211AF039FAB8F828
:10298C000000400640F19F800020ADF80E000DF1D4
:10299C000E0150201BF029F9BDF80E003188884239
:1029AC0016D1F17EB07E032908BF052838D0032943
:1029BC002FD1032841D0F07645F23450C2F20000FA
:1029CC0000680321B176C0B3C168B1B3032033E012
:1029DC000320307745F2DA30C2F2000008211AF0F9
:1029EC0013FAB07E05280FD0F0760520B0760020C3
:1029FC0016F0F0FB45F23450C2F20000006818B13A
:102A0C00C16809B1B07E8847522000211AF01EFB24
:102A1C0052E0022900F01D8104292AD104280CD08F
:102A2C00F07645F23450C2F2000000680421B17611
:102A3C0018B1C16809B10420884719F097F845F21C
:102A4C00E841C2F200010A6845F6C523801A400924
:102A5C00C0F67C23A0FB033045F23813C2F200030E
:102A6C00DC8CB4EBD01F04D21AB1C009D88400207E
:102A7C000860306A16F08CFB522000211AF0E6FA3E
:102A8C001BF0C1F804461BF0BEF8000240EA0444F7
:102A9C001BF0B9F844F6D3512044C1F26201A0FBFB
:102AAC00011291094FF47A7201FB12000A3016F0F0
:102ABC0091FB002016F0B0FB45F2DA30C2F20000B8
:102ACC0040211AF095F9B8F80000C0050ED5707FBA
:102ADC0045F2DA34C2F200043077204608211AF0AD
:102AEC0093F920464FF480711AF082F9B8F800007F
:102AFC00000740F1A580307F032800F29A80DFE8C0
:102B0C0000F0021F3C6B522001211AF09FFA0021A9
:102B1C0045F24832CDF82110CDF82510CDF829100A
:102B2C00CDF82D10CDF831100D91C2F2000204A891
:102B3C00F0CA0346F0C312781A7040F2015267E0F3
:102B4C00522001211AF082FA002145F24832CDF8C8
:102B5C002110CDF82510CDF82910CDF82D10CDF879
:102B6C0031100D91C2F2000204A8F0CA0346F0C362
:102B7C0012781A7040F202524AE0317E47201AF065
:102B8C0079FA717E54201AF075FAB1884B201AF03C
:102B9C0067FA318850201AF063FAB0788DF810007B
:102BAC0040F20910ADF8110001208DF8130004A8B3
:102BBC001BF027F8B07E01283BD145F2A350C2F29E
:102BCC0000000078012834D145F2DA30C2F200005E
:102BDC0020211AF019F92CE0522001211AF036FAB2
:102BEC00002145F24832CDF82110CDF82510CDF852
:102BFC002910CDF82D10CDF831100D91C2F2000234
:102C0C0004A8F0CA0346F0C312781A7040F20352BB
:102C1C00ADF821200022CFF60172CDF82520092233
:102C2C008DF82320CDF82910CDF82D100C911AF029
:102C3C00E2FF45F2DA30C2F2000008211AF0D8F8AF
:102C4C00B8F80000002818BF1AF00FFD0EB0BDE850
:102C5C00F0816846043006F110011AF0B7FE308896
:102C6C00F189ADF8000004A8ADF802100430B11DD4
:102C7C001AF0ACFEB07845F234548DF81C000020EC
:102C8C003188C2F200048DF81D002068ADF81010D8
:102C9C00B188ADF8121020B1026812B1684604A9CF
:102CAC009047B07E04283FF4C8AEF0762068BDE6AD
:102CBC002DE9F04F89B0002A039300F0DE818046A5
:102CCC0005A891460E46103000274FF0200A0290BE
:102CDC0002E000BF01378146484610F8011B252948
:102CEC000CD0002900F0C281022EF3D3B8F1000FF2
:102CFC00A6F1010618BF08F8011BEBE799F80110C3
:102D0C002D2925D199F8021009F103090124302944
:102D1C0023D04FF0000C0B462A2B24D0A3F130000B
:102D2C0009282FD83D46A9F101004FF0000B00BF38
:102D3C000BEB8B0203EB420210F8013FA2F1300BBC
:102D4C00A3F130070A2FF3D300F101092F461BE042
:102D5C0009F1020900243029DBD119F8013B4FF0AD
:102D6C00010C2A2BDAD1039B1868021D1A60D0F8CB
:102D7C0000B0BBF1000F44BF0124CBF1000B19F8DC
:102D8C00013B01E04FF0000B2E2B049412D148466E
:102D9C0010F8013B2A2B40F06080039B1868021D41
:102DAC001A60006899F8013020EAE07E09F1020906
:102DBC0002E000BF4FF0FF3E302903F0DF0008BFF8
:102DCC00DC464C2808BF19F8013BA3F16300152819
:102DDC0000F2AB80DFE800F0A35BA9A9A9A95BA96D
:102DEC00A9A9A9A90BB3A9A9D9A90BA9A90B039A9C
:102DFC0001971068782B00F1040111604FF008075F
:102E0C00006808BF1027752B08BF0A27F4457146C8
:102E1C00C8BF6146029D4FF66B4A0023C0F2010AFF
:102E2C00B0FBF7F4013304FB170201391AF8022046
:102E3C00874205F8012D2046F2D9E645C8BFF44675
:102E4C00019F634504DA6D1A284630221AF0C4FD3E
:102E5C0002984FF0200A401BBAE0A3F13002092A75
:102E6C0059D83D46A9F101004FF0000E0EEB8E0231
:102E7C0003EB42028378A2F1300EA3F130070A2F44
:102E8C0000F10100F2D300F102092F4694E7039AF6
:102E9C00E6451068019700F104011160D0F800A01C
:102EAC00C8BFF446BAF1000F504648BFCAF1000043
:102EBC000CEBEA7C029D4CF6CD4E4FF66B44002396
:102ECC006146CCF6CC4EC0F2010400BFA0FB0E72E2
:102EDC00D20802EB8207A0EB4707E75D013305F848
:102EEC00017D013909281046F0D8634504DA6D1AC2
:102EFC00284630221AF070FD019FBAF1FF3F04DC26
:102F0C002D2000EAEA7005F8010D0298049C401B84
:102F1C004FF0200A5DE04FF0000E81464CE7039A1B
:102F2C001068011D1160006804E0022EA9F1010176
:102F3C004AD308788DF81400012005AD48E0039BB6
:102F4C00129A1868049C011D196001684FF66B43B6
:102F5C00029DC0F201036FF00700002A01F00F027E
:102F6C009A5C090905F8012D00F10100F6D1C11D8B
:102F7C0005D305444142284630221AF02DFD40204D
:102F8C0005F8010D0298401B23E0039B129A186868
:102F9C00002A00F10401196005684FF6FF60002D4E
:102FAC00C0F2010008BF0546002000BF295C0130BB
:102FBC000029FBD1411E8E45084638BF70461EF1D4
:102FCC00010208BF084603E0002005AD894600BF9A
:102FDC00049CABEB0001B4B13A4658B3034603E092
:102FEC00013B05F101050BD0022EF9D3B8F1000F0E
:102FFC00A6F101061CBF2F7808F8017BF0E700BF93
:10300C008718DCB968E601292EDB0BEB070202E01E
:10301C000139002909DD022EFAD3B8F1000FA6F10F
:10302C00010618BF08F801ABF2E7121A4FF0FF3196
:10303C000028D3D11746002C3FF44EAE0129FFF6E1
:10304C004BAE10444A1C02E0013A012A0ADD022E62
:10305C00FAD3B8F1000FA6F1010618BF08F801ABBE
:10306C00F2E700BF471837E60139B5E7B8F1000FB2
:10307C001CBF002088F8000000E00027384609B08B
:10308C00BDE8F08F2DE9F04186B0C24EC24CC34D65
:10309C0030882168EA88084400F10801E868806DEE
:1030AC001AF004FAEA68E8883188DFF8F482936D44
:1030BC0001443180184490652068012298F883708F
:1030CC0010FA81F000F108010DF113001AF0EEF97D
:1030DC0030880130022F308013D1216801221AF080
:1030EC0034FC68461AF0E2F930882168012201307C
:1030FC0030801AF02AFCAB481AF0D8F9308801302D
:10310C003080216805AC04221AF01FFC20461AF00E
:10311C00CDF93088042104303080204618F054FB5F
:10312C00059019F089FCE968C863059819F0FCF959
:10313C00E968A1F840009C48007818B118F016FD19
:10314C00E968C863EA2018F070FD9848426812B12B
:10315C00E8680121904702219548022F017009D19E
:10316C009448007830B1A87C800916F065FD08B150
:10317C000120A870E968A8780A7C002818BF42F0E2
:10318C0004029DF9130000240A74002118F070FB4E
:10319C000146E86880F846109DF81310B0F85C20E2
:1031AC0080F8474080F8481000F17401816501896E
:1031BC00511A42680A44818942608B0513D40B076B
:1031CC001CD501F00703032B0AD053B912F8033FA7
:1031DC00382404EA530403F0070304EB43031A44B2
:1031EC00013242610AE012F083FBE868416E11B1D2
:1031FC00B0F8681079B1416841618189090711D42F
:10320C0090F86010D1B114F075FAE868C16CA9B1EE
:10321C00B0F8500090B905F10C001AF0E2FB002058
:10322C00E86038E007F052FCE9684870E8688169AA
:10323C004165407810B1F22018F0F7FC5E4C207814
:10324C00002800F09D80E868828902F007010229BD
:10325C0004D15A4B1B780BB94378FBB1584B1E78F1
:10326C000123002E00F0878002F44052B2F5005F7B
:10327C0040F081804278A2F1DB03182B62D8012642
:10328C0006FA03F34F4E33425CD0012903D10421DB
:10329C0081730AF059FF13F0F3FC78E000218DF8EC
:1032AC00121000F128010DF10A001AF07FFCE868F9
:1032BC000A2200F1280168461AF0F8F8434E636AB6
:1032CC000DF112020421308801303080E868406E24
:1032DC00984730B93E48006818B19DF8121080F834
:1032EC006810E86890F83010022911D128300021BC
:1032FC0008EB0103425C93F820309A4208D101316B
:10330C000229F5D108F116010DF10A001AF04EFC54
:10331C003048007886280AD17088E968013089899C
:10332C0070802D4801F01001007814F0F7FE207821
:10333C0018B1A16C09B1E868884705F10C001AF0C6
:10334C0050FB20E0002AA6D11F499DF81320AB7832
:10335C000A701E498A880132002B8A8000F12801EC
:10336C0000F11C0218BF0423184615F0B3FA237899
:10337C00002B18BF01231BB1A16C09B1E868884769
:10338C00E8680AF0E1FE0020E86019F0B7FB06B02F
:10339C00BDE8F08186480020A0470020E0520020C4
:1033AC0084380020A14800207E550020B0F7010091
:1033BC009C48002098550020884C0020AB480020E9
:1033CC009F4800201F220001AA4800205C460020D4
:1033DC0044550020A4480020AC4800202DE9F04FB3
:1033EC008FB08346C0891446073086B230460F46EC
:1033FC000AF006F80546FF280FD13046FDF7BAF95A
:10340C00B0420ADA44F2CB60C2F200000078002825
:10341C0008BF05200FB0BDE8F08F44F2CB60C2F2BC
:10342C0000008046007844F2E016C2F200060697CF
:10343C00E8B91CB1022C1AD1FF2D18D19BF8080049
:10344C00DBF804208DF82400F078F18808923546DA
:10345C00002607AA032300962E4602F093FB9DF844
:10346C002C00BDF828108BF81000ABF80C10F77876
:10347C0043F60C10C2F2000000684FEAC72AB6F8F7
:10348C0006900EAA514604231AF0CCF89DF8380089
:10349C0045467E282ED143F6DC10C2F200000168AE
:1034AC007C208DF83100B9B188470B24002818BF57
:1034BC000024A8B143F60C10C2F2000000680425E9
:1034CC000DF13102514601230095454619F0F0FEED
:1034DC00002848BF012404E0002401200028E9D181
:1034EC000B242C7034B907EB470006EB80007C21D1
:1034FC00F77081759DF838007C2863D1BBF80E609D
:10350C00F01D19FA80F8B8F5006F5DD8CDE9040705
:10351C0083B2BBF806009BF80810C0F3012242EA04
:10352C0081018DF83110BBF804108DF83200880839
:10353C008DF83300C6F3851040EA81108DF8340005
:10354C00B0000C2B06EB090B8DF8350042D844F279
:10355C001C77C2F20007069938463246CDE902388C
:10356C001AF092FBDDF831009DF8351007EB0608D8
:10357C00B851701D88F8041082B20020394600241E
:10358C0018F0FAFD9DF8351041EA901180000230D8
:10359C008DF8360096208DF83510DDF831108DF849
:1035AC00370043F6DC10C2F20000B95101680D98E7
:1035BC000029C8F8030044D088470B24002818BF02
:1035CC0000243FE0012000E00520287028780FB08F
:1035DC00BDE8F08F069900203246002718F0CCFD8C
:1035EC000DF13101052218F0C7FD9DF8351043F699
:1035FC00DC1441EA9011C2F200048DF83510800001
:10360C00216802308DF8360096208DF83700C1B352
:10361C0088470B27002818BF0027A8B343F60C10C7
:10362C00C2F200000068069A0AEB09014FF0040C84
:10363C003346CDF800C019F03BFE002848BF0127E7
:10364C0023E0012044F2E016DDF80C80C2F2000603
:10365C0098B143F60C10C2F20000006844F21C72E0
:10366C00029B0AEB09010427C2F20002009719F031
:10367C001FFE002848BF012400E00B2405982C7085
:10368C002FE001200028C9D10B27216844F2E01655
:10369C00C2F200062F70B9B188470B24002818BF5E
:1036AC000024A8B143F60C10C2F2000000681AFA0C
:1036BC008BF104270DF131020723009719F0F8FD67
:1036CC00002848BF012404E0002401200028E9D18F
:1036DC000B242978059841EA040211062A707FF41C
:1036EC0075AFF28804991144F180297800EB4002FF
:1036FC0006EB82020029A2F81C803FF467AF1FFA88
:10370C008BF10AF021FB61E72DE9F04F81B045F216
:10371C00A954C2F2000483462078924689460028B8
:10372C004FF000008DF802B08DF8030007D144F281
:10373C00AA60C2F2000019F067FF0120207044F269
:10374C00AA68BBF1F90FC2F200081CDDABF1FA005C
:10375C0005286AD8DFE810F00801080106003D00D2
:10376C004F005C0045F27650C2F2000001784A1C12
:10377C00322908BF01226FF054015143C9B25629B6
:10378C0038BF0132AAE0BBF1000F3AD0BBF10D0FEC
:10379C0000F0EA80BBF17F0F47D145F27650C2F2C0
:1037AC000000B0F900100129C0F2DE8045F256523B
:1037BC00C5F2555251FB02F202EBD27202EB4202FD
:1037CC008B1A022BA1F101026BD0012B7BD1F023C0
:1037DC0068E045F27650C2F2000001786FF05402B6
:1037EC00013908BF32214A43D2B2562A38BF0139B7
:1037FC00C9B20180B8E045F27650C2F20000012156
:10380C00018044F2AA60C2F2000019F0FDFEABE0A8
:10381C0044F2AA60C2F2000018F046FD45F2765060
:10382C00C2F20000012101809EE0ABF130000A28B9
:10383C0004D3ABF16100052800F2968045F2765472
:10384C00C2F20004B4F900004FF05532411E51FB96
:10385C0002F2521A530803EBD272114445F256523B
:10386C00C5F2555250FB02F202EBD27202EB42024D
:10387C00C9B2801A02284FEA510532D0012841D131
:10388C0018F80500002100F00F0008F805000DF1F4
:10389C000200102207F038FC18F8051041EA00105D
:1038AC002EE00F234FF0553752FB07F7BF1A7E104F
:1038BC0006EBD77717447F0807F07F0718F80760E7
:1038CC00334308F80730C9B2012908BF32226FF020
:1038DC0054015143C9B2562938BF013AD1B20180C3
:1038EC0042E018F80500002100F0F00008F805008F
:1038FC000DF10200102207F007FC18F80510084320
:10390C0008F805004FF69E40C0F2010018F805209B
:10391C00405D44F6600102EA000644F66400C2F21F
:10392C000000C2F2000100680968964206D14FF609
:10393C007872C0F2010203F0AFFA07E04FF2CC62EA
:10394C00C0F2010203F0A8FA08F805602078411CC7
:10395C00322808BF01216FF054004843C0B25628EA
:10396C0038BF0131C8B220804FF672724FF0000C94
:10397C006946C0F201020023002406E006F807C0E5
:10398C000133112B04F1020433D018F80360012722
:10399C0006F00F0000F13005392D88BF00F1370516
:1039AC00CD55013F781C4FEA1616F1D1D9F800001D
:1039BC004FF0FF3650FA84F79519B8196D78013627
:1039CC00012E4570F8D1D9F80070601CC4B257FABA
:1039DC0080F0461E16F8010F0028FBD1002700BF0F
:1039EC00022FCBD0C85DF055002807F10107F7D1A5
:1039FC00C6E7BBF1000F19D0D9F808004FF61F52DB
:103A0C004FF0FF31C0F20102571843187F78013193
:103A1C000E295F70F8D10120AAF8000045F276500B
:103A2C00C2F2000000880130AAF8020001B0BDE823
:103A3C00F08F70472DE9F04F8FB0DFF80C830546FF
:103A4C0098F80A00C0001AF0F6F800280C9000F064
:103A5C006F8119F083FE00900DF13A01822005F080
:103A6C00DFFBBDF83A004FF6FF7988BB00264FF01C
:103A7C00FF3708AC0020B8F8041082B2ADF83A0059
:103A8C008A4220D2ADF820000020CDE90A77ADF8AB
:103A9C002690ADF8249098F80A10884209D20C9917
:103AAC0041F830600C9901EBC0010130A1F8049091
:103ABC00F1E7D42021468DF8346002F09BFABDF872
:103ACC003A000130D7E70DF13A01822002F092FA68
:103ADC00281D019008A80830029005F115000390EC
:103AEC0004AE0020F71CB8F80810ADF83A0080B20C
:103AFC00884280F01F814FF0000A012498F80BB027
:103B0C00DA4527D2BDF83A0031468DF812A0ADF84F
:103B1C001000D02005F084FBC8B99DF81C40012C86
:103B2C0007D19DF81B0020B9384619F0F1F900288F
:103B3C006ED1287D844209D1002C4FF00902384601
:103B4C0008BF0522039918F0A5FE40B900240AF11C
:103B5C00010AD3E7002C5BD1E87F002858D0002461
:103B6C00B8F80600844251D2BDF83A003146ADF89F
:103B7C001240ADF81000D12005F052FB78B9BDF819
:103B8C00140048450BD0ADF82000D42008A905F04E
:103B9C0047FB002840F0BB8019F0DCFE08B901346B
:103BAC00DEE728680990DA452AD2287B98F80AE0E3
:103BBC00BDF83AC00C9A8DF834000020864500F010
:103BCC00A680034602EBC0008188494502D0581CF0
:103BDC006145F3D1286942F833000C9800EBC3001F
:103BEC00A0F804C0D42008A902F004FAA87F9DF81C
:103BFC001610814208D08DF81600D120314601E014
:103C0C00D42008A902F0F6F9B8F80600844203D0D3
:103C1C00BDF83A00013066E7B8F80400002681B21E
:103C2C00B4B28C427BD2ADF82060D42008A905F048
:103C3C00F7FA00286BD1029819F06AF918B919F043
:103C4C0089FE00285FD0286898F80A300C990396F2
:103C5C0000260990287B8DF83400BDF83A00B34259
:103C6C0060D0324601EBC606B7884F4502D0561CD1
:103C7C008742F4D1DA4534BF2B69002341F8323046
:103C8C000C9901EBC20108228880DDE9011019F0C2
:103C9C000DFC2E48007830B12C48026D1AB1BDF8DD
:103CAC002010019890470027B8F80600BEB2864253
:103CBC0023D2BDF83A00ADF81270ADF81000D12047
:103CCC0004A905F0ADFAE82805D0BDF81400484564
:103CDC0001D00137E8E7BDF82000ADF81400002052
:103CEC008DF81700A87F8DF81600D42008A902F0D3
:103CFC0081F9D12004A902F07DF9B8F804008642BC
:103D0C00039E02D20BE0B8F80400013687E719F0E5
:103D1C0008FF0C9808B119F08CFF192011E080B243
:103D2C00844207D119F0FDFE0C9808B119F081FFFF
:103D3C001A2006E019F0F5FE0C9808B119F079FF7D
:103D4C0000200FB0BDE8F08FBC530020884C002041
:103D5C0088B010F067FE15F013FF45F28E51C2F2D9
:103D6C0000010120087040F6F020C5F20000016847
:103D7C0044F61802C2F200021160406844F61C01BD
:103D8C00C2F20001086044F20C71C2F200014FF45F
:103D9C008070488100244BF6EF600C73A1F80D0085
:103DAC0017F008FA052011F0A3FA18F065FD00BF12
:103DBC00A0B2FF21A522002313F0B6FB0134102C76
:103DCC00F6D148F2A064C0F2010419F0A1FE4FF63E
:103DDC006C70C0F2010000684AF22011C0F20701B9
:103DEC0045F2BC4B45F28C5945F2A85AB4FBF0F4A1
:103DFC0045F2C04745F2C448B1FBF0F0C2F2000BEB
:103E0C00C2F20009C2F2000A0026C2F20007C2F296
:103E1C000008039045F28E50C2F20000007858B1B1
:103E2C004FF49670CDE90006FF20002100220323F9
:103E3C00102502950FF0CCFDDBF8000019F040FEC8
:103E4C00000452D0DBF8000042F6D761C2F2000148
:103E5C004FF0FF3211F086FD002846D042F6D760B5
:103E6C00C2F20000007800283FD044F20C72C2F27B
:103E7C000002108844F68401C2F200010880ADF8FB
:103E8C00110044F61C00C2F2000044F61801006850
:103E9C00C2F200010968CDF81700107BCDF81310A1
:103EAC0051898DF81D004BF6EF60ADF81E0003989C
:103EBC00ADF81B1013218DF810100CF02FFA45F2F1
:103ECC003A411320C2F200010122102304AD0095E7
:103EDC0008F036FD45F2CC40C2F2000045F28B51A1
:103EEC0006600120C2F20001087099F80000012858
:103EFC0010D19AF80000012101308AF80000DBF89B
:103F0C00000089F800608DF8101018B104A9224641
:103F1C000FF008FB9AF800000B2824D345F28B50C5
:103F2C00C2F20000067045F2CC40C2F200000660FE
:103F3C0089F800608AF8006016F004F845F26A55BA
:103F4C00C2F200052846402118F052FF28460121F4
:103F5C0018F05AFF19F089FB45F2DA30C2F2000072
:103F6C00202118F051FF386819F0AAFD000434D054
:103F7C00386844F26471C2F200014FF0FF3211F064
:103F8C00F1FC50B344F26472C2F20002108844F6A1
:103F9C008401C2F200010880ADF8110044F618004B
:103FAC0044F61C01C2F20000C2F20001006809686C
:103FBC00CDF81300CDF81710907A15218DF810104C
:103FCC0045F23A418DF81B001520C2F20001012286
:103FDC000C2304AD009508F0B3FCD8F8000019F0E0
:103FEC006FFD00042AD0D8F8000042F6D561C2F269
:103FFC0000014FF0FF3211F0B5FCF8B142F6D5617B
:10400C00C2F20001087801280AD0B8B94FF49670B2
:10401C00CDE9000600200021FF22032310250AE031
:10402C0048784FF496718000CDE900100020FF21F4
:10403C0000220223042502950FF0CAFC18F01CFC88
:10404C00002500BFA8B2FF21A522002313F06CFAB3
:10405C000135102DF6D119F05BFD20460CF05EF900
:10406C00D8E62DE9F043A3B045F26A58C2F2000835
:10407C00B8F80000C0074ED007AC04A8214612F0D7
:10408C0023F890B345F2A650C2F200000121017052
:10409C0001A815F056FD60B1BDF8040044F234716E
:1040AC00C2F200014880DDE90220C1E9012019F0CB
:1040BC0067FB45F23040BDF81E10C2F20000022230
:1040CC0002720180BDF81C00221D002315F0F7F9C7
:1040DC0030B101464FF61050C0F2010016F03EFC14
:1040EC0004A807A90FF098FD0EE045F2A650C2F205
:1040FC0000000021017017F039FD45F2EC41C2F2CD
:10410C000001086015F080FA45F26A50C2F2000016
:10411C00012118F06DFEB8F80000800740F1118104
:10412C0044F23479C2F20009D9F8040015F052F8BF
:10413C0019F033FC45F25855C2F2000507AC288043
:10414C0068802046702119F09FFC661CE2203146E5
:10415C0019F047FDB9F80270F807ADF826701CBFCE
:10416C0028680A90B80744BF0020ADF82C007807E7
:10417C0044BF0020CDF82E00380708D545F2381181
:10418C0004F11600C2F20001302219F07DFDF80690
:10419C0044BFD9E90110CDE9191007A802F04FF975
:1041AC00BDF82600C1074FF00F0108BF0B21820795
:1041BC0048BF0231420748BF0431020748BF3031C3
:1041CC00C00648BF08318CB2204619F04CFD0028BF
:1041DC0000F0B08005460520287070683168C5F87D
:1041EC000500C5F80110BDF8261005F1090019F0FD
:1041FC00B9FCBDF82610C90707D0BDF8281019F076
:10420C00B1FCBDF82A1019F0ADFCBDF826108907D9
:10421C0003D5BDF82C1019F0A5FCBDF826104907E4
:10422C0007D5BDF82E1019F09DFCBDF8301019F013
:10423C0099FCBDF82610090765D5BDF8321019F0A8
:10424C0091FCBDF8341019F08DFCBDF8361019F046
:10425C0089FCBDF8381019F085FCBDF83A1019F03E
:10426C0081FCBDF83C1019F07DFCBDF83E1019F036
:10427C0079FCBDF8401019F075FCBDF8421019F02E
:10428C0071FCBDF8441019F06DFCBDF8461019F026
:10429C0069FCBDF8481019F065FCBDF84A1019F01E
:1042AC0061FCBDF84C1019F05DFCBDF84E1019F016
:1042BC0059FCBDF8501019F055FC45F26C51C2F286
:1042CC000001098819F04EFC45F28451C2F200013C
:1042DC00097819F047FCBDF8561019F043FCBDF8ED
:1042EC00581019F03FFCBDF85A1019F03BFCBDF802
:1042FC005C1019F037FCBDF85E1019F033FCBDF8FA
:10430C00601019F02FFCBDF82610C90605D51999B7
:10431C0019F02BFC1A9919F028FC45F23041C2F225
:10432C000001052001222346009508F009FB2846D0
:10433C0019F02EFB45F26A50C2F20000022118F06F
:10434C0057FDB8F80000400648BF15F0FBFDFEF71E
:10435C0093FA0CF04BF8B8F80000002808BFFCF7F3
:10436C0073FD23B0BDE8F0832DE9F047AC481D4642
:10437C00144690F88300012828D1AA481FFA81FA24
:10438C000121A94EAC4F01700020F07038788328C1
:10439C0002D1706919F02AFAA8064FF6FE783BD4C0
:1043AC0015F0E04F6CD096F90600012802DBB079CD
:1043BC000138B0719E48426805F08070002A77D0B1
:1043CC0000287AD000200021904772E09548012106
:1043DC00954E0170002005F0E041F07004F00200F1
:1043EC004018924807682AD096F90600012802DB8B
:1043FC00B0790138B07196F90500012802DB7079AB
:10440C00013870718A48426805F0807022B378B325
:10441C0000200021904720E08848A6F80A80007808
:10442C0083281CBF832038708548007820B13169FF
:10443C00002957D000208847A6F80AA052E0600255
:10444C0031D4E00300F19780A00340F1A08000205C
:10445C00387114F0CFFF9AE050B196F9070001289B
:10446C0002DBF0790138F0710120307118F0ACFEEC
:10447C000020387112F004FC7079002874D18CE0A3
:10448C0014F4860F00F0A58084F48030A6F80AA0FE
:10449C00C6E90645284325D16A484088B0F5505FE7
:1044AC0000F0AA801EE00020387112F0E9FB6EE0EB
:1044BC0018B10120307118F087FEF07E400703D54B
:1044CC0018F082FEC6E906457089504508BF12F007
:1044DC00D7FBA6F80A8096F90500012802DB707953
:1044EC0001387071A00733D5DFF8589143F20141C0
:1044FC00B9F80200884209D043F20441884205D041
:10450C00544940F609024988914251D1707A0130E0
:10451C00707296F90600012802DBB0790138B0718F
:10452C0012F0AEFB17F046FD0020A6F80A80A9F8A1
:10453C0002004348007810B14748007808B918F0D9
:10454C0043FE96F90500012802DB70790138707181
:10455C00B07908B90020B070707900B304F0020093
:10456C0005F0E04140181ED096F9050000281ADC31
:10457C0018F0C2FE17E02F48007820B1052011F08A
:10458C0045FE16F06DFA00203871FBF751FDA006C0
:10459C0048BF19F091FB707928B90020B070002049
:1045AC00002110F0F9FC1F4800210170BDE8F087D4
:1045BC0096F90610012902DBB1790139B1717189C3
:1045CC00514523D1B07E10F0410F25D0FBF730FDC3
:1045DC00AAE71F4804423FF485AF84F08060A6F838
:1045EC000AA0C6E9064528437FF47CAF15484088ED
:1045FC0040F002000228ABD114491348002209688C
:10460C0000684B690FFA8AF19847A1E743F6040159
:10461C0088423FF487AF87E712F032FB84E700BF94
:10462C008438002085550020885200205C480020EA
:10463C00B0F701008A5500209C480020A4480020B7
:10464C00884C0020F0400020605400202C480020B2
:10465C0000000C8C984500209F4800202DE9F04F5D
:10466C0087B00446007D92F808A099469346884688
:10467C00352805D004F1700059460A2218F016FFAF
:10468C00E08A0821AD4B01EA9001DE8C21764107CE
:10469C006FF07F0158BF10216176C10693F834107A
:1046AC0048BF0021A1764FFA88F1B1F1FF3FD8BF86
:1046BC004FF0FF362021D4F804E001EA401100F05D
:1046CC00080041EA4000217D8A1E0A2A0CD80C29D8
:1046DC0008BF00F508500C39B1FA81F140F0030025
:1046EC0049094FEA410C0AE00D2905D314BF40F0EB
:1046FC00010040F0020000E008434FF0000C94F879
:10470C008C100746002918BF47F008073A0707D452
:10471C0093F83820002A18BF384621D1A1B91FE0E0
:10472C0091B193F8380078B104F12403204659462E
:10473C004A46CDF810C00CF059F838B105466070F7
:10474C00F32017F072FAF5E0DF25F2E0E08AD4F8F6
:10475C0004E07A4BDDF810C000F0040047EA80005A
:10476C00216DCDF818A019B9A16D002900F0878032
:10477C0040F408504FF0020C714908F07F0ACDF854
:10478C001490097851B96F49097839B194F86B10C4
:10479C00042904BF4FF0020C6CF31F3040EA883937
:1047AC00BAF1030F10D0BAF1020F11BFAEF101072D
:1047BC0093F82B000EF8010C93F82A0004BF0EF8A6
:1047CC00020CAEF103070CE0AEF1080003F144015A
:1047DC001F466546F04619F0E9F93B46AC46A8F190
:1047EC000907109DBCF1020F08D1BAF1000F17D0C8
:1047FC000698B0B9B0B24FEA10282CE0BAF1000F0D
:10480C0008D0069830B10599B0B2884202D149F06F
:10481C00400905E0BAF1000F1CBF27F8016C023FFC
:10482C00069849EA8029D0B1059E03284FEA16283C
:10483C000AD002280FD19BF8010038709BF80000B9
:10484C0007F8010C023F06E0F81F59469A4619F08A
:10485C00ADF95346083F07F8016C07F8028915B10A
:10486C0049F4807932E0207DB0B10D281DBF93F85A
:10487C002200411C83F8221019F012F824E093F85E
:10488C005110012910D121898908762914D810F0EA
:10489C0008013FF471AF0FE0206D90B193F839002F
:1048AC00411C83F839100FE0020705D402297FF46C
:1048BC0063AF40F4005001E040F480504FF0010C25
:1048CC005AE7187D411C197507F8010927F8019D55
:1048DC00606821896760C01B51FA80F020815FEA13
:1048EC00097025D5A06D00B120621648007810B172
:1048FC00207D0D281CD1606A10F1150102D118F031
:10490C00FBFC606A816A4A1C8262A162D4E90835A8
:10491C00208994F88C20FE1A0644B6B28DE8490022
:10492C0005F115003B460BF043F908B1054600E0D4
:10493C0000256570284607B0BDE8F08F843800204C
:10494C0099480020884C00202DE9F84FDFF88C8224
:10495C008A4683460120A2491D46144688F8000069
:10496C00002008709F4991F8831001291AD19F4E9D
:10497C00306808B918F0C0FC9D48076817B1A54805
:10498C0018F022FFA00731D415F0E24F5FD09A48FF
:10499C00017801390170A4480078862823D114F0DD
:1049AC0029FDDFE09049914E0870306808B918F085
:1049BC00A3FC8F48076817B18E4818F005FF15F057
:1049CC00E24F36D08C480178013901708948406833
:1049DC0018B18A48C1890131C181306840680078BA
:1049EC00800600F1B48016F025F9BBE0DFF80892E0
:1049FC00002199F80000013889F800007A4801700C
:104A0C00854843F20A41408840F002028A4205D0B0
:104A1C00824A528842F002038B4265D100200AF090
:104A2C00ABFA99F80000002800F0A68099F9000074
:104A3C009DE0200719D46F48406818B16F48C189B0
:104A4C000131C1816C4801780139017087E004F4AF
:104A5C00860005F02001401800F081805846514630
:104A6C0022462B46FFF780FC7CE0634C42F2054269
:104A7C002078013820706248418841F0040090424F
:104A8C0018D15C48406818B15C48C2890132C281B7
:104A9C005A4842890132428142F20542E120914258
:104AAC0008BF1C2008F004FA2078002864D094F980
:104ABC0000005CE04F4842F606024188914226D045
:104ACC00B1F5105F45D140695149086014F05CFFA5
:104ADC004C480078002845D04C480168013138BF5B
:104AEC000160002101813DE04A4943F604034988F5
:104AFC00994218BF9A4248D14C48007800F0FE0009
:104B0C0002287FF48BAF002008F0D2F938E040681F
:104B1C0018B13A48C1890131C1813A48007808B3CB
:104B2C003948042100780228344808BF0621425A2B
:104B3C000132425235484168013138BF4160018928
:104B4C00428901318BB20181934288BF4181E920B6
:104B5C0006E0406818B12948C1890131C1811D2086
:104B6C0008F0A6F92448017831B190F9000000282A
:104B7C0006DC18F0C1FB03E00020002110F00CFA59
:104B8C00002088F80000BDE8F88F43F6040290423C
:104B9C00B2D0234840F6090240889042ACD0B1F51F
:104BAC00505F10D11F481A49006800F5C0700860AA
:104BBC001D48007886280CD15846514622462B4673
:104BCC0013F0AEFE07E0080505D51D2008F070F9BE
:104BDC0001E014F0D9FE18F0F7FAC3E78555002070
:104BEC008B520020843800209A5500204455002018
:104BFC00B0F70100C84500208D52002098460020D7
:104C0C00344300209052002096480020404700205A
:104C1C004448002054430020D4440020B8440020D1
:104C2C00B045002028010021A4480020A7480020FE
:104C3C002DE9F04186B042F63054C2F2000404F182
:104C4C002001039104F1A201049104F59271002852
:104C5C00059140F0858045F2D44144F2D870C2F2FF
:104C6C000001C2F200000E68076842F6305506EBF0
:104C7C004600C2F2000507EB8008284640F2A51159
:104C8C0018F002FF44F2DC70C2F2000000688742A8
:104C9C001FD0387A0138864230D045F2C840C2F273
:104CAC00000000683946FF68002F18BF8742F9D111
:104CBC00486805F12003802107781A4603F8017B28
:104CCC0027B1013900F10100F6D10021022911D2DE
:104CDC0014E0786805F12003802100BF07781A469C
:104CEC0003F8017B27B1013900F10100F6D1002155
:104CFC00012903D9501C013918F0C6FE454615F898
:104D0C00140F03280AD0022810D1D8F818301BB180
:104D1C0003A902AA002008E0032807D1D8F818003C
:104D2C0003681BB1C08803A900229847297805980D
:104D3C00002900F0D48008F110010B68802100BF1D
:104D4C001F78024600F8017B27B1013903F10103FA
:104D5C00F6D10021022903D3501C013918F094FE1E
:104D6C004FF654320127C0F2010220462021802345
:104D7C00009716F034FF0399A01E02469378013277
:104D8C00002BFBD1002300BF802B02EB030705D0C7
:104D9C00CE5C0133002E7E70F6D101E000217970DB
:104DAC00024600BF917801320029FBD14FF61D114C
:104DBC000023C0F2010100BFD718CE5C0133032BD6
:104DCC007E70F9D1049A03469F780133002FFBD1F2
:104DDC00002700BF802F03EB070605D0D55D0137F8
:104DEC00002D7570F6D101E000227270024600BFF2
:104DFC0093780132002BFBD1002300BFD718CE5C77
:104E0C000133032B7E70F9D1059902469378013258
:104E1C00002BFBD1002300BF802B02EB030705D036
:104E2C00CE5C0133002E7E70F6D101E0002179704A
:104E3C000321ADF80810002202A900BF8B5C0132DF
:104E4C00002BFBD1013A11D083780130002BFBD120
:104E5C00002300BF9A4200EB030705D0CE5C013360
:104E6C00002E7E70F6D101E000207870002000BF8B
:104E7C00215C01300029FBD1441EB4F5007F2BD8F6
:104E8C0045F2E446C2F20006306828B344F2D4700E
:104E9C00C2F2000000684FF0FF3118F074FD45F2CB
:104EAC00E040C2F200000021016045F2DC4042F615
:104EBC003035C2F20000C2F2000542F630510460F7
:104ECC00C2F200012846224618F0DEFE3068294660
:104EDC002246002318F0DEFB06B0BDE8F081D8F8BE
:104EEC0018104B68802100BF1F78024600F8017B28
:104EFC0027B1013903F10103F6D1002101293FF655
:104F0C002BAF2DE786B016F0F5F818F027FC044609
:104F1C0011F0A4F808B100BFFEE744F62006C2F277
:104F2C000006306800688047306802ADC1682846CA
:104F3C008847042031688DF808004A68002029460B
:104F4C00904744F2F471C2F200010028086000F0AE
:104F5C003B8111F06FFC11F031FA18F0A2FB2046E6
:104F6C0018F0C7FD11F02EFB44F21B74C2F20004C2
:104F7C0020784FF4804118F033FC44F2CC6045F2B9
:104F8C00145544F24C7644F6900945F2A55A45F274
:104F9C008758C2F20000C2F20005C2F20006C2F24B
:104FAC000009C2F2000AC2F2000800F1040B06E08C
:104FBC002C605446C24645F28758C2F2000820784D
:104FCC0015F0A2F801462078296011F065FC13F069
:104FDC00F3FC2878800600F191806878000600F1D7
:104FEC00CF80287801AFC00605D52E208DF804009F
:104FFC00384612F0BFF82878C00705D025208DF868
:10500C000400384612F0B6F82878800705D526201B
:10501C008DF80400384612F0ADF82878400705D515
:10502C0027208DF80400384612F0A4F828780007E1
:10503C0005D529208DF80400384612F09BF8287805
:10504C00400605D52D20ADF80400384612F092F834
:10505C002878000605D53020ADF80400384612F04B
:10506C0089F86878C00705D03520ADF804003846BB
:10507C0012F080F86878400705D52320ADF80400BD
:10508C00384612F077F86878800705D53620ADF8E9
:10509C000400384612F06EF86878000705D5372002
:1050AC00ADF80400384612F065F86878D046C006B2
:1050BC002F4605D53820ADF8040001A812F05AF897
:1050CC007878A24640063D4648BF15F0ABFB3068E9
:1050DC00002400283FF46CAF18F040FB31683460BA
:1050EC00029118F006FD0298374647F8040F12F0AB
:1050FC0041F8384614F0CCFE5AE700BF584616F07B
:10510C005BFD002802903FF468AF18F027FB44F2D7
:10511C00CC62C2F20002117B0139117318F0E9FC68
:10512C0002980378706041788DF80430A1F1DB02AD
:10513C00182A12D8012303FA02F242F21F23C0F2FA
:10514C0000131A4209D00BF01FFA9DF80400162820
:10515C0006D102A814F09CFE02E009B912F00AF87C
:10516C009DF804001628C9D0301D14F091FEC5E737
:10517C00374647F8040F11F0FDFF384614F088FE4F
:10518C00207812F0FFF9002802903FF42AAF017842
:10519C00D029EDD314D18178C278037989F8001025
:1051AC008AF8002088F80030D0E9021245F240530A
:1051BC00C2F20003196045F23C51C2F200010A60D0
:1051CC0017F071FADCE700BFFEE770472DE9F04FEE
:1051DC0081B045F2AA54C2F200048246207891466E
:1051EC00884600284FF000008DF802A08DF80300CF
:1051FC0007D144F2BB60C2F2000016F04EFD012054
:10520C00207044F2BB6BBAF17E0FC2F2000B19DDB9
:10521C00AAF1FA00052828D8DFE800F0CDCD0373F9
:10522C00208445F27850C2F2000001784A1C2F29E4
:10523C0008BF01226FF054015143C9B2562938BF3F
:10524C000132B6E0BAF1000F08D0BAF10D0F00F040
:10525C00B280BAF11B0F00F0AE8025E044F2BB60C7
:10526C00C2F2000016F019FDA5E0BAF17F0F1BD1B8
:10527C0045F27850C2F20000B0F900100129C0F2DA
:10528C009A8045F25652C5F2555251FB02F202EB8E
:10529C00D27202EB42028B1A022BA1F101026BD0EB
:1052AC00012B7BD1F02368E0AAF130000A2803D34C
:1052BC00AAF1610005287ED845F27855C2F20005A6
:1052CC00B5F900004FF05531013850FB01F1091AC6
:1052DC004A1002EBD1710144C1F346041BF80400DF
:1052EC00C9072BD100F00F000BF804000DF10200E0
:1052FC000021102205F008FF1BF8041041EA0010F1
:10530C0029E045F27850C2F2000001786FF05402A7
:10531C00013908BF2F214A43D2B2562A38BF01396E
:10532C00C9B247E044F2BB60C2F2000014F0E8F8E6
:10533C0045F27850C2F2000001213BE000F0F00091
:10534C000BF804000DF102000021102205F0DCFE28
:10535C001BF80410084329780BF80400481C2F296B
:10536C0008BF01206FF054014143C9B2562938BF20
:10537C000130C0B228801EE00F234FF0553752FB8E
:10538C0007F7BF1A7E1006EBD77717447F0807F094
:10539C007F071BF8076033430BF80730C9B20129AC
:1053AC0008BF2F226FF054015143C9B2562938BFA0
:1053BC00013AD1B201804FF672724FF0000C69467F
:1053CC00C0F201020023002407E000BF06F807C06A
:1053DC000133102B04F1020433D01BF803600127B6
:1053EC0006F00F0000F13005392D88BF00F13705AC
:1053FC00CD55013F781C4FEA1616F1D1D8F80000B4
:10540C004FF0FF3650FA84F79519B8196D780136BC
:10541C00012E4570F8D1D8F80070601CC4B257FA50
:10542C0080F0461E16F8010F0028FBD1002700BFA4
:10543C00022FCBD0C85DF055002807F10107F7D13A
:10544C00C6E7BAF1000F19D0D8F808004FF697321A
:10545C004FF0FF31C0F20102571843187F78013129
:10546C0014295F70F8D10120A9F8000045F278509A
:10547C00C2F2000000880130A9F8020001B0BDE8BA
:10548C00F08F70472DE9F0438BB0DFF82082D8F80D
:10549C000000416E03A88847864DDFF814922878E7
:1054AC00D9F8044002280FD174B1002000240EF06A
:1054BC001BFDD8F80010D9F80400496888477E48CD
:1054CC000121C9F8044001700120287000200690C9
:1054DC007A48806818B18047D9F804400990002CAC
:1054EC0066D10FF08DFE002855D00FF089FE0128F3
:1054FC0051D00FF085FE05284DD00FF081FE0C2801
:10550C0049D00FF07DFE0A2845D00FF079FE0D280A
:10551C0041D00FF075FE0B283DD00FF071FE0E2818
:10552C0039D00FF06DFE172835D00FF069FE192811
:10553C0031D00FF065FE1A282DD00FF061FE1B281C
:10554C0029D00FF05DFE1C2825D00FF059FE142831
:10555C0021D00FF055FE15281DD00FF051FE1E283E
:10556C0019D00FF04DFE202815D00FF049FE1F2842
:10557C0011D00FF045FE24280DD00FF041FE23284A
:10558C0009D00FF03DFE122805D00FF039FE13287C
:10559C0018BF17F0B1FED8F8000018B917F0ACFE20
:1055AC00D8F80000464C016A204688474548E0611F
:1055BC0017F05EFA444F97F8530014F0B5FB05460C
:1055CC0097F9420013F060F9411C03D03F4940EABF
:1055DC00E07048833D4C0022D5E900016260628096
:1055EC002A89237B667B013A43F080035143237362
:1055FC0006F0F0034FF47A7600EB51000133B0FB68
:10560C00F6F06373208418F039F9D0B9A8893049C1
:10561C00B6FBF0F00870C0B22E49B6FBF0F0087083
:10562C0097F85300022802D1A820022105E012F0BD
:10563C00BBFE032805D15C200521274A10702748A2
:10564C000170D9F80400F8B1002000250EF04CFCD4
:10565C0099F8000097F85320D8F8001082420CD12A
:10566C000E6D0221D9F804000023CDE9001503AA20
:10567C002146B0471C48046011E0D9F80400496881
:10568C0088470D48012101701548104A0C4B0168E0
:10569C00D8F8000004681348A047C9F8040097F82C
:1056AC00530089F800000BB0BDE8F0832C480020B3
:1056BC005C5400208F48002097550020B0F7010063
:1056CC009443002054F1008084380020C040002016
:1056DC00A0480020A84800209B5500209C55002085
:1056EC0054480020B0310020945200202DE9F04F96
:1056FC008DB004460020794D0F460B90CDE9090082
:10570C00002FA96800F0E7801646002A00F0E3801D
:10571C00387821FA00F0C00727D0304600219B468C
:10572C0018F085FA6E48C4E90176006880B109A8C2
:10573C0000900CA90BAA0AAB304607F075F80B9831
:10574C000B214FF6FF72502316F00EFEFF280CD0E3
:10575C0018F004F8634F06467878012802D830B167
:10576C00012068E0304618F0C4F90020B3E006F0E0
:10577C00CFFF5D480DF104092860484617F0E6FE9E
:10578C00DFF868A15B494A469AF801009AF8005084
:10579C000390574828300AF0C3FF574857494A46E8
:1057AC000AF0BEFF484617F021FEDFF85481554A37
:1057BC0019214B46029540460BF0E0F8524A08F18D
:1057CC001C001A214B460BF0D9F85048504918F0E0
:1057DC0046F95048504918F042F95048006810F406
:1057EC00402F06D04E4A07F128000421002316F062
:1057FC00F7FA9AF8020010B10D200BF083FC08F1B7
:10580C00400017F0E2FB08F1380017F0DEFB4549C9
:10581C00002007223876B8843862386181F860201D
:10582C000521C7E902104049F961387004200021B4
:10583C0016F02AFE78782E4941F820400130787015
:10584C00304618F056F9BBF1000F02D0DBF800001F
:10585C0008E00DF1040B35492022584618F014FAD3
:10586C004FF0FF30DBF80420BBF81010DBE90635F5
:10587C00002AB2FA82F608BF40F6C412206001205A
:10588C007609618325636076294826764FF4FA768B
:10589C006261C4E90362C4E90700C4E90903DBF8E7
:1058AC000C0000B12062DBF8140000B16062DBF880
:1058BC00080000B1E06104F13800C82118F0E4F8E8
:1058CC0004F15000002114F073FC1A4904F1B800E3
:1058DC0018F0C5F820460DB0BDE8F08FCC2108407B
:1058EC0074540020F44C0020110000E09CFD0100D9
:1058FC00C44D0020B9C90100B03F0020CD110100FA
:10590C00844E0020356A01002D570100603E0020B6
:10591C0011BE01001C3E002065C9010004000050AE
:10592C00C58201001039002055DE0000A0F80100EE
:10593C00FF5F00005FDB01002DE9F04389B02021FF
:10594C00EFF3118281F3118844F6EC784BF20002EC
:10595C00C2F20008C2F203024EF60850C8F8142036
:10596C0045F20002D8F82030CEF20000C0F200025E
:10597C00C8F81C20C8F834300360036840F20002F9
:10598C00C0F20002934214D0D8F82030D8F834700A
:10599C004AF2E5540025C0F2010400BF0E2D8EBF63
:1059AC0047F8254052F8256043F8256001353F2D16
:1059BC00F4D14268E94622F47F4202F1806202F19E
:1059CC00FD72426081760021C160D0F82C1221F06A
:1059DC004041C0F82C12D8F814004845009007D26A
:1059EC00BE2100BF01700098013048450090F9D3EA
:1059FC0045F26810C2F2000090F82810A1BB0121FA
:105A0C0080F8281017F052FF44F26440C2F20000F4
:105A1C00002181614DF6CB31C0F201014DF6D1323E
:105A2C004DF6DD334DF6D737C0F20102C0F201035B
:105A3C00C0F2010780E88E002021EFF3118281F380
:105A4C00118845F28C41C2F20001034643F8101F45
:105A5C004F6847614F683B604B6045F2605182F381
:105A6C001188C2F20001086045F22440C2F2000025
:105A7C00017A002904BF0121017208F0D5FE45F21C
:105A8C001420C2F2000090F8241051B9012180F8C2
:105A9C0024100021C26953185B605350083130291F
:105AAC00F8D145F22807C2F2000797F8380050B930
:105ABC00012087F838000020396A0A1852600A5011
:105ACC0008303028F8D145F2AE50C2F2000001780F
