:1000000000B0032055620A00D5560A00D5560A00F2
:10001000D5560A00D5560A00D5560A00D5560A000C
:10002000D5560A00D5560A00D5560A00D5560A00FC
:0C003000D5560A00D5560A0097EE0800CD
:100040006FC6FC5FB4FA4FA3F93F92F82F71D60048
:1000500001949FE4F9BE01F8BE01F8AD01F7AD00CF
:10006000F7AD00F757008300007F0004F2000000A6
:10007000AC0007F0000000CA0009D0000DFFFFFF30
:10008000FFFFF80688FB888EC8840002F4000F701A
:10009000000003F2000F50000005F1002F400000A7
:1000A00007F0004F20007FFFFFFFFFFFE0388DD8F3
:1000B00088CF8870000D9000AC0000000F7000CA5F
:1000C0000000001F5000E80000000005F0000000E4
:1000D0000005F00000000005F000000007CFFFC899
:1000E0001001DFFEFDFFD008FC15F006600CF305E3
:1000F000F000000CF505F0000006FE76F0000000B0
:100100008FFFF9400000027CFFFE40000005F4AFC5
:10011000F2000005F009F7010005F006F80C920561
:10012000F02DF40CFFEDFDFFA0004AEFFFC600002C
:100130000005F00000000005F00000000002700063
:1001400000009EE9000000DA0000AD44DA00009EE5
:1001500010001F4004F1004F400003F1001F301E4B
:100160009000002F3003F10AD0000000CB11BB0536
:10017000F300000001CFFC11E81AFE70000011002E
:10018000AD0AD45F600000005F32F3007E00000023
:100190001F704F0004F000000BC004F0003F00008F
:1001A00006F2002F2006E00002F70000BB23E60065
:1001B00000CC000001AFE80000019DFD70000000D0
:1001C0000DF97BF70000004F9000DC0000005F702D
:1001D00000EC0000001FE11BF400000005FDEF50E3
:1001E00000000004EFF3000000008FC7FD2008307E
:1001F00007F9005FE21F800EE00005FEAF300FD070
:1002000000004FFC000DF700005EFF3004FFEBBE66
:10021000FE6FF20029DFFC7003B000000000000058
:1002200000BEBEADADAD57000ED0007F6000EF0048
:1002300003FA0008F5000BF2000EF0000FE0000FCB
:10024000D0001FC0000FD0000FE0000EF0000BF236
:100250000008F50003FA0000EE00007F60000ED0F9
:100260002FB000AF3003FA000EF0009F4006F700F9
:100270003FA002FB001FC000FD001FC002FB003FAB
:10028000A006F7009F400EF003FA00AF302FB00039
:1002900000099000260990625FCBBCF502BFFB20ED
:1002A00007EFFE706F6996F6010990100006600076
:1002B00000000000000000FA00000000FA0000004A
:1002C00000FA00000000FA0000AFFFFFFFF46AAA86
:1002D000FDAAA20000FA00000000FA00000000FAE7
:1002E000000006A10FF80AF705F209C00D709BBBCC
:1002F000B5DFFFF807B20FF80AE40000000750006E
:100300000004F7000000AF1000000FC0000004F66A
:10031000000000AF1000000FC0000005F600000054
:10032000AF1000000FB0000005F6000000AF100095
:10033000000FB0000005F6000000BF1000001FB065
:10034000000006F5000000BF0000001FB00000061E
:10035000F500000000018DFEA3000002EFFDEFF6A6
:100360000000DFA1006FF2006FC000007FB00BF44F
:10037000000000FF00EF1000000CF30FF000000081
:10038000AF50FF0000000AF50EF1000000CF30BFB3
:100390004000000FF006FC000007FB000DFA1006FD
:1003A000FF20002EFFDFFF60000018DFEA3000DFD3
:1003B000FFF4ACCEF4000BF4000BF4000BF4000BD4
:1003C000F4000BF4000BF4000BF4000BF4000BF43E
:1003D000000BF4000BF4000BF4006CEFEA3002DFCA
:1003E000FEDFFF505F910009FE001000000EF200DA
:1003F000000000DF200000002FD00000001DF500ED
:1004000000001CF80000001DF80000001DF80000AE
:10041000002EF70000002EF60000002EFFCCCCCC02
:1004200094FFFFFFFFFC4FFFFFFFFF03CCCCCCEF9F
:10043000D00000002FE20000001DF40000000CF6C8
:1004400000000009FA00000000FFFE8000000668BE
:10045000EFC000000000DF5000000008F8010000BD
:1004600000AF77E610006FF27FFFEEFFF60028CFB7
:10047000FEA30000000007FB00000000003FD100C9
:1004800000000001EF30000000000CF6000000004A
:10049000008FA00000000004FD00010000002EF20B
:1004A000006F700000CF50006F700009F900006FFE
:1004B00070003FFFFFFFFFFFF22CCCCCCCDFECC184
:1004C000000000007F7000000000007F700000004E
:1004D00000007F700000FFFFFFFF001FFCCCCCC0BE
:1004E00002FB000000004F9000000006F700000033
:1004F000007FECCA720009FFFFFFF7000000028FC7
:10050000F4000000008FA000000004FC02000000C6
:100510006FA3F820005FF44FFFEDFFF90017CEFE48
:10052000B50000005BEFEB60000BFFECDFB000AF4D
:10053000B200011004FC000000000AF400000000FA
:100540000EF06CFFC6000FFAFDBCFFA00FFF6000AD
:100550002EF50FFA000005FA0CF7000003FC07FA6D
:10056000000005FA01EF60002EF4004FFEBCFF8092
:1005700000019DFEB4006FFFFFFFFFF26FECCCCCDB
:10058000DFF16F8000006FA06F800000DF3014206B
:100590000004FC000000000CF5000000003FD0004B
:1005A000000000AF6000000002FE0000000009F83B
:1005B000000000001FF1000000007F90000000001C
:1005C000EF2000000006FB0000000006CEFEB50094
:1005D00000CFFCACFFB006FC10002DF409F60000C3
:1005E00008F706FB00001DF400AFEA9AFF80005EEA
:1005F000FFFFFE4006FE61027FF40EF3000005FCE3
:100600001FE0000000FF0FF1000003FE0AFB1000D6
:100610002DF801DFFCBCFFC00007CEFEB600003A9B
:10062000EFEB400006FFDACFF8001FF40001CF50D7
:100630005F9000002FD06F9000003FF12FF4000179
:10064000CFF408FFDABFECF5004BEFD91AF4000045
:1006500000000DF3000000001FF000000000AF904C
:100660000040001AFE1006FEDDFFE30003ADFEC7EA
:1006700010000AE40FF807B20000000000000000BC
:10068000000007B20FF80AE40AE40FF807B200000E
:10069000000000000000000006A10FF80AF705F2B4
:1006A00009C00D7000000000630000029FF4000507
:1006B000CFFB4028EFE81000AFC40000008FFA40E5
:1006C0000000029EFD710000006CFFB200000039C6
:1006D000F40000000001AFFFFFFFF46AAAAAAAA27B
:1006E000000000000000000000000000000000AF5B
:1006F000FFFFFFF46AAAAAAAA26300000000AFD617
:1007000010000017DFF930000003AFFC60000001AB
:100710006EF4000006CFF30039FFD6005DFFA300A2
:1007200000AD710000002000000000007CEFDA3016
:1007300002EFFCCEFF606F800008FE001000000F8B
:10074000F100000001FE00000000BF60000001CFCA
:1007500080000000CF800000004FC0000000037444
:10076000000000000000000000029300000000AF45
:10077000C000000006F8000000000049DFFEC9309C
:10078000000000002DFD97679EFB10000005FD3066
:100790000000004DE300003FA00058850394BE1008
:1007A00000EC002DFFFFD7F51DB006F301EF71043B
:1007B000DFF505F20BD008F700001EF500E70E90FC
:1007C0000CF0000008F500CA0F700EE0000006F5FE
:1007D00000AB0F700DF0000006F500BA0E900AF3A2
:1007E00000000BF500D80BD003FD10007FF703F4D9
:1007F00006F3007FFA9DF7FEAEC000EC0004CFFBCD
:10080000405EFA10003FA00000000000000000055C
:10081000FD3000000000000000003DFD9768AF7053
:1008200000000000005ADFFDB71000000000000EBD
:10083000F80000000000005FFE000000000000DF84
:10084000AF600000000004FA1FD0000000000BF3AE
:100850000AF5000000002FC003FC00000000AF50AC
:1008600000CF30000001FE00005FB0000008F7007C
:10087000000EF200000EFFFFFFFFF900006FDAAA82
:10088000AAAAFF1000DF300000009F8005FB0000D7
:1008900000002FE00CF4000000000AF6EFFFFFFE5E
:1008A000B5000EFBAAABDFFA00EF1000004FF30E0D
:1008B000F1000000AF60EF1000000CF40EF100003A
:1008C00029FC00EFFFFFFFFD100EFBAAAACEFD10D2
:1008D000EF10000008FB0EF10000000FF0EF100019
:1008E0000000FF1EF10000008FE0EFBAAAABEFF4AA
:1008F0000EFFFFFFFD9200000017CEFEB5000005C1
:10090000EFFFDEFFC1005FF920003BF502FF600052
:1009100000003008F900000000000DF300000000A6
:10092000000FF000000000000FF000000000000DBC
:10093000F3000000000008F9000000000002FF6062
:1009400000000030005FFA30003BF50005EFFFDFEC
:10095000FFC1000017CEFEB500EFFFFFFDA40000B1
:10096000EFDCCCDFFFB100EF1000005DFD00EF1009
:10097000000000CFA0EF100000001FF1EF100000FA
:10098000000AF6EF1000000008F8EF100000000762
:10099000F8EF100000000AF6EF100000001FF1EF62
:1009A00010000000BFA0EF1000005DFD10EFCCCCE8
:1009B000DFFFB100EFFFFFFDA40000EFFFFFFFFF2F
:1009C0000EFDCCCCCCC0EF100000000EF1000000FA
:1009D00000EF100000000EF100000000EFFFFFFF2D
:1009E000F20EFCCCCCCC10EF100000000EF1000099
:1009F0000000EF100000000EF100000000EFCCCC72
:100A0000CCCC3EFFFFFFFFF4EFFFFFFFFFEFDCCC9E
:100A1000CCCCEF10000000EF10000000EF10000041
:100A200000EF10000000EFCCCCCCC1EFFFFFFFF2D5
:100A3000EF10000000EF10000000EF10000000EFCA
:100A400010000000EF10000000EF10000000000098
:100A500016CEFEB6000005EFFFDEFFD2005FF920E4
:100A60000029F702FF600000002008F900000000E4
:100A7000000DF300000000000FF000000000110F57
:100A8000F000000003FB0DF300000003FB08FA0078
:100A9000000003FB01FF60000003FB005FFA300071
:100AA0002AFB0004EFFFDFFFE4000017CEFEB600D4
:100AB000EF10000000DF2EF10000000DF2EF10003B
:100AC0000000DF2EF10000000DF2EF10000000DF4B
:100AD0002EF10000000DF2EFFFFFFFFFFF2EFDCC17
:100AE000CCCCCFF2EF10000000DF2EF10000000DA3
:100AF000F2EF10000000DF2EF10000000DF2EF1009
:100B0000000000DF2EF10000000DF2EF1EF1EF1EDD
:100B1000F1EF1EF1EF1EF1EF1EF1EF1EF1EF1EF1EE
:100B200000CFFFFFF4009CCCCFF40000000BF400DA
:100B300000000BF40000000BF40000000BF40000B8
:100B4000000BF40000000BF40000000BF4000000A8
:100B50000BF40100000DF20CC2006FE00AFFDEFF93
:100B600060006CFFC500EF1000000BF80EF10000F4
:100B70000BF800EF10000BF9000EF1000BFA00006B
:100B8000EF100AFB00000EF10AFB000000EF19FF56
:100B90003000000EFAFEFE100000EFFD1AFC00000F
:100BA0000EFD100CFA0000EF20001EF7000EF10001
:100BB000002FF400EF1000004FF20EF10000006F64
:100BC000D1EF10000000EF10000000EF1000000057
:100BD000EF10000000EF10000000EF10000000EF29
:100BE00010000000EF10000000EF10000000EF10F8
:100BF000000000EF10000000EF10000000EFCCCC70
:100C0000CCC8EFFFFFFFFBEF10000000000EFEF965
:100C10000000000008FFEFF300000002FFFEFFC02D
:100C2000000000BFFFEF9F6000004FAFFEF1EE102D
:100C3000000DF1FFEF06F90007F70EFEF00CF301CF
:100C4000FD00EFEF003FC0AF400EFEF0009F9FA001
:100C500000EFEF0001EFF1000EFEF00006F70000DC
:100C6000EFEF00000400000EFEF00000000000EFB7
:100C7000EF20000000DF2EFD1000000DF2EFFB0062
:100C80000000DF2EFEF800000DF2EF4FF50000DF50
:100C90002EF15FF3000DF2EF108FE100DF2EF10077
:100CA000BFC00DF2EF1001DF90DF2EF10002FF6DEB
:100CB000F2EF100005FFFF2EF1000008FFF2EF1029
:100CC00000000BFF2EF10000000DF2000016CEFE1A
:100CD000B500000004EFFEDFFFD300005FF9200045
:100CE0003BFF2001FF600000009FD008F9000000DA
:100CF000000DF50DF30000000006FA0FF0000000F3
:100D00000003FC0FF00000000003FC0DF3000000E6
:100D10000006FA08F9000000000DF501FF60000070
:100D2000009FD0005FFA20003BFF200004EFFFDFB0
:100D3000FFD300000017CEFEB50000EFFFFFEC7000
:100D400000EFDCCDEFFD20EF100002BFC0EF100080
:100D5000000EF3EF1000000AF5EF1000000BF5EFA6
:100D60001000002FF2EF100015DFA0EFFFFFFFFBD8
:100D700000EFCCCCB94000EF1000000000EF1000F5
:100D8000000000EF1000000000EF10000000000065
:100D90000016CEFEB5000000004EFFFDFFFD300046
:100DA000005FFA20004BFF20001FF600000009FD45
:100DB0000008FA000000000DF500DF300000000020
:100DC0006FA00FF00000000003FC00FF0000000017
:100DD000003FC00DF20000000006FA009F900000E6
:100DE0000000CF5002FF500000008FD00006FF929D
:100DF0000003BFF3000006FFFECEFFE30000000289
:100E00008DFFFD600000000000009FE2001A10004E
:100E10000000008FFBBFF300000000004BEFB300A9
:100E2000EFFFFFEC7000EFDCCDEFFD20EF100002D4
:100E3000BFC0EF1000000EF3EF1000000AF5EF1036
:100E400000000BF5EF1000002FF2EF100015DFA0EF
:100E5000EFFFFFFFFA00EFCCCBDF9000EF10001E9A
:100E6000F200EF100004FD00EF1000009F90EF1063
:100E700000000DF40006CEFEC71000CFFDCDFFD060
:100E800008FC200017600CF3000000000CF40000C8
:100E9000000006FF71000000007FFFD94000000144
:100EA0006AEFFE4000000003AFF20000000008F708
:100EB0000100000007F80DB300003EF40AFFFCCE6D
:100EC000FF900039DFFEA400EFFFFFFFFFFABCCC6C
:100ED000DFFCCCC800002FD0000000002FD00000A5
:100EE00000002FD0000000002FD0000000002FD005
:100EF000000000002FD0000000002FD000000000F4
:100F00002FD0000000002FD0000000002FD00000E4
:100F100000002FD0000000002FD000000FF00000D4
:100F2000002FD0FF00000002FD0FF00000002FD0C6
:100F3000FF00000002FD0FF00000002FD0FF0000B6
:100F40000002FD0FF00000002FD0FF00000002FCA7
:100F50000FF00000002FC0DF30000005FA09F90093
:100F60000000CF602FF80001AFE0005FFFDEFFE37D
:100F7000000029DFFD81000CF5000000000EF105E6
:100F8000FC000000006F9000EF30000000DF200048
:100F90007FA0000004FB00001FF200000BF4000023
:100FA00009F800002FD0000002FF00009F60000041
:100FB00000BF6001FE000000004FD007F8000000F5
:100FC000000DF40EF10000000006FB5FA000000021
:100FD0000000EFEF3000000000008FFC0000000078
:100FE00000001FF50000003FD0000000CF600000AF
:100FF00002FB0DF3000001FFC0000008F508F80037
:101000000007FFF100000DF103FD00000CF8F700F0
:10101000003FB000DF30002FB2FC00008F50008F87
:1010200080007F50CF1000DF00003FD000DF007F46
:101030007003FB00000DF302FA002FC008F500005A
:1010400008F808F5000CF20EF0000003FD0DF000AA
:1010500007F73FB0000000DF6FA00001FC8F5000D9
:1010600000008FFF400000CFEF000000003FFF00B6
:1010700000006FFB000000000DF90000001FF500EC
:10108000001FF3000000BF7005FE100006FB00000B
:101090009FA0002FE100000DF600DF40000003FFDD
:1010A00029F8000000007FEFC0000000000BFF20C7
:1010B000000000001EFF7000000000BF9FF3000052
:1010C0000007FC05FD0000003FF200AFA00000DFBC
:1010D00050000DF5000AFA000003FF205FD0000069
:1010E000007FC00CF500000004FB002FE1000000B1
:1010F000DF20008F9000007F700000EF30002FD0C5
:10110000000005FC000BF40000000BF605FA0000DF
:1011100000002FE1EF10000000008FEF70000000D2
:101120000000DFD0000000000008F7000000000011
:10113000008F70000000000008F7000000000000B1
:101140008F70000000000008F70000000FFFFFFF95
:10115000FFFF40CCCCCCCCEFF2000000001DF6002D
:101160000000000BF90000000008FC000000000572
:10117000FE1000000003FF3000000001EF500000EF
:101180000000CF80000000009FB0000000006FD181
:10119000000000004FF2000000001EFECCCCCCCCC2
:1011A00072FFFFFFFFFFF9EFFF4EFAA2EF000EF014
:1011B00000EF000EF000EF000EF000EF000EF00068
:1011C000EF000EF000EF000EF000EF000EF000EF69
:1011D000000EFAA2EFFF405700000006F5000000E5
:1011E0001FA0000000CF00000006F50000001FA0B7
:1011F000000000BF00000006F50000001FB0000066
:1012000000BF00000006F50000001FB0000000BF96
:1012100010000005F60000000FB0000000AF100045
:101220000005F60000000FB0000000AF1000000540
:10123000F6AFFF96ACF9005F9005F9005F9005F9F5
:10124000005F9005F9005F9005F9005F9005F900D7
:101250005F9005F9005F9005F9005F96ACF9AFFF6C
:101260009000007500000005FF1000000CBF70002A
:10127000003F49D000009D03F40001F700CB0007B8
:10128000F1006F200DA0000F804F300009E000003A
:10129000000000FFFFFFFFFF3333333333277000BD
:1012A00005FC10002DD105BEFEB4007FFDBDFF5032
:1012B0002A10007FE00000000DF20001111CF3086D
:1012C000EFFFFFF39FC6444CF3FF00000BF3EF105A
:1012D000003FF38FD769FEF306CFFC59F33FB00010
:1012E0000000003FB0000000003FB0000000003FE1
:1012F000B0000000003FB19EFD92003FDEFDCEFE3B
:10130000403FFE30008FE13FF300000AF73FD0007E
:101310000004FA3FB0000002FC3FD0000004FA3F96
:10132000F300000AF73FFE30008FE13FCEFDCEFF15
:10133000403FA19EFE92000003AEFE910007FFDC3D
:10134000EFE204FE40007F60CF400000100FE0009D
:10135000000002FC000000000FE000000000CF4091
:1013600000001004FE40007F6007FFDCEFE2000396
:10137000AEFE91000000000001FD0000000001FD34
:101380000000000001FD0000000001FD0004BEFCA3
:1013900061FD008FFDCEFBFD05FE40007FFD0CF5DD
:1013A000000009FD0FE0000003FD2FC0000001FD5B
:1013B0000FE0000003FD0CF4000008FD05FE200016
:1013C0005FFD008FFBADFBFD0004BEFD70FD000462
:1013D000BEFC6000008FFCBEFC0005FD2000AF805D
:1013E0000CF300000DF00FE1111119F42FFFFFFFB6
:1013F000FFF60FE4444444410CF30000000004FEF7
:1014000040002B20007FFECDFF600003AEFEA30056
:101410000006DFD6006FEAC600CF200000EF000014
:10142000BFFFFFF17AFFAAA000EF000000EF00006D
:1014300000EF000000EF000000EF000000EF0000F0
:1014400000EF000000EF000000EF00000004BEFD10
:1014500070DF008FFDCEFCEF05FE40005FFF0CF457
:10146000000006FF0FE0000000FF2FC0000000FF9B
:101470000FE0000001FF0CF5000007FF05FE400033
:101480005FFF008FFDBEFCFF0004BEFD71FE00008B
:10149000000003FB01A400002DF504FFFCBDFFA02C
:1014A0000028CEFEB5003FB000000003FB000000A6
:1014B000003FB000000003FB000000003FB19EFEB3
:1014C0009103FDEFDDFFD03FFD2002DF73FF200021
:1014D00004FC3FD000001FD3FB000000FE3FB00023
:1014E000000FE3FB000000FE3FB000000FE3FB0035
:1014F0000000FE3FB000000FE03EB07FF00840006B
:10150000003FB03FB03FB03FB03FB03FB03FB03F13
:10151000B03FB03FB03FB00002EC00005FF1000010
:1015200075000000000001FD00001FD00001FD005B
:10153000001FD00001FD00001FD00001FD00001FB2
:10154000D00001FD00001FD00001FD00001FD000F1
:1015500005FA07DBFF407EFD50003FB000000000B1
:101560003FB0000000003FB0000000003FB00000AE
:1015700000003FB00002DF503FB0002EF6003FB049
:1015800003EF60003FB03FF600003FB4FF90000063
:101590003FEFFFF200003FFF59FD00003FF400CF96
:1015A00090003FB0001EF6003FB00004FF203FB0A7
:1015B00000007FD03FB3FB3FB3FB3FB3FB3FB3FB28
:1015C0003FB3FB3FB3FB3FB3FB3FB03FA3AEFD7068
:1015D00005CFFC5003FDFEBCFFAAFEBCFF703FFB25
:1015E0001003FFF90004FF13FF100009FE00000BB9
:1015F000F43FD000006FB000008F63FB000005F9DE
:10160000000008F63FB000005F9000008F63FB0011
:101610000005F9000008F63FB000005F9000008F61
:1016200063FB000005F9000008F63FB000005F9082
:1016300000008F603FA2AEFE9103FDFFCBEFD03FD5
:10164000FC1001CF73FF200004FC3FD000001FD32B
:10165000FB000000FE3FB000000FE3FB000000FEB7
:101660003FB000000FE3FB000000FE3FB000000FA2
:10167000E00003AEFD9100007FFDCEFE3005FE4090
:10168000007FE10CF4000009F70FE0000003FB2FDE
:10169000C0000001FD0FE0000003FB0CF400000996
:1016A000F704FE40007FE1007FFDCEFE300003AE78
:1016B000FD91003FA29EFD92003FCEFBADFE403F5C
:1016C000FD20006FE13FF3000009F73FD000000468
:1016D000FA3FB0000002FC3FD0000004FA3FF300E4
:1016E000000AF73FFE30008FE13FDEFDCEFF403FB6
:1016F000B19EFE92003FB0000000003FB00000002D
:10170000003FB0000000003FB0000000000004BE39
:10171000FC60FD008FFDCEFAFD05FE40007FFD0C54
:10172000F4000009FD0FE0000003FD2FC0000001E0
:10173000FD0FE0000003FD0CF4000009FD05FE4074
:10174000007FFD008FFDCEFBFD0004BEFC61FD00AF
:1017500000000001FD0000000001FD00000000018C
:10176000FD0000000001FD3FA19E83FCEFF73FFE5E
:101770004003FF40003FE00003FC00003FB00003D7
:10178000FB00003FB00003FB00003FB00000005C26
:10179000EFEA5009FFCBDFD01FE10002302FD0006D
:1017A00000000DFC63000002CFFFFB30000147BFCB
:1017B000F200000009F60930000BF55FFEBBEFC038
:1017C00005AEFEC7000078000000EF000000EF004B
:1017D00000BFFFFFF17AFFAAA000EF000000EF00BA
:1017E0000000EF000000EF000000EF000000EF003D
:1017F0000000CF4000006FFBD70007DFD54FA000EF
:10180000003FB4FA000003FB4FA000003FB4FA0011
:101810000003FB4FA000003FB4FA000003FB4FB0F1
:1018200000005FB2FD000009FB0DF70005FFB04F9F
:10183000FDADFCFB003BEFD72FB00DF2000000EF39
:10184000006F9000005F9000FF00000BF20009F6AF
:101850000002FB00002FC0009F400000BF300FD0EF
:10186000000004FA06F70000000DF1DF1000000090
:101870007FBF9000000001FFF30000000009FC00A2
:101880000000BF100000EF000001FA5F700005FFCC
:10189000600006F50FD0000BFFB0000CE00AF2006C
:1018A0001FABF1001F9004F8006F55F7007F300068
:1018B000ED00CE00EC00DE00008F32F9009F23F82F
:1018C00000003F98F3003F88F200000DEED0000DBD
:1018D000DEC0000007FF700007FF70000001FF106E
:1018E0000002FF10002FE10000DF306FB000AF609A
:1018F00000AF706FA00000DF5FD1000003FFF300B6
:1019000000000BFB00000006FFF6000002FE2EF2B6
:101910000000DF403FD0009F80008FA05FC000002C
:10192000CF600DF2000000EF006F9000005F8000BC
:10193000EF00000BF20008F70002FB00001FD000D0
:101940009F400000AF400FD0000003FB06F60000F0
:10195000000DF2DF000000006FCF8000000000EFFC
:10196000F20000000008FB0000000000AF40000093
:1019700003003FC0000002FDBFF300000008EFC4F9
:10198000000000001FFFFFFFF80AAAAAAFF5000041
:10199000009F90000006FC0000003FE1000001DF16
:1019A0004000000BF70000007FB0000004FD1000B5
:1019B000001EFCAAAAA63FFFFFFFFB003CFA00EFB7
:1019C000C603FC0004FA0004FA0004FA0004FA005A
:1019D00005FA008EF600DFE20007F90004FA0004C1
:1019E000FA0004FA0004FA0004FA0002FD0000EF15
:1019F000C6003CFAEEEEEEEEEEEEEEEEEEEEEEEEC3
:101A0000EEEEEEEEEEEEEEAFC3006CFE0000CF3079
:101A100000AF4000AF4000AF4000AF40009F50001B
:101A20005FE8002EFD009F70009F4000AF4000AFB8
:101A30004000AF4000AF4000CF306CFE00AFC300AD
:101A400009EE6000D67FABFB26F3B9005EFF903154
:101A500000003200006DEA1007E53BC00E4000E4D4
:101A60001F0000B70F3000D508C208E0009FFC201F
:101A70000000100009A28FFC9FFD2DE50000000072
:101A80000000000000310000000000000015AEFD65
:101A90000000000000027CFFFFFF0000000049EF93
:101AA000FFFFFFFF000004BFFFFFFFFFFFFF00007D
:101AB0000FFFFFFFFFFFFFFF00000FFFFFFFFFFB18
:101AC00069FF00000FFFFFFE950008FF00000FFFF9
:101AD000C730000008FF00000FF80000000008FFFA
:101AE00000000FF80000000008FF00000FF80000E1
:101AF000000008FF00000FF80000000008FF0000D1
:101B00000FF80000017BBDFF00000FF800001EFF72
:101B1000FFFF00133FF800007FFFFFFF2BFFFFF8E0
:101B200000004FFFFFFCDFFFFFF8000006EFFFA102
:101B3000FFFFFFF70000000220007FFFFFD1000041
:101B400000000000028AA600000000000000C4039C
:101B5000FFFFFFFFFFFF404CFDCDFFEEEEEEEEFF7F
:101B6000DCDFFA8AFA00000000AFB8AFF403FA0035
:101B70000000009F404FF404FA000000009F504F07
:101B8000FFFFFA000000009FFFFFF747FD77777720
:101B900077DF847FF403FFFFFFFFFFFF404FF7472E
:101BA000FD77777777DF847FFFFFFA000000009FE3
:101BB000FFFFF404FA000000009F504FF403FA0006
:101BC0000000009F404FFA8AFA00000000AFB8AF53
:101BD000FDCDFFEEEEEEEEFFDCDFC403FFFFFFFF07
:101BE000FFFF404C00000000000000000000DFFF8D
:101BF000FA0CFFFFFFFFFFFDFFFFFD0EFFFFFFFFE2
:101C0000FFFFFFFFFD0EFFFFFFFFFFFFFFFFFD0ECA
:101C1000FFFFFFFFFFFFCFFFF90AFFFFFFFFFFFC02
:101C200000000000000000000000CFFFF90BFFFFE4
:101C3000FFFFFFFCFFFFFD0EFFFFFFFFFFFFFFFFAA
:101C4000FD0EFFFFFFFFFFFFFFFFFD0EFFFFFFFF8A
:101C5000FFFFCFFFFA0BFFFFFFFFFFFC00000000BC
:101C6000000000000000CFFFF90AFFFFFFFFFFFBAD
:101C7000FFFFFD0EFFFFFFFFFFFFFFFFFD0EFFFF5A
:101C8000FFFFFFFFFFFFFD0EFFFFFFFFFFFFDFFF77
:101C9000FA0CFFFFFFFFFFFD000000000000000046
:101CA000000000000000000000004E600000000086
:101CB00000000004FFF7000000000000004FFFFFDD
:101CC00000000000000004FFFFF60000000000001C
:101CD0004FFFFF6006E400000004FFFFF6007FFFF7
:101CE0004000004FFFFF6000FFFFF40004FFFFF61D
:101CF00000006FFFFF404FFFFF60000006FFFFF88E
:101D0000FFFFF5000000006FFFFFFFFF5000000025
:101D10000005FFFFFFF50000000000005FFFFF501F
:101D200000000000000005FFF500000000000000BA
:101D3000005E500000000000067000000018408F98
:101D4000FB000001DFF4FFFFB0001DFFFB7FFFFB86
:101D500001DFFFF408FFFFBDFFFF40008FFFFFFF23
:101D6000F4000008FFFFFF40000001EFFFFC00004F
:101D7000001DFFFFFFB00001DFFFFFFFFB001DFFA5
:101D8000FF48FFFFB0CFFFF4008FFFF9DFFF4000F7
:101D900008FFF92EF40000008FC0001000000001C1
:101DA000000000000026500000000000000000DFDE
:101DB000F30000000000006400DFF4007200000087
:101DC0000BFE10DFF409FE300000AFFF50DFF40E11
:101DD000FFE10005FFFB00DFF405FFFB000DFFB096
:101DE00000DFF4005FFF404FFF2000DFF4000BFF37
:101DF000A08FFB0000DFF40004FFF0BFF70000DF5E
:101E0000F40001FFF1BFF60000DFF40000FFF2BFB5
:101E1000F700008DC10000FFF18FFA000000000004
:101E200004FFF04FFF10000000000AFFB00EFFB0EB
:101E3000000000004FFF5006FFF900000004FFFC07
:101E40000000AFFFD510039FFFF200000BFFFFFF64
:101E5000FFFFFF400000008FFFFFFFFFD2000000E8
:101E600000029EFFFFB600000000000000121000FC
:101E70000000000000000002200000000000000040
:101E800006FFFF6000000000000008FFFF80000068
:101E9000000001002BFFFFB2001000008F87FFFF42
:101EA000FFFF79F80004FFFFFFFFFFFFFFFF400C7B
:101EB000FFFFFFFFFFFFFFFFC02FFFFFFFC77CFFFC
:101EC000FFFFF207FFFFFA0000AFFFFF70006FFF98
:101ED000F100001FFFF600007FFFE000000EFFF79B
:101EE00000006FFFF100001FFFF60007FFFFFA0080
:101EF00000AFFFFF702FFFFFFFC77CFFFFFFF20C5B
:101F0000FFFFFFFFFFFFFFFFC004FFFFFFFFFFFF1B
:101F1000FFFF40008F97FFFFFFFF78F800000100F0
:101F20001BFFFFB100100000000008FFFF80000051
:101F30000000000006FFFF6000000000000000023B
:101F40002000000000000000000046100067600054
:101F500000000000009FFE200FFF000000000001B5
:101F6000BFFFFF51FFF10000000002DFFC8FFF8F79
:101F7000FF1000000004FFFA004EFFFFF100000018
:101F800007FFF708D32DFFFF1000000AFFF51BFF26
:101F9000F50BFFF400001CFFE22DFFFFF708FFF632
:101FA000003EFFC14EFFFFFFFA05FFF90EFF906FE5
:101FB000FFFFFFFFFC13EFF64F709FFFFFFFFFFFD8
:101FC000FE31CC00003FFFFFFFFFFFFFFB000000E2
:101FD00004FFFFFFFFFFFFFFC00000004FFFFF8077
:101FE00001EFFFFC00000004FFFFF6000EFFFFC042
:101FF0000000004FFFFF6000EFFFFC00000004FF47
:10200000FFF6000EFFFFC00000002FFFFF4000CFD3
:10201000FFFA0000000000000000000000000000C7
:102020000000000056650000000000000007FFFFF0
:102030007000000000000008FFFF800000000000AA
:102040000008FFFF8000000000000008FFFF800084
:10205000000000000008FFFF8000000000000008F2
:10206000FFFF8000000000000008FFFF800000006C
:102070000007EEEFFFFFFEEE70000005FFFFFFFF21
:10208000FFFF500000006FFFFFFFFFF500000000A2
:1020900005FFFFFFFF5000000000005FFFFFF5009D
:1020A000000000000005FFFF500000007AAAAA917E
:1020B0004FF419AAAAA7FFFFFFFD2332DFFFFFFF9E
:1020C000FFFFFFFFF99FFFFFFFFFFFFFFFFFFFFF86
:1020D000FFFFFFFFFFFFFFFFFFFFFB0F48FFFFFFBB
:1020E000FFFFFFFFFFEFEFFF144444444444444428
:1020F000444100003DFFFFFFFFFFF9000000001E0C
:10210000FFFFFFFFFFFFF80000000AFF98888888A4
:1021100088DFF3000005FFA00000000002FFD000F0
:1021200001EFE1000000000007FF8000AFF50000B4
:10213000000000000DFF205FFA000000000000001A
:102140003FFC0DFF9888700000038888DFF5FFFFD3
:10215000FFFF500000CFFFFFFF7FFFFFFFFC0000ED
:102160005FFFFFFFF8FFFFFFFFFFFFFFFFFFFFFF26
:102170008FFFFFFFFFFFFFFFFFFFFFF8FFFFFFFFE6
:10218000FFFFFFFFFFFFFF8EFFFFFFFFFFFFFFFFD0
:10219000FFFFF65EFFFFFFFFFFFFFFFFFFFB0000FB
:1021A0000000000110000007BA0000017CFFFFB52D
:1021B000000BFF00007FFFFFFFFFE50BFF000AFFA2
:1021C000FFDBBEFFFF9AFF00AFFFA200003BFFFF57
:1021D000FF05FFF6000000005FFFFF0DFF6000003D
:1021E00007BA9CFFFF3FFC0000000CFFFFFFFF7FD2
:1021F000F60000000BFFFFFFFF00000000000000E2
:1022000000000000000000000000000000000000CE
:1022100000000000000000FFFFFFFFB00000006FA3
:10222000F6FFFFFFFFC0000000CFF3FFFFC9AA7059
:10223000000007FFD0FFFFF5000000006FFF50FF18
:10224000FFFFB300003BFFF900FFA9FFFFEBBDFF5D
:10225000FFA000FFB05DFFFFFFFFF70000FFB00031
:102260005BFFFFC8100000AB700000011000000011
:1022700000000000000100000002EE0000002EFF40
:10228000000002EFFF47777EFFFFFFFFFFFFFFFF2A
:10229000FFFFFFFFFFFFFFFFFFFFFFFFFFFFFFFF4E
:1022A000FFFFFFFFFFFFFFFFDFFFFFFFFF00000952
:1022B000FFFF0000009FFF00000009FF000000007A
:1022C0008900000000890000000000009FF000006D
:1022D0000000009FFF00000000009FFFF00000DFF3
:1022E000FFFFFFFF00730FFFFFFFFFF01FF4FFFF73
:1022F000FFFFFF005FCFFFFFFFFFF000FFFFFFFFCB
:10230000FFFF004FDFFFFFFFFFF01FF5FFFFFFFFA5
:10231000FF0085047777EFFFF00000000002EFFF79
:10232000000000000002EFF0000000000002EE00DC
:10233000000000000001100000000000000000008C
:10234000007B2000000000000010000009FE3000AB
:1023500000000002EE00000009FF2000000002EF74
:10236000F000087008FD00000002EFFF0000EFB071
:102370000CF6047777EFFFF00002DF803FD0FFFF1D
:10238000FFFFFF007401FF10CF3FFFFFFFFFF01FB3
:10239000F408F707F6FFFFFFFFFF005FC03FA04F05
:1023A0009FFFFFFFFFF000FF02FB04F9FFFFFFFFAD
:1023B000FF005FC03FA05F9FFFFFFFFFF01FF4081B
:1023C000F707F6DFFFFFFFFF007402FF10CF3000BA
:1023D000009FFFF00002EF803FD00000009FFF0051
:1023E00000EFB00CF6000000009FF000087008FD40
:1023F00000000000008900000008FF20000000002D
:102400000000000009FF3000000000000000000094
:102410007B2000005EFFFFFFFFFFFFFFFFE5EFFFF8
:10242000FFFFFFFFFFFFFFFEFFF638FFFFFFFFFF8D
:10243000FFFFFF6000AFFFFFFFFFFFFFFF30007FE8
:10244000FFFFFBEFFFFFFF8000CFFFFF903EFFFF8E
:10245000FFFA7CFFFFF90003EFFFFFFFFCFFFF9097
:1024600000003EFFFFFF906FF900000008FFFFF93A
:1024700000069000000008FFFFB000000000000010
:1024800008FFFF8000000000000008FFFFC88888E8
:10249000888888888CFFEFFFFFFFFFFFFFFFFFFEAC
:1024A0005EFFFFFFFFFFFFFFFFE5000000420000AF
:1024B00000000003FF10000000000AFF60000000A1
:1024C000001FFFC0000000008FFFF400000001FFAC
:1024D000FFFC0000000AFFFFFF6000004FFFFFFF4E
:1024E000F20001EFFFFFFFFC000BFFFFFFFFFF709B
:1024F0003FFFFFFFFFFFF1AFFFFFFFFFFFF6EFFF23
:10250000FFFFFFFFFAFFA6FFFFFFFFFBEF91FFFFBB
:10251000FFFFFABFE09FFFFFFFF75FF907CFFFFF65
:10252000F20CFFB309FFFF8001DFFFFFFFFA00009D
:1025300009FFFFFF700000001577400000476000B2
:102540000000161BFF1000002DFBBFF100002EFF46
:10255000CBFF10003EFFFCBFF1004FFFFFCBFF1091
:102560005FFFFFFCBFF16FFFFFFFCBFF9FFFFFFF90
:10257000FCBFFFFFFFFFFFCBFFFFFFFFFFFCBFFF25
:10258000FFFFFFFFCBFF4EFFFFFFFCBFF12DFFFF63
:10259000FFCBFF101CFFFFFCBFF1000CFFFFCBFFC8
:1025A00010000BFFFCBFF100000AFFCAFF10000083
:1025B00008F70000000000000006500000000000C6
:1025C0000000BFFD30000000000000FFFFFA100017
:1025D00000000000FFFFFFF70000000000FFFFFF0A
:1025E000FFD400000000FFFFFFFFFFB2000000FF6C
:1025F000FFFFFFFFFF800000FFFFFFFFFFFFFE5018
:1026000000FFFFFFFFFFFFFFFB20FFFFFFFFFFFFBC
:10261000FFFFF2FFFFFFFFFFFFFFFFF6FFFFFFFFE0
:10262000FFFFFFFFF2FFFFFFFFFFFFFFFB20FFFFAA
:10263000FFFFFFFFFD5000FFFFFFFFFFFF800000D7
:10264000FFFFFFFFFFA2000000FFFFFFFFD400001D
:102650000000FFFFFFF70000000000FFFFFA10007E
:1026600000000000BFFD3000000000000006500028
:10267000000000000000067777300006777730BF53
:10268000FFFFF300BFFFFFF3FFFFFFF700FFFFFFB8
:10269000F7FFFFFFF800FFFFFFF8FFFFFFF800FF65
:1026A000FFFFF8FFFFFFF800FFFFFFF8FFFFFFF855
:1026B00000FFFFFFF8FFFFFFF800FFFFFFF8FFFF3D
:1026C000FFF800FFFFFFF8FFFFFFF800FFFFFFF834
:1026D000FFFFFFF800FFFFFFF8FFFFFFF800FFFF1D
:1026E000FFF8FFFFFFF800FFFFFFF8FFFFFFF80014
:1026F000FFFFFFF8FFFFFFF800FFFFFFF8FFFFFFFE
:10270000F800FFFFFFF8EFFFFFF600EFFFFFF66FA7
:10271000FFFFC1006FFFFFC10000000000000000CC
:1027200000057777777777777730BFFFFFFFFFFF79
:10273000FFFFF3FFFFFFFFFFFFFFFFF7FFFFFFFFBD
:10274000FFFFFFFFF8FFFFFFFFFFFFFFFFF8FFFFA7
:10275000FFFFFFFFFFFFF8FFFFFFFFFFFFFFFFF897
:10276000FFFFFFFFFFFFFFFFF8FFFFFFFFFFFFFF80
:10277000FFF8FFFFFFFFFFFFFFFFF8FFFFFFFFFF77
:10278000FFFFFFF8FFFFFFFFFFFFFFFFF8FFFFFF67
:10279000FFFFFFFFFFF8FFFFFFFFFFFFFFFFF8FF57
:1027A000FFFFFFFFFFFFFFF8FFFFFFFFFFFFFFFF40
:1027B000F8EFFFFFFFFFFFFFFFF66FFFFFFFFFFFD9
:1027C000FFFFC10000000000000000000520000025
:1027D000005766FF4000000CFF8FFF600000DFF82D
:1027E000FFFF70000DFF8FFFFF8000DFF8FFFFFF8E
:1027F000900DFF8FFFFFFFB0DFF8FFFFFFFFCDFF62
:102800008FFFFFFFFFFFF8FFFFFFFFFFFF8FFFFFBF
:10281000FFFFFFF8FFFFFFFF5DFF8FFFFFFF40DFC0
:10282000F8FFFFFE300DFF8FFFFE2000DFF8FFFDF9
:1028300020000DFF7FFD100000DFF3FB1000000CF7
:10284000FF00000000000000000000000210000077
:1028500000000000000AFF400000000000000AFF26
:10286000FF30000000000008FFFFFE200000000015
:1028700007FFFFFFFE1000000006FFFFFFFFFD1037
:10288000000005FFFFFFFFFFFC000004FFFFFFFF4C
:10289000FFFFFB0003FFFFFFFFFFFFFFFA00DFFF6B
:1028A000FFFFFFFFFFFFF50EFFFFFFFFFFFFFFFF33
:1028B000605FFFFFFFFFFFFFFFC0000000000000A0
:1028C000000000009FFFFFFFFFFFFFFFE20FFFFF81
:1028D000FFFFFFFFFFFF70FFFFFFFFFFFFFFFFF89E
:1028E0000FFFFFFFFFFFFFFFFF70BFFFFFFFFFFFB7
:1028F000FFFFF300000000000000000000000000E7
:102900000000000000005F800000005FFF4000004A
:102910005FFFE200005FFFE200005FFFE300005F97
:10292000FFE300005FFFE300005FFFE300000DFF37
:10293000F50000004FFFE30000004FFFE300000040
:102940004FFFE30000005FFFE30000005FFFE300D4
:1029500000005FFFE20000005FFF400000005F80BA
:10296000000000000000000000000002DB0000008A
:1029700000CFFC00000009FFFC00000009FFFC0084
:10298000000009FFFC00000009FFFC00000009FF37
:10299000FC00000009FFFC0000000DFFF60000092C
:1029A000FFFC000009FFFC000009FFFC000009FF1C
:1029B000FC000009FFFC000009FFFC000000CFFC48
:1029C00000000002DB00000000000000000000002A
:1029D00000000255000000000000000FFF80000012
:1029E000000000002FFFA00000000000002FFFA04B
:1029F0000000000000002FFFA00000000000002FDA
:102A0000FFA00000000000002FFFA00000003777AB
:102A1000778FFFC7777760EFFFFFFFFFFFFFFFF6BE
:102A2000FFFFFFFFFFFFFFFFF8DFFFFFFFFFFFFFDD
:102A3000FFF51444445FFFB44444300000002FFF0E
:102A4000A00000000000002FFFA000000000000018
:102A50002FFFA00000000000002FFFA000000000DA
:102A600000001FFF900000000000000DFF6000004C
:102A700000000000002100000000499999999999EF
:102A8000999980FFFFFFFFFFFFFFFFF7FFFFFFFFA9
:102A9000FFFFFFFFF7CFFFFFFFFFFFFFFFF4022263
:102AA0002222222222221000000006ADFFEC830029
:102AB00000000000008FFFFFEFFFFC40000000035C
:102AC000EFFF920005DFFF90000004FFFF5002526D
:102AD00001CFFFB00004FFFF80007FF901EFFFB0DE
:102AE00001EFFFF00008FFF708FFFF80AFFFFB02D8
:102AF00025FFFFE03FFFFF2FFFFFA07FFFFFFF024B
:102B0000FFFFF79FFFFB05FFFFFFC03FFFFF21EF28
:102B1000FFF00CFFFFF507FFFF8003FFFF801AFFA8
:102B2000E501EFFFB00004FFFF50001001CFFFB040
:102B3000000003DFFF920005DFFF90000000007F30
:102B4000FFFFEFFFFC40000000000005ADEFEC834D
:102B50000000000000600000000000000000000015
:102B6000000BFC10000000000000000000000CFF43
:102B7000E400000000000000000000009FFF70045F
:102B80008CEFED94000000000005FFFBEFFFFEFF5F
:102B9000FFE600000000002DFFFFC40004CFFFB1DE
:102BA0000000000000BFFF60031009FFFE200000CE
:102BB000000007FFF94FFA00CFFFE100000BB00063
:102BC0004EFFEFFFA04FFFFB00006FFD3001CFFF76
:102BD000FFF10FFFFF5000BFFFF60008FFFFF30EED
:102BE000FFFFA0006FFFFF00005FFFF20FFFFF502D
:102BF000000CFFFF400002DFFE8FFFFA000001EF34
:102C0000FFC000000AFFFFFFD10000002EFFF90007
:102C100000006FFFFD1000000001CFFFC4000003A3
:102C2000EFFD200000000006EFFFFEE3001BFFF5B4
:102C30000000000000059DEFEC20008FFF900000D9
:102C4000000000000000000004EFFB000000000096
:102C50000000000000002CFA00000000000000004E
:102C60000000000060000000000007A3000000005A
:102C70000000000000008FFE1000000000000000B7
:102C80000002FFFF9000000000000000000AFFFFAC
:102C9000F300000000000000004FFFFFFB000000F9
:102CA0000000000000DFFFFFFF50000000000000F8
:102CB00006FFFFFFFFD00000000000000EFFA2246F
:102CC000FFF70000000000008FFF9001FFFF1000E1
:102CD00000000002FFFFA002FFFF90000000000ABA
:102CE000FFFFB003FFFFF2000000003FFFFFC00442
:102CF000FFFFFB00000000CFFFFFD005FFFFFF40FC
:102D0000000006FFFFFFF99CFFFFFFD000000EFF51
:102D1000FFFFF52BFFFFFFF700008FFFFFFF900184
:102D2000FFFFFFFE1001FFFFFFFF8000FFFFFFFF1F
:102D3000900AFFFFFFFFF41AFFFFFFFFF20FFFFFF4
:102D4000FFFFFFFFFFFFFFFFF70BFFFFFFFFFFFF8F
:102D5000FFFFFFFFF4016888888888888888888852
:102D600040000000000000000430000000000000EF
:102D700000000FF500000000000000000FFF50EF02
:102D8000FFF6000001CFFFFFF5FFFFFF50000CFF33
:102D9000FFFFFFFFFFFFF500BFFFFFFFF72223DF6D
:102DA000F809FFF72FFF8000002EB07FFF900FF88B
:102DB0000000000306FFFA000760000000004FFF5C
:102DC000B000000000000003FFFD030007600000EA
:102DD000002EFFE13F900FF8002223DFFE22EFF7E5
:102DE0002FFF80FFFFFFF300CFFFFFFFF8FFFFFF84
:102DF00050000CFFFFFFFEEFFFF6000001CFFFFFCA
:102E0000F4000000000000000FFF40000000000080
:102E100000000FF50000000000000000043000007A
:102E200000000094000000000000000CFF500000B3
:102E300000000000CFFFF500000000000CFFFFFFC6
:102E40005000000000CFFFAEFFF50000000CFFF9BE
:102E500002EFFF500000CFFF90002EFFF5000CFFA7
:102E6000F9000002EFFF50AFFF900000002EFFF2CC
:102E70007FF90000000002EFE10670000000000092
:102E800029200670000000000029207FF9000000C2
:102E90000003EFE19FFF900000003EFFF20BFFF9FF
:102EA000000003EFFF5000BFFF90003EFFF5000061
:102EB0000BFFF903EFFF50000000BFFFAEFFF5006E
:102EC0000000000BFFFFFF500000000000BFFFF5F7
:102ED0000000000000000BFF500000000000000098
:102EE000940000000000009C1000000000000000A2
:102EF0000000000AFFD100588888888881000000FF
:102F0000AFFFFD20EFFFFFFFFFF600000AFFFFFF0E
:102F1000E24EFFFFFFFFF600008FFCFFCFFD000039
:102F200000001FF600007FC2FF67FC000000001FCA
:102F3000F600000301FF6030000000001FF60000F3
:102F40000001FF6000000000001FF600000001FF0C
:102F50006000000000001FF600000001FF6000009C
:102F60000003D71FF63D700001FF600000000AFF5C
:102F70007FF9EFF00001FFB888888832EFFFFFFF8C
:102F8000600001FFFFFFFFFFF22EFFFFF6000000D1
:102F9000DFFFFFFFFFE202EFFF6000000000000024
:102FA000000000002EF600000000000000000000FD
:102FB00000013000005EFFFFFF900000000000EF06
:102FC000FFFFFFF90000000000FFFFFFFFFFB888D0
:102FD000888860FFFFFFFFFFFFFFFFFFFBFFFFFF92
:102FE000FFFFFFFFFFFFFFFFFFFFFFFFFFFFFFFFF1
:102FF000FFFFFFFFFFFFFFFFFFFFFFFFFFFFFFFFE1
:10300000FFFFFFFFFFFFFFFFFFFFFFFFFFFFFFFFD0
:10301000FFFFFFFFFFFFFFFFFFFFFFFFFFFFFFFFC0
:10302000FFFFFFFFFFFFFFFFFFFFFFFFFFFFFFFFB0
:10303000FFFFFFFFFFFFFFEFFFFFFFFFFFFFFFFFB0
:10304000FE5EFFFFFFFFFFFFFFFFE5000000000344
:103050001000000000000000006FD1000000000020
:10306000000006FFFD100000000000006FFFFFD110
:10307000000000000006FFFFFFFD10000000006FD1
:10308000FFFFFFFFD100000006FFFFFFFFFFFD1065
:1030900000000DFFFFFFFFFFFF60000000111BFF9E
:1030A000FF511100000000000BFFFF400000000076
:1030B00000000BFFFF400000000000000BFFFF407E
:1030C0000000000000000BFFFF40000000000000B7
:1030D0000BFFFF400000007AAAAA2BFFFF42AAAA1A
:1030E000A7FFFFFF82677608FFFFFFFFFFFFFB7769
:1030F00077BFFFFFFFFFFFFFFFFFFFFFFFFFFFFFA8
:10310000FFFFFFFFFFFB0F48FFFFFFFFFFFFFFFF7A
:10311000EFEFFF144444444444444444410000005D
:10312000000000000462000000000000000001FF39
:10313000FEB5000000000000007FFFFFF00000006F
:103140000000000EFFFFFF00000000000005FFFF71
:10315000FFD0000000000000BFFFFFFB00000000E8
:10316000000006FFFFFF8000000000000005FFFFD9
:10317000F40000000000000005FFFE000000000059
:10318000000000BFFF90000000000000004FFFF2B1
:10319000000000000000002EFFF8000000013000D9
:1031A000001DFFFD00000029FF70003EFFFF300002
:1031B00004BFFFFF407FFFFF500000EFFFFFFEEF67
:1031C000FFFF5000000CFFFFFFFFFFFE400000006C
:1031D0008FFFFFFFFFFB1000000004FFFFFFFFD584
:1031E00000000000001FFFFFEA4000000000000098
:1031F000576420000000000000000025400000008F
:1032000000000009FFFE30000004AA507FFFFFE02D
:1032100000008FFFF5EFD37FF60008FFFFB0FF80BF
:103220000FF7008FFFFB00DFE7AFF508FFFFB000EF
:103230005FFFFFFD9FFFFB000005EFFFFFFFFFB0FB
:10324000000000015FFFFFFB00000000000BFFFF1C
:10325000F200000000259FFFFFFD10000009FFFFA6
:10326000FFFFFFD100007FFFFFFB6FFFFD1000EFAE
:10327000D37FF505FFFFD100FF800FF7005FFFFD53
:1032800010DFE7AFF50005FFFFD15FFFFFC00000D3
:103290004FFFF405EFFB1000000166200001000065
:1032A0000000000000000008BBBBBB509000000005
:1032B0000FFFFFFF81FB0000000FFFFFFF81FFB04A
:1032C00000000FFFFFFF81FFF88CC90FFFFFFF8099
:1032D0000000FFFC0FFFFFFFD54443FFFC0FFFFF83
:1032E000FFFFFFFAFFFC0FFFFFFFFFFFFAFFFC0FDE
:1032F000FFFFFFFFFFFAFFFC0FFFFFFFFFFFFAFFDB
:10330000FC0FFFFFFFFFFFFAFFFC0FFFFFFFFFFFB8
:10331000FAFFFC0FFFFFFFFFFFFAFFFC0FFFFFFFAD
:10332000FFFFFAFFFC0FFFFFFFFFFFFAFFFC0FFF9D
:10333000FFFFFFFFFAFFFE0BFFFFFFFFFFF7FFFF9F
:1033400091000000000000FFFFFFFFFFFF80000072
:10335000FFFFFFFFFFFF70000058888888888710F4
:103360000000067777777777600000BFFFFFFFFFE9
:10337000FFFD1000FFFFFFFFFFFFFFC100FF9000F8
:10338000000001DFFC10FF8000000000BFFFC0FF55
:103390008000000000BFFFF3FF8000000000BFFFBF
:1033A000F4FF8000000000BFFFF4FFD88888888801
:1033B000EFFFF4FFFFFFFFFFFFFFFFF4FFFFFFFF43
:1033C000FFFFFFFFF4FFFFFFE402CFFFFFF4FFFF6B
:1033D000FF60002FFFFFF4FFFFFF40000FFFFFF42F
:1033E000FFFFFFA0006FFFFFF4FFFFFFFC8AFFFF5E
:1033F000FFF4EFFFFFFFFFFFFFFFF36FFFFFFFFF94
:10340000FFFFFFA00000000000000000000000001F
:10341000000000000000EFFFFFFFFFFFFFFFF6FFCF
:10342000FFFFFFFFFFFFFFF8ACCCCCCCCCCCCCCC6B
:10343000C4000000000000000000000000000000C8
:10344000000000000000000000000000CDDDDDDD18
:10345000DDDDDDDDD5FFFFFFFFFFFFFFFFF8DFFF55
:10346000FFFFFFFFFFFFF50000000000000000006D
:10347000000000000000000000000000000000004C
:103480000000ACCCCCCCCCCCCCCCC4FFFFFFFFFF3D
:10349000FFFFFFF8EFFFFFFFFFFFFFFFF600000059
:1034A0000000000000005EFFFFFFFFFFFFFFFFE5E1
:1034B000EFFFFFFFFFFFFFFFFFFEFFFFFFFFFFFF2D
:1034C000FFFFFFFF7FFFFFFFFFFFFFFFFFF703EFA0
:1034D000FFFFFFFFFFFFFE30E31BFFFFFFFFFFFFCC
:1034E000B13EFF707FFFFFFFFFF707FFFFFB13DF1A
:1034F000FFFFFD31BFFFFFFFE40AFFFFA04EFFFF0C
:10350000FFFFFF805DD508FFFFFFFFFFFFFC2002EC
:10351000CFFFFFFFFFFFFFFFFDDFFFFFFFFFFFFF0D
:10352000FFFFFFFFFFFFFFFFEFFFFFFFFFFFFFFFBB
:10353000FFFE5EFFFFFFFFFFFFFFFFE500144444B7
:1035400041000000BFFFFFFA000000EFFFFFF8009E
:103550000000FFFFFFF3000002FFFFFFD0000004A8
:10356000FFFFFF80000006FFFFFF40000008FFFF95
:10357000FFFFFFF50AFFFFFFFFFFF40DFFFFFFFF57
:10358000FFB00FFFFFFFFFFF200BFFFFFFFFF90062
:103590000000008FFFE100000000CFFF600000008E
:1035A00000FFFD0000000003FFF40000000007FF23
:1035B000A0000000000BFF20000000000FF800003A
:1035C0000000002FE00000000000094000000000A3
:1035D00000067100000000001444BFFE44430000D8
:1035E00000EFFFF94FFFFF400000FFFFF83FFFFF34
:1035F000500000FFFFFFFFFFFF500000FFFFFFA88C
:103600008888200000FFFFF6000000000000FFFF98
:10361000F0CFFFFF51E200FFFFF0EFFFFF51FE2070
:10362000FFFFF0EFFFFF51FFE2FFFFF0EFFFFF5062
:10363000BBB7FFFFF0EFFFFF800000FFFFF0EFFFE1
:10364000FFFFFFFAFFFFF0EFFFFFFFFFFAFFFFF0C2
:10365000EFFFFFFFFFFAFFFFF0EFFFFFFFFFFACFE3
:10366000FFF0EFFFFFFFFFFA000000EFFFFFFFFF9B
:10367000FA000000EFFFFFFFFFFA000000EFFFFF7E
:10368000FFFFFA0000007BBBBBBBBBB40000000027
:10369000310000000000000005FD000000000000F7
:1036A0000009FF10000000000007EFFFFB200000F2
:1036B0000000AFFFFFFFF300000008FFFFFFFFFE69
:1036C0001000001FFFFFFFFFFF8000005FFFFFFFF4
:1036D000FFFFD000007FFFFFFFFFFFF000008FFF24
:1036E000FFFFFFFFF000009FFFFFFFFFFFF1000063
:1036F000DFFFFFFFFFFFF50001FFFFFFFFFFFFF907
:103700000009FFFFFFFFFFFFFF105FFFFFFFFFFF4D
:10371000FFFFD0EFFFFFFFFFFFFFFFF69FFFFFFF61
:10372000FFFFFFFFE30000000000000000000000BA
:1037300000AFFFF20000000000003FFFA00000000B
:103740000000000275000000005EFFFFFFFFFFFFAA
:10375000FFFFFFFB0EFFFFFFFFFFFFFFFFFFFFF677
:10376000FFC88FA8AF88BF88FB88FF8FF800F404DC
:10377000F005E00E500FF8FF800F404F006F00F68D
:1037800000FF8FFFFFFFFFFFFFFFFFFFFFF8FFFFBF
:10379000946F648F44BB44FFFF8FFFF602F205F085
:1037A00008800EFFF8FFFF946F648F44BB44FFFF57
:1037B0008FFFFFFFFFFFFFFFFFFFFFF8FF800F40BE
:1037C00000000000F600FF8FF800F4000000000E7B
:1037D000500FF8FFC88FA888888888FB88FF8EFF65
:1037E000FFFFFFFFFFFFFFFFFFF65EFFFFFFFFFF93
:1037F000FFFFFFFFFB00000000000000000000567C
:103800000000000000000000017EFFA0000000009A
:103810000000018FFFFFF0000000000002AFFFFF7B
:10382000FFA00000000004BFFFFFFFFF300000000A
:1038300005CFFFFFFFFFFB00000006DFFFFFFFFFDC
:10384000FFF4000018EFFFFFFFFFFFFFD00005FFB0
:10385000FFFFFFFFFFFFFF50000EFFFFFFFFFFFF17
:10386000FFFE00000DFFFFFFFFFFFFFFF70000025C
:10387000ACCCCCCDFFFFFFF000000000000004FF47
:10388000FFFF8000000000000004FFFFFF100000A9
:103890000000000004FFFFF9000000000000000429
:1038A000FFFFF20000000000000004FFFFB0000076
:1038B000000000000004FFFF3000000000000000D6
:1038C00003FFFC000000000000000000EFF4000017
:1038D00000000000000000273000000000244444E5
:1038E000443030000FFFFFFFFC0F6000FFFFFFFFC1
:1038F000C0FF600FFFFFFFFC0FFF60FFFFFFFFC077
:10390000FFFF6FFFFFFFFC0BBBBBFFFFFFFFE100F3
:10391000000FFFFFFFFFFFFFFFFFFFFFFFFFFFFFA6
:10392000FFFFFFFFFFFFFFFFFFFFFFFFFFFFFFFFA7
:10393000FFFFFFFFFFFFFFFFFFFFFFFFFFFFFFFF97
:10394000FFFFFFFFFFFFFFFFFFFFFFFFFFFFFFFF87
:10395000FFFFFFFFFFFFFFFFFFFFFFFFFFFFFFFF77
:10396000FFFFFFFFFFFFFFFFFFFFFFFFFFFFFFFF67
:10397000FFFFFF8BBBBBBBBBBBBB800000000000DD
:1039800023432000000000000000038CFFFFFFFC29
:103990008300000000006DFFFFFFFFFFFFFD6000E0
:1039A0000003DFFFFFFFFEFFFFFFFFD30008FFFF65
:1039B000FB720000027BFFFFF80AFFFFA20000007D
:1039C000000002AFFFFABFFD300000000000000061
:1039D0003DFFB0BA1000059DEFED9500001AB00054
:1039E00000006DFFFFFFFFFD600000000001BFFF52
:1039F000FFFFFFFFFFB1000000008FFFFA53235AC3
:103A0000FFFF8000000000CFB100000001BFC00038
:103A10000000000040000000000040000000000026
:103A20000000019D9100000000000000000000AFB8
:103A3000FFA00000000000000000000FFFFF0000DA
:103A40000000000000000000CFFFC00000000000E8
:103A50000000000003EFE300000000000000000091
:103A600000001000000000000017888888888888FF
:103A700088888888600CFFFFFFFFFFFFFFFFFFFFC4
:103A8000FF80FFFFFFFFFFFFFFFFFFFFFFFC0FF8BF
:103A9000000000000000000000CFFDFF84FFFFFFDA
:103AA000FFFFFFFFFF0CFFFFF84FFFFFFFFFFFFFD0
:103AB000FFF05BFFFF84FFFFFFFFFFFFFFFF008FB3
:103AC000FFF84FFFFFFFFFFFFFFFF008FFFF84FF3E
:103AD000FFFFFFFFFFFFFF0CFFFFF80000000000EB
:103AE00000000000CFFFFFC8888888888888888801
:103AF0008EFD4EFFFFFFFFFFFFFFFFFFFFFFA04E0A
:103B0000FFFFFFFFFFFFFFFFFFFFC200178888884E
:103B100088888888888888600CFFFFFFFFFFFFFF88
:103B2000FFFFFFFF80FFFFFFFFFFFFFFFFFFFFFF24
:103B3000FC0FF8000000000000000000CFFDFF8136
:103B4000FFFFFFFFFFFF60000CFFFFF81FFFFFFFFD
:103B5000FFFFF600005BFFFF81FFFFFFFFFFFF603D
:103B600000008FFFF81FFFFFFFFFFFF6000008FFB8
:103B7000FF81FFFFFFFFFFFF60000CFFFFF8000069
:103B800000000000000000CFFFFFC88888888888F8
:103B90008888888EFD4EFFFFFFFFFFFFFFFFFFFFBE
:103BA000FFA04EFFFFFFFFFFFFFFFFFFFFC2001759
:103BB00088888888888888888888600CFFFFFFFF4D
:103BC000FFFFFFFFFFFFFF80FFFFFFFFFFFFFFFF84
:103BD000FFFFFFFC0FF8000000000000000000CF16
:103BE000FDFF81FFFFFFFFA00000000CFFFFF81F9B
:103BF000FFFFFFFA000000005BFFFF81FFFFFFFFF8
:103C0000A0000000008FFFF81FFFFFFFFA00000078
:103C10000008FFFF81FFFFFFFFA00000000CFFFF77
:103C2000F8000000000000000000CFFFFFC88888F7
:103C30008888888888888EFD4EFFFFFFFFFFFFFF82
:103C4000FFFFFFFFA04EFFFFFFFFFFFFFFFFFFFF94
:103C5000C2001788888888888888888888600CFFD0
:103C6000FFFFFFFFFFFFFFFFFFFF80FFFFFFFFFFE3
:103C7000FFFFFFFFFFFFFC0FF80000000000000047
:103C80000000CFFDFF81FFFFE000000000000CFFFF
:103C9000FFF81FFFFE0000000000005BFFFF81FF38
:103CA000FFE00000000000008FFFF81FFFFE000093
:103CB0000000000008FFFF81FFFFE000000000009F
:103CC0000CFFFFF8000000000000000000CFFFFF25
:103CD000C888888888888888888EFD4EFFFFFFFF07
:103CE000FFFFFFFFFFFFFFA04EFFFFFFFFFFFFFFF4
:103CF000FFFFFFC20017888888888888888888889E
:103D0000600CFFFFFFFFFFFFFFFFFFFFFF80FFFFD4
:103D1000FFFFFFFFFFFFFFFFFFFC0FF800000000A9
:103D20000000000000CFFDFF800000000000000048
:103D3000000CFFFFF80000000000000000005BFF27
:103D4000FF800000000000000000008FFFF800006E
:103D50000000000000000008FFFF800000000000DD
:103D60000000000CFFFFF800000000000000000051
:103D7000CFFFFFC888888888888888888EFD4EFF96
:103D8000FFFFFFFFFFFFFFFFFFFFA04EFFFFFFFF53
:103D9000FFFFFFFFFFFFC200000000000000001057
:103DA00000000000000000000000000CFE200000E9
:103DB000000000000000007CDFFF90000000000019
:103DC00000000009FBBFFF900000000000000000A1
:103DD0002F700AFC1000000000003200009E00005E
:103DE0000000000000002DFF9001F6000000000020
:103DF0001C3000CFFFF63CF333333333335FF9101D
:103E0000FFFFFFFFFFFFFFFFFFFFFFFFD0CFFFF62A
:103E10003334ED333333335FFA102DFF9000005FFE
:103E2000300000001C300000320000000DA0000037
:103E300000000000000000000006F30AFFF7000089
:103E400000000000000000CEAEFFF80000000000FF
:103E50000000000008BEFFF80000000000000000A5
:103E600000000AFFF7000000000000000000000151
:103E7000222000000000000034310000000003BFD9
:103E8000FFFFE70000006FFFFAFFFFB00004FFFF35
:103E9000F19FFFF8000DFFFFF10AFFFF103FFFFF4A
:103EA000F100BFFF607FFD8FF1660CFFA0AFF80748
:103EB000F16F13FFD0CFFF7071531EFFF0DFFFF7DC
:103EC0000001DFFFF0EFFFFF600CFFFFF0EFFFFFEF
:103ED0003007FFFFF0DFFFF300108FFFF0CFFF3060
:103EE000B16709FFF09FF60BF26E02FFD06FFFCFB4
:103EF000F2522EFFA01FFFFFF202EFFF5009FFFF5B
:103F0000F22EFFFE0000DFFFF4EFFFF500001AFFC6
:103F1000FFFFFF6000000027ABB950000000000267
:103F2000ABBBB700000057777CFFFFFF777772FFCE
:103F3000FFFFFFFFFFFFFFF7EFFFFFFFFFFFFFFFA9
:103F4000F6000000000000000000068888888888CD
:103F50008888200CFFFFFFFFFFFFFF400CFFFFFFE3
:103F6000FFFFFFFF400CFF77FF3BFE1EFF400CFFF3
:103F700066FF2AFE0EFF400CFF66FF2AFE0EFF4082
:103F80000CFF66FF2AFE0EFF400CFF66FF2AFE0EA6
:103F9000FF400CFF66FF2AFE0EFF400CFF66FF2A63
:103FA000FE0EFF400CFF66FF2AFE0EFF400CFF6670
:103FB000FF2AFE0EFF400CFF77FF3BFE1EFF400B6B
:103FC000FFFFFFFFFFFFFF3007FFFFFFFFFFFFFEC9
:103FD0000000578888888888720000000000000070
:103FE000000164000000000000000002DFF8000093
:103FF000000000000002EFFFF800000000000000D9
:104000007FFFFFF8000000000002908FFFFFF0002C
:1040100000000002EFB08FFFFC0000000002EFFF85
:10402000B08FFE1000000002EFFFFFB08E200000F6
:104030000002EFFFFFFFB01000000002EFFFFFFFE4
:10404000FE1000000002EFFFFFFFFE200000000254
:10405000EFFFFFFFFE2000000002EFFFFFFFFE204A
:1040600000000002EFFFFFFFFE2000000001EFFF55
:10407000FFFFFE20000000008FFFFFFFFE2000007A
:1040800000000AFFFFFFFE200000000000CFFFFF3E
:10409000FE2000000000000EFFFFFE2000000000D8
:1040A0000000FFFFFE200000000000000575310049
:1040B000000000000000000000006EFFFFFFFFFF97
:1040C000FFFFFB2000008FFFFFFFFFFFFFFFFFFB55
:1040D00000008FFFFFFFFFFFFFFFFFFFF0008FFFDC
:1040E000FFFF85FFFF58FFFFFF008FFFFFFFB004BA
:1040F000FF400BFFFFF08FFFFFFFFF40044004FF76
:10410000FFFF8FFFFFFFFFFF400004FFFFFFFFFFE8
:10411000FFFFFFFFFF1000EFFFFFFF8FFFFFFFFF1D
:10412000FF400004FFFFFFF08FFFFFFFFF40044050
:1041300004FFFFFF008FFFFFFFB004FF400BFFFFF6
:10414000F0008FFFFFFF85FFFF58FFFFFF00008F8C
:10415000FFFFFFFFFFFFFFFFFFF000008FFFFFFFEC
:10416000FFFFFFFFFFFB0000006EFFFFFFFFFFFFF1
:10417000FFFC200000288888887300002EFFFFFFC6
:10418000FFF6001DFFFFFFFFFFE01DF60E50D608F3
:10419000FF1DFF60E50D608FFCFFF60E50D608FF97
:1041A000FFFF60E50D608FFFFFFFFFFFFFFFFFFFD9
:1041B000FFFFFFFFFFFFFFFFFFFFFFFFFFFFFFFF0F
:1041C000FFFFFFFFFFFFFFFFFFFFFFFFFFFFFFFFFF
:1041D000FFFFFFFFFFFFFFFFFFFFFFFFFFFFFFFFEF
:1041E000FFFFFFFFFFFFFFFFFFFFFFFFFFFFFFFFDF
:1041F000FFFFFFFFFFFFFFFFFFFFFFFFFFFFFFFFCF
:10420000FFE9FFFFFFFFFFFFF807ABBBBBBBBBA690
:104210000000000000000000000007000000000097
:10422000000000000AF100000100000000000AFF89
:1042300010000AF30000000000FFF1000BFF500027
:104240000000000FFF100CFFF50000000000FFF160
:104250001DFFFFCBBBBBBBBBBFFF1CFFFFFFFFFFB7
:10426000FFFFFFFFF19FFFFFFFFFFFFFFFFFFF00CB
:104270009FFFF966666666666640008FFF50000025
:104280000000000000007FF50000000000000000BA
:10429000005C10000000000000009F68F68F57F4DB
:1042A0006F46F35F35F24F1000150AF77F40DA09C9
:1042B000ED909DD908DC808DC808C000000000E5A5
:1042C000004F0000000F3006E0000002F1008C00FB
:1042D00000FFFFFFFFFFF2055AE555DA5500009B8E
:1042E000000E6000000B9000F4000011D8113F3167
:1042F000008FFFFFFFFFF90245F6448E4420002F98
:104300001007C0000004F0009A0000005E000B904F
:1043100000000000072000000000E4000000000E84
:1043200040000002ADFFD92003FFBFCDFC00BF401D
:10433000E403300ED00E400000DF30E4000005FF43
:10434000AF50000004BFFFD70000001EBEFB0000FE
:1043500000E40BF400000E406F60B400E40BF31EA9
:10436000FDAFBEFA0017CFFFC60000000E400000F0
:104370000000E4000001BFC300002F4000C916E0A8
:10438000000C90002F000C5007E00004D000A702A2
:10439000F400003F000C60C9000000D704F17E006B
:1043A000000003DFE42F41AEB20000100C90C928DA
:1043B000E0000006E13F000D500002F404D000A729
:1043C0000000BA003E000C50006E1000D705E1005E
:1043D0001F500002BFC3000004CFE900000003FB30
:1043E00057F90000009F000AD0000008F100DB0030
:1043F00000002FB3CE200000006FFC200000004E14
:10440000EFB00010005FA06FB01F500EC0006FB77C
:10441000F202F800006FFB000FD00001DFB0008F48
:10442000E98AFE8FB0005CFFD91068000000000030
:104430000000DAD9D9C8C800006F400DC004F600EA
:104440009F100DD000FB002F8003F7004F6004F693
:10445000003F7002F8000FB000DD0008F1003F607F
:1044600000DC0006F43F7000BE0005F5001FA00050
:10447000CE0009F1007F3006F4005F5005F5006FB3
:104480004007F3009F100CE001FA005F500BE003BF
:10449000F700000E200360E2564DDFCE601DFF30B6
:1044A0004ECFBF6360E245000E20000001300000E7
:1044B000008F00000008F00001229F2220CFFFFFA4
:1044C000FF4455AF55510008F00000008F00000078
:1044D00008F0000001100EF10FF207E00B900E4003
:1044E00088887FFFFE05601FF20CD0000000570097
:1044F0000000EA000003F5000009F000000EA00033
:10450000004F4000009E000000E9000004F400009D
:1045100009E000000E9000004F400000AE000000D7
:10452000F9000005F300000AE000000F9000005FB2
:104530003000000004BEEB4000006FFBBFF600023D
:10454000FD1001DF200AF300003FA00EE000000E86
:10455000E00FB000000BF01FA000000AF10FB00048
:10456000000BF00EE000000EE009F300003F9002A7
:10457000FD1001DF20006FFBBFF6000004BEEB4022
:1045800000DFFFC8AAFC000FC000FC000FC000FC49
:10459000000FC000FC000FC000FC000FC000FC00BA
:1045A0000FC0018DFEC5004FFDACFF703C30002FE9
:1045B000F00000000BF20000000CF10000003FB022
:1045C000000002EE2000002EF3000002EF30000099
:1045D0002EF3000002EF3000002EFCAAAAA75FFF16
:1045E000FFFFFB5FFFFFFFF03AAAAACFC000000168
:1045F000EE1000000CF30000009F60000004FE615C
:10460000000005DFFF500000003EF200000007F64A
:1046100000000006F66910001DF29FFCBCFF80043C
:10462000AEFEB5000000004FB000000001ED00003C
:1046300000000CF2000000009F5000000005F9008F
:104640000000002FC003C50000DE1004F7000BF4CB
:104650000004F7004FFFFFFFFFFD3999999BFC987D
:1046600000000005F70000000005F700000000054D
:10467000F70002FFFFFFF004FCAAAAA005F5000066
:104680000007F300000009F10000000AFFFFC70067
:1046900007AAABFFC00000000BF600000003FA0001
:1046A000000003FA3C20000BF66FFDBBEFB0039D4A
:1046B000FFC70000018DFEC60004EFCAAD9001EEF9
:1046C000400000008F400000000EE000000000FBF2
:1046D0002AEFD7001FDFD99DFB01FFA0000AF50FCD
:1046E000F200003F90BF200003F804FA0000AF4042
:1046F00009FD99DFA00005CFFC60007FFFFFFFFFF1
:1047000007FBAAAAAFE07F400005F806F40000CF3F
:10471000100000003FA00000000AF300000001FCB0
:10472000000000008F500000000EE000000006F7BF
:1047300000000000DF100000004F900000000BF2AE
:10474000000000002AEFFC70003FFB89DFB00AF593
:104750000000BF30BF100008F404FC4226FD000634
:10476000FFFFFE1005FE856AFD10EE100007F82F12
:10477000A000001FB2FB000002FB0DF40000AF70B0
:104780003FFB89DFC00029DFFC6000006CFFC60032
:1047900000AFD98CFA003FB00007F607F500000F14
:1047A000D06F600002FF11FF5104DFF204EFFFFB46
:1047B0009F300057730AF100000000DF0000000086
:1047C0004FA00000003EF2008EBACFF50005BEFDFE
:1047D0009200000CD01FF2056000000000000000F5
:1047E0000005601FF20CD00CD01FF2056000000025
:1047F000000000000001100EF10FF207E00B900E18
:1048000040000000052000018EF4004BFF9306DFFE
:10481000C60000CF80000005CFE710000039FFB4CC
:104820000000016DF40000000420CFFFFFFF467779
:1048300077777200000000000000000012222222A0
:104840000CFFFFFFF44555555510620000000CFBAE
:1048500040000006CFE710000039FFA1000002DF92
:1048600040004BFF9118EFC6000CFA3000005100D9
:10487000000000029DFEC5004FFB9BFF804C200006
:104880002FF00000000CF00000001FC0000001CF5E
:104890003000001DF40000009F50000000AC00003C
:1048A000000000000000003300000001FF100000C5
:1048B00000CD00000000029DFFEC71000000009F91
:1048C000C75458DF6000000CE400000006F9000047
:1048D000AE103BEFB2BD3F6004F404FE97CFED068F
:1048E000E00AC00EE10008FD00E50E604F60000028
:1048F000FD00A91F406F300000CD008B2F306F30BE
:104900000000CD008B1F403F600000FD00990E604D
:104910000EE10008FE00E50AC004FE87BFAF9BE081
:1049200004F4003BFFB31BFC30009E1000000000AD
:104930000000000CE400000000000000009FC754CD
:104940006AE000000000039DFFDB50000000000053
:104950008FB000000000000EFF200000000006F6EF
:10496000F90000000000DD0BF0000000004F604F78
:10497000700000000BE000DD00000002F80006F50A
:104980000000009F10000EC000001FFFFFFFFF305F
:104990000007F8888888FA0000ED0000000BF1009D
:1049A0005F600000004F800CF100000000EE001F6F
:1049B000FFFFFEB4001FD8888AFF701FB000002FD1
:1049C000F01FB000000CF01FB000002FC01FD888EF
:1049D0008AFE301FFFFFFFFD401FB000014DF31F97
:1049E000B0000004F91FB0000002FB1FB000000877
:1049F000F81FD88889CFE11FFFFFFFD91000004AB8
:104A0000EFEB500001BFFCACFFB000BFB200019C57
:104A1000006FB0000000000DF10000000000FC007D
:104A2000000000001FA00000000000FC00000000CB
:104A3000000DF100000000006FB00000000000BF9A
:104A4000B20001AC1001BFFCBCFFB000004BEFEBAB
:104A500050001FFFFFFDA40001FEAAAACFFA001F0D
:104A6000B000002BFA01FB0000000CF41FB00000A6
:104A7000003FB1FB00000000EE1FB00000000DF190
:104A8000FB00000000EE1FB00000003FB1FB000083
:104A9000000CF41FB000002BFA01FEAAAACFFA0006
:104AA0001FFFFFFDA400001FFFFFFFFC01FEAAAADD
:104AB000AA701FB000000001FB000000001FB00042
:104AC000000001FD999999001FFFFFFFF001FB0015
:104AD0000000001FB000000001FB000000001FB03C
:104AE00000000001FEAAAAAAA01FFFFFFFFF001FEF
:104AF000FFFFFFFC1FEAAAAAA71FB00000001FB01B
:104B00000000001FB00000001FB00000001FFFFFEA
:104B1000FFF01FE99999901FB00000001FB000003E
:104B2000001FB00000001FB00000001FB000000018
:104B300000004ADFEB600001BFFCBBFFC100BFB259
:104B400000007D106FB0000000000DF100000000BB
:104B500000FC00000000001FA00000003930FC0035
:104B6000000006F50CF10000006F506FB000000669
:104B7000F500BFB200009F5000AFFDBCFFD20000A7
:104B80004AEFEB60001FB0000001FB1FB000000106
:104B9000FB1FB0000001FB1FB0000001FB1FB000B5
:104BA0000001FB1FEAAAAAAAFB1FFFFFFFFFFB1FD2
:104BB000B0000001FB1FB0000001FB1FB0000001AE
:104BC000FB1FB0000001FB1FB0000001FB1FB00085
:104BD0000001FB1FB1FB1FB1FB1FB1FB1FB1FB1F8E
:104BE000B1FB1FB1FB1FB000EFFFFF7008AAABF7CE
:104BF0000000005F70000005F70000005F7000001B
:104C000005F70000005F70000005F70000005F700E
:104C1000000006F60A7000CF30CFDADFC0008DFE4C
:104C200090001FB000001DE21FB00001DF301FB078
:104C3000000CF4001FB000BF50001FB00BF70000C5
:104C40001FB0AF8000001FB9FFB000001FFFBBF80E
:104C500000001FFB01DF50001FD0002FF2001FB02B
:104C60000004FD101FB000007FB01FB0000009F865
:104C70001FB00000001FB00000001FB00000001FA8
:104C8000B00000001FB00000001FB00000001FB007
:104C90000000001FB00000001FB00000001FB000A7
:104CA00000001FB00000001FEAAAAAA51FFFFFFF17
:104CB000F81FA0000000007F41FF300000001FF43B
:104CC0001FFC00000009FF41FFF5000002FEF41F79
:104CD000ADE00000BE8F41FA4F80004F67F41FA087
:104CE000AF200DD07F41FA02FA07F407F41FA008A5
:104CF000F5EA007F41FA000EFF2006F41FA0005FD6
:104D000080006F41FA0000600006F41FA000000060
:104D1000006F401FB0000001FB1FF8000001FB1FE7
:104D2000FF500001FB1FDFF20001FB1FB6FD000179
:104D3000FB1FB09FA001FB1FB00CF601FB1FB001D1
:104D4000EF31FB1FB0004FE2FB1FB00007FDFB1F60
:104D5000B00000BFFB1FB000001DFB1FB000000231
:104D6000FB00004ADFEB50000000AFFCBCFFC100BD
:104D700000BFB20001AFD0006FB00000009F800CF8
:104D8000F100000000FE00FC000000000AF21FA07D
:104D9000000000009F30FC000000000AF20CF1004F
:104DA000000000FE006FB00000009F8000BFB20056
:104DB00001AFD00000AFFCBCFFC10000004AEFEB28
:104DC0005000001FFFFFFC70001FEAAABEFD101F6D
:104DD000B000009F901FB000000EF01FB000000C4C
:104DE000F01FB000000EF01FB000009F901FEAAA55
:104DF000BEFD101FFFFFFC70001FB0000000001F71
:104E0000B0000000001FB0000000001FB000000054
:104E10000000004ADFEB50000000AFFCBCFFC10007
:104E200000BFB20001AFD0006FB00000009F800C47
:104E3000F100000000FE00FC000000000AF11FA0CD
:104E4000000000009F30FC000000000AF20DF1009D
:104E5000000000FE007FA00000008F8000CFA100B6
:104E6000009FD00001CFFBABFFD10000006CEFFD35
:104E70006000000000005FE634A7000000003CFF77
:104E8000FE40000000000243001FFFFFFC70001FF7
:104E9000EAAABEFD101FB000009F901FB000000ED8
:104EA000F01FB000000CF01FB000000EE01FB000BB
:104EB000009F901FD999AEFD101FFFFFFFA0001F9C
:104EC000B0001FD0001FB00006F9001FB00000BFE7
:104ED000401FB000001EE00029DFFD81003FFC9A6A
:104EE000DFC00BF400002300ED000000000CF30015
:104EF0000000005FFA610000003BFFFD7000000051
:104F000048EFB000000000BF4000000006F60B5064
:104F10000000CF31DFEB9AEF90006BEFEB5000EF2A
:104F2000FFFFFFFF89AAADFBAAA500009F2000009C
:104F30000009F2000000009F2000000009F20000BC
:104F400000009F2000000009F2000000009F2000E8
:104F5000000009F2000000009F2000000009F2009C
:104F60000000009F2000003F90000005F73F9000E8
:104F70000005F73F90000005F73F90000005F73F60
:104F800090000005F73F90000005F73F90000005F6
:104F9000F73F90000005F62FB0000007F50EF00077
:104FA000000BF208FA00007FB000CFFBBEFE20002D
:104FB00007CFFD81000CF200000002F906F80000A6
:104FC0000009F300EF0000001FC0008F6000007FA9
:104FD00050001FD00000EE00000AF40005F70000AA
:104FE00003FB000CF1000000DF202FA00000006F89
:104FF000809F300000000EE1FC0000000008FCF57E
:105000000000000001FFE00000000000AF80000091
:105010004F9000000CF3000002F80EE000002FF8A3
:10502000000008F309F300007FFD00000DD004F834
:105030000000CD8F20002F8000FE0002F83F80008E
:105040007F3000AF3007F30ED000DE00005F800C31
:10505000D008F202F900000FD02F8003F707F40008
:10506000000AF27F3000ED0CE0000005F7DD0000E3
:105070009F4F90000000FEF800003FDF400000005E
:10508000BFF300000EFF000000006FE0000009FA0F
:1050900000002FD000000BF306FA00007F7000BF65
:1050A0005002FC00001EE10DF2000005FB8F5000D5
:1050B00000009FFA000000003FF500000000DFFE46
:1050C00010000009F65FA000004FB00AF60001EEE4
:1050D0001001EF200BF500004FC06FA0000008F892
:1050E0000CF20000005F603FB000000ED0009F5047
:1050F0000008F30001EE0002FA000006F800BF10FD
:1051000000000CF14F700000003FBDD00000000017
:10511000AFF40000000002FC00000000001FB0001F
:1051200000000001FB00000000001FB000000000B4
:1051300001FB0000001FFFFFFFFFF10AAAAAAACF90
:10514000D000000001EF200000000CF5000000007E
:105150009F8000000005FB000000002FE100000020
:1051600000DF300000000AF6000000007FA0000011
:105170000004FD000000001EFBAAAAAAA23FFFFF38
:10518000FFFFF41FFFA1FC741FA001FA001FA00184
:10519000FA001FA001FA001FA001FA001FA001FAE7
:1051A000001FA001FA001FA001FA001FC741FFFA6B
:1051B000470000005F3000000F8000000AE00000A0
:1051C00005F3000000F9000000AE0000005F4000A1
:1051D000000F9000000AE0000004F4000000E90065
:1051E00000009E0000004F4000000EA0000009F0EB
:1051F000000004F5000000EAAFFF147CF100AF10DE
:105200000AF100AF100AF100AF100AF100AF100A66
:10521000F100AF100AF100AF100AF100AF100AF16F
:1052200047CF1AFFF1000AF2000001FE9000007D56
:105230005E00000D70F50004F109C000AB003F20D6
:105240001F5000D807E00006E0FFFFFFFFF2222218
:105250002222484000AF40007F40017CFFD6000979
:10526000FC99EF800130000DF000000009F2019E72
:10527000FFFFF30AF8433AF30FB00008F30FB00052
:105280000EF309F946DFF3008DFE87F35F5000004F
:105290000005F5000000005F5000000005F500006B
:1052A00000005F56DFEA2005FDFC9BFF305FF50044
:1052B00004FE05FA000008F45F6000004F75F60078
:1052C0000004F75FA000008F45FF50004FE05FCF64
:1052D000C9BFF305F46DFEA2000007DFEB3000CF7D
:1052E000D9AFF409F70002C30FD00000003F8000DF
:1052F00000003F800000000FC000000009F700021E
:10530000C300CFD9AFF30007DFEB30000000001F70
:10531000A000000001FA000000001FA00000000132
:10532000FA0008DFE82FA01DFD9BFDFA0AF8000235
:10533000EFA0FD000006FA3F8000002FA3F8000058
:1053400002FA0FC000005FA0AF60001EFA01DFB7D5
:105350009EDFA0008DFE91FA0008DFE910001DFB22
:105360008AFE200AF30003FB00FA000009F13FFF68
:10537000FFFFFF33FA333333300FD0000000009FBC
:105380009000091000DFDAAEF600007DFFC50000D6
:105390001AEE900AF98800FB00001F9000BFFFFF83
:1053A000558FC77201FA00001FA00001FA00001F0C
:1053B000A00001FA00001FA00001FA00001FA000D9
:1053C0000008DFE91EC01DFD9BFEEC0AF80001DFAE
:1053D000C0FD000004FC3F9000000FC3F800000077
:1053E000FC0FD000004FC0AF80001DFC01DFD9AF23
:1053F000DFC0008DFE91FB000000002F9027000011
:105400000BF407FFB9AEFA0004AEFFC6005F500010
:1054100000005F500000005F500000005F5000007F
:10542000005F56DFEA105FEFCADFD05FF4000AF6D4
:105430005F900002F95F600000FA5F500000FB5FC0
:10544000500000FB5F500000FB5F500000FB5F500E
:105450000000FB6F69F90400005F55F55F55F55FCB
:1054600055F55F55F55F55F50004F70007FA0000A4
:10547000400000000004F70004F70004F70004F700
:105480000004F70004F70004F70004F70004F70035
:1054900004F70004F70006F54B9FE15EFC305F5017
:1054A00000000005F5000000005F5000000005F559
:1054B000000000005F50001DF305F5002DF3005FB4
:1054C000502EF40005F52EF400005F9EFE0000054E
:1054D000FFFAFA00005FE30CF60005F6001EF30089
:1054E0005F50004FD005F500007FA05F55F55F5578
:1054F000F55F55F55F55F55F55F55F55F55F55F56A
:105500005F58DFE8008DFE8005FEFA9DFBDFA9DF16
:10551000B05FF2000DFF3000CF35F900007FA00032
:1055200006F65F600005F700004F75F500005F604C
:105530000004F75F500005F600004F75F500005FAE
:10554000600004F75F500005F600004F75F500009D
:105550005F600004F75F57DFEA105FEFA8CFD05F0E
:10556000F30009F65F900002F95F600000FA5F50F7
:105570000000FB5F500000FB5F500000FB5F50002D
:1055800000FB5F500000FB0007DFEA30000DFD9AD2
:10559000FF5009F70002EF10FD000006F73F800002
:1055A000002F93F8000002F90FD000006F609F8079
:1055B000002EF100CFD9AFF400007DFEA3005F46BE
:1055C000DFEA2005FDFA8AFF305FF40003FE05FAEA
:1055D000000008F45F6000004F75F6000004F75FFC
:1055E000A000009F45FF50004FE05FDFC9BFF305FB
:1055F000F56DFEA2005F5000000005F50000000000
:105600005F5000000005F5000000000008DFE81F03
:10561000A01DFD9BFCFA0AF70002EFA0FD000006AA
:10562000FA3F8000002FA3F8000002FA0FD000001C
:105630006FA0AF80002EFA01DFD9AFDFA0008DFE92
:1056400082FA000000001FA000000001FA00000024
:10565000001FA000000001FA5F46DB5FCFD95FF5B5
:10566000005FA0005F70005F50005F50005F50005F
:105670005F50005F5000018DFEC700CFB8ADD03F36
:1056800090000102FB0000000BFFB84000059CFFEA
:10569000C00000009F60500005F75FEA9AFE106CA2
:1056A000EFD92001FA00001FA000BFFFFF558FC7F0
:1056B0007201FA00001FA00001FA00001FA0000103
:1056C000FA00000FC00000BFA99001BEE97F4000B2
:1056D00003F87F400003F87F400003F87F40000399
:1056E000F87F400003F87F400004F86F600006F880
:1056F0002FC0001EF80AFD89EEF8008DFE92F80D0D
:10570000E000000DD006F600003F7000FC0000AF86
:1057100010009F3001F900002F9007F300000BF0FC
:105720000EC0000005F65F50000000EDBE00000056
:10573000007FF8000000001FF10000BE00000CF127
:105740000000AE05F40002FF60000F800F90008F94
:10575000EB0005F200AE000DB8F100BD0004F4034B
:10576000F52F701F70000EA09E00CC06F100009F68
:105770001E9006F2CC000003FAF3001FAF60000099
:105780000DFD0000BFF10000008F700005FB000060
:105790003FB0000CF207F7007F6000BF33FA000053
:1057A0001EDED0000004FF30000006FF5000003F66
:1057B000BCF20000DE12FC000AF4005F906F800073
:1057C0000AF50DE000000CD006F600003F7000FC6A
:1057D00000009F10009F3001FA00002F9006F30098
:1057E000000CF00DC0000005F63F60000000EDAEBB
:1057F000000000008FF8000000001FF20000000011
:105800000FB0000001007F4000001FAAFB00000055
:1058100019EEA10000002FFFFFFF9177777EF400C3
:105820000006F8000003FC000001EE100000BF407D
:1058300000008F7000004FB000001EF8777754FF13
:10584000FFFFFB007EF03FD707F4008F3008F30026
:105850008F3008F3009F208EE00FFA000BF2008FCC
:105860003008F3008F3008F3007F4004FD7008EF2C
:105870001F71F71F71F71F71F71F71F71F71F71F66
:1058800071F71F71F71F71F71F71F7AFA1004BF987
:105890000000ED0000DE0000DE0000DE0000DE00A3
:1058A00000DE0000AF92005FF400CF1000DE0000C9
:1058B000DE0000DE0000DE0000ED004AF900AFB1BE
:1058C000000000000101DFC100C5AC5CE34F2D40CA
:1058D00009FF90300002100001AFD500B803E41EAC
:1058E0000006A2E0006A0C701D502CFF7000000042
:1058F0000005309FF3CFF64EC1000000000000000D
:1059000027BA00000000000048DFFFF2000000019D
:105910006AFFFFFFFF2000007CFFFFFFFFFFF20098
:10592000004FFFFFFFFFFFFF200005FFFFFFFFB756
:105930003FF200005FFFFE950001FF200005FF73AE
:105940000000001FF200005FE000000001FF2000E7
:1059500005FE000000001FF200005FE000000001F3
:10596000FF200005FE000000698FF200005FE000EC
:1059700002EFFFFF200358FE00008FFFFFF22DFF14
:10598000FFE00004FFFFFD0BFFFFFE000004BDC8A9
:1059900010AFFFFFB0000000000000AFFFB100003B
:1059A000000000000001000000000000000051069F
:1059B00088888888883015F76EFFFFFFFFFFB68F55
:1059C000FDCFF33333336FECDFF20CE00000003F28
:1059D000702FF20CE00000003F802FFFFFE000007E
:1059E000003FFFFFF42DF9999999BF924FF20CFFF8
:1059F000FFFFFFFF702FFBAFF11111115FDABFF94D
:105A00008EE00000003FC89FF20CE00000003F70F5
:105A10002FF64DE00000003FA46FFEEFFBBBBBBBC9
:105A2000CFFEEFC20CFFFFFFFFFF802C58887028CD
:105A30008888888885FFFFF39FFFFFFFFFFFFFFF38
:105A4000F3AFFFFFFFFFFFFFFFF3AFFFFFFFFFFF1E
:105A5000BFFFD16FFFFFFFFFFB0000000000000051
:105A60000000CFFFE17FFFFFFFFFFCFFFFF3AFFF71
:105A7000FFFFFFFFFFFFF3AFFFFFFFFFFFFFFFF39E
:105A80009FFFFFFFFFFF5888602788888888854729
:105A90007750177777777774FFFFF39FFFFFFFFF4C
:105AA000FFFFFFF3AFFFFFFFFFFFFFFFF3AFFFFFBE
:105AB000FFFFFFDFFFF17FFFFFFFFFFD00000000A2
:105AC00000000000000000000000000005200000B1
:105AD00000000000008FF300000000000008FFFE3F
